:020000040800F2
:1000000058B700209D010008C7380008E92E0008F5
:10001000C5380008050B0008494000080000000032
:10002000000000000000000000000000CB380008C5
:10003000D10B000800000000C93800080139000891
:10004000B7010008B7010008B7010008B7010008B0
:10005000B7010008B7010008B7010008B7010008A0
:10006000B7010008B7010008B7010008B701000890
:10007000B7010008B7010008B7010008B701000880
:10008000B7010008B7010008C1090008B70100085E
:10009000B7010008B7010008B7010008B701000860
:1000A000B5390008E9390008DD390008D139000800
:1000B000B7010008F5390008013A0008B701000847
:1000C000B7010008B7010008B7010008B701000830
:1000D000B70100083D400008B7010008B70100085B
:1000E000B7010008B7010008B7010008B701000810
:1000F000B7010008B7010008B7010008B701000800
:10010000B7010008B70100080D3A0008B701000860
:10011000B7010008B7010008193A0008B701000844
:10012000090B0008150B0008210B0008B701000897
:10013000B7010008B7010008B7010008B7010008BF
:10014000B7010008B7010008B7010008B7010008AF
:10015000B7010008B7010008B7010008B70100089F
:10016000B7010008B7010008B7010008B70100088F
:10017000B7010008B7010008B7010008000000003F
:10018000B7010008B7010008DFF80CD000F0BEFB93
:10019000004800472151000858B700200648804712
:1001A00006480047FEE7FEE7FEE7FEE7FEE7FEE75C
:1001B000FEE7FEE7FEE7FEE799390008890100083F
:1001C0002DE9F05F0546002092469B46884606468C
:1001D000814640241BE0284641464746224600F01F
:1001E000D3F953465A46C01A914110D311461846C6
:1001F000224600F0BAF92D1A67EB01084F46224655
:100200000120002100F0B1F917EB00094E41201E3A
:10021000A4F10104DFDC484631462A464346BDE8E6
:10022000F09FD2B201E000F8012B491EFBD27047CB
:100230000022F6E710B513460A4604461946FFF7B2
:10024000F0FF204610BD2DE9FE4F804681EA0300F5
:10025000C00F0C46009021F0004123F00045B8EBA0
:100260000200A94105D24046214690461C460B4655
:10027000024623F00040104347D0270DC7F30A0081
:10028000C3F30A510290401A019040286BDAC3F37D
:10029000130040F4801B0098924620B10023D2EB5B
:1002A000030A63EB0B0B01985946C0F1400250461C
:1002B00000F05BF906460D4650465946019A00F09B
:1002C00073F910EB08006141002487EA115284EAB7
:1002D000E7731A4340D0009A62B3019A012A4FEAA9
:1002E000075215DC001B61EB02014FF0004202EAED
:1002F0000752CDE90042001C41F5801132462B46E1
:1003000000F0AAF903B0BDE8F08F40462146F9E7B6
:10031000001B61EB0201001C41F5801300185B41DA
:100320002018A2F5001747EB030140EAD570B61973
:100330006D4111E06D084FEA360645EAC0754FEA97
:100340000752001B61EB0201001C41F580114908B6
:100350004FEA30000019514132462B4603B0BDE848
:10036000F04F00F06AB90098012240000023D0EB62
:10037000020263EBE073009821464FEAE074B8EBA9
:10038000000061EB0401E9E783F000435BE781F0E3
:10039000004158E72DE9F04D81EA030404F0004BD9
:1003A00021F0004514464FF0000A23F0004150EAC6
:1003B000050220D054EA01021DD0C5F30A570246B7
:1003C000C5F31303C1F31300C1F30A5640F48015BB
:1003D00043F48013A7EB0608101BD64608F2FD383D
:1003E00073EB050002D308F1010801E092185B41AC
:1003F000B8F1000F03DA00200146BDE8F08D0020BF
:100400004FF48011064684460EE0171B73EB050778
:1004100005D3121B63EB050306434CEA010C4908A4
:100420004FEA300092185B4150EA0107EDD152EAE1
:10043000030012D082EA040083EA0501084305D0D4
:10044000101BAB4106D20122002306E000224FF030
:10045000004302E06FF0010253101AEB06004CEB70
:10046000085110EB0A0041EB0B01BDE8F04D00F024
:10047000E4B80EB5C10F80EAE0700844CA07002155
:1004800040F233438DE80E000A460B4600F0E4F8D4
:1004900003B000BD0EB540F2334102910021CDE919
:1004A00000110A460B4600F0D7F803B000BDC1F3B7
:1004B0000A5210B5C1F3130140F2FF3341F4801129
:1004C0009A4201DA002010BD40F233439A42A2F270
:1004D000334203DC524200F057F810BD904010BD8B
:1004E00000F0004230F000400AD0C10D01F560710B
:1004F000C0F3160042EA0151C20840071143704799
:1005000000200146704701F0004330B421F0004163
:1005100050EA010206D00A0DA2F56072C1F3130180
:10052000002A02DC30BC00207047440F44EAC104BA
:10053000C100E01830BC00EBC25000F047B830B545
:100540000B46014600202022012409E021FA02F591
:100550009D4205D303FA02F5491B04FA02F528442B
:10056000151EA2F10102F1DC30BD202A04DB203A85
:1005700000FA02F1002070479140C2F1200320FAF6
:1005800003F3194390407047202A04DB203A21FAF4
:1005900002F00021704721FA02F3D040C2F120029C
:1005A0009140084319467047202A06DBCB17203AB2
:1005B00041FA02F043EAE07306E041FA02F3D04068
:1005C000C2F1200291400843194670470029A8BF94
:1005D0007047401C490008BF20F00100704710B46C
:1005E000B0FA80FC00FA0CF050EA010404BF10BC21
:1005F000704749B1CCF1200421FA04F411FA0CF14E
:1006000018BF012121430843A3EB0C01CB1D4FEA86
:1006100000614FEA102042BF002010BC704700EB81
:10062000C35010440029A4BF10BC7047401C4900AF
:1006300008BF20F0010010BC704710B5141E73F104
:10064000000408DA401C41F1000192185B411A4392
:1006500001D120F0010010BD2DE9F04D92469B46DE
:1006600011B1B1FA81F202E0B0FA80F22032904684
:10067000FFF77BFF04460F4640EA0A0041EA0B0100
:1006800053465A46084313D0114653EA010019D085
:10069000C8F140025046FFF777FF05460E46504628
:1006A00059464246FFF761FF084305D0012004E0A8
:1006B00020463946BDE8F08D0020054346EAE07645
:1006C0002C4337430A986305E40AA0EB0800002294
:1006D000FD0A44EA47540A3002D500200146E9E702
:1006E000010510196941DDE9084500196941BDE8B6
:1006F000F04DA2E72DE9FE4F81EA030404F0004427
:1007000021F0004100944FF0000B23F0004350EA29
:1007100001045ED052EA03045BD0C3F30A54C1F370
:100720000A552C44A4F2F3340194A0FB0254C1F303
:10073000130141F48011C3F3130343F4801301FB4D
:10074000024400FB034E840A970A44EA815447EAB4
:100750008357A4FB076802958D0A05FB07854FEABE
:10076000932C04FB0C542705029D4FEA065847EAD8
:100770001637B5EB08056EEB070C870E920E47EAAD
:10078000811742EA8312A7FB0201B6EB0B0164EB6F
:1007900000042B0D43EA0C335E1844EB1C50DA4680
:1007A0005146E7FB0201C5F313044FEA0B3343EA5A
:1007B00014534FEA0432019C43EA0603A4F10C04EB
:1007C0000294009CCDE900B4FFF746FF03B0BDE8FA
:1007D000F08F00200146F9E72DE9F04D00231A467D
:1007E0001B1A8A4103DB00200146BDE8F08DC1F3EE
:1007F0000A52C1F3130141F480154FF0000BD107E9
:1008000002D100186D41521E0027044640F2FF112C
:10081000384601EB620A3E468046024600204FF40D
:100820008011FFF7B1FEC2197141BB1846EB010000
:10083000B4EB030C75EB000C04D3E41A65EB000574
:1008400017460E46241908F101006D4180463428F0
:10085000E3DDF91946EB0600091BA84103D24FF06E
:10086000FF32134601E0002213461BEB070046EB64
:100870000A51BDE8F04DFFF7E0BEC1F30A52C1F3E3
:10088000130140F2FF3341F480119A4202DA002052
:100890000146704740F233439A42A2F2334202DCEF
:1008A0005242FFF771BEFFF760BE000030B5041E74
:1008B00071F1000404DB4FF00044404264EB01019D
:1008C000141E73F1000405DB1C464FF00043524236
:1008D00063EB04038B4208BF824230BD30B5041E77
:1008E00071F1000404DB4FF00044404264EB01016D
:1008F000141E73F1000405DB1C464FF00043524206
:1009000063EB0403994208BF904230BD064C074D8B
:1009100006E0E06840F0010394E8070098471034CF
:10092000AC42F6D3FFF734FCD0510008F051000878
:1009300010B50146806B026C12F0500F05D0026CAE
:10094000D20626D500F02DFA10BD016C41F40071DD
:10095000016401688A6812F0405F17D1027EAAB96B
:10096000CA6A12F4700F02D08A6852050ED44A681F
:1009700022F020024A60016C21F480710164016C54
:10098000C90403D4016C41F00101016400F0CAF90B
:1009900010BD806BC26CBDE810400846104710B512
:1009A000806B40210164416C41F00401416400F01E
:1009B000F8F910BD10B5806B00F0F2F910BD000021
:1009C00010B5044800F0EEF9BDE81040024800F010
:1009D000E9B9000084000020CC000020464910B591
:1009E0004A6822F440324A604A6843681A434A60BF
:1009F00001684A6822F480724A6001684A680369A3
:100A000042EA03224A6001684A6822F040724A6062
:100A100001684A6883681A434A6001688A6822F458
:100A200000628A6001688A68C3681A438A60816AC2
:100A30006FF07062D14201688A6822F070628A6049
:100A400001688A680CD0836A1A438A6001688A68E0
:100A500022F040528A6001688A68C36A1A4301E042
:100A600022F040528A6001688A6822F002028A609D
:100A700001688A68037E42EA43028A6090F8201087
:100A8000002901684A680FD042F400624A60016898
:100A90004A6822F460424A6001684A68174C436A17
:100AA00004EB43331A4301E022F400624A60016818
:100AB000CA6A22F47002CA620168CA6A838B104C47
:100AC00004EB03531A43CA6201688A6822F4007275
:100AD0008A6001688A6890F8303042EA43228A606E
:100AE00001688A6822F480628A6001688A684069C5
:100AF00042EA8020886010BD0023014000E0FFFF33
:100B00000000F0FFFEE70000014800F035BC0000E7
:100B100014010020014800F02FBC000074010020E7
:100B2000014800F029BC0000E803002001681823F8
:100B3000CAB2103AB2FBF3F2054B6FF30901032A74
:100B40009B5CC36500D9091D81650846704700009C
:100B50006A51000810B5014600208B698A6A4FF07F
:100B6000C07453B1B3F5005F15D072B1012A0CD037
:100B7000022A0AD0032A09D104E01AB1012A06D0B8
:100B8000022A03D1C96AC90100D5012010BDC96A72
:100B9000A142FAD010BD002AF7D0012AF2D0022AD1
:100BA000F3D0032AF3D010BD30B50468256825F4CE
:100BB00080252560046863608368402B036803D048
:100BC00099600068C26030BD9A600068C16030BD45
:100BD000704772B6FEE7704778B50024009490F82D
:100BE0003C20012A19D0012280F83C200A68072302
:100BF0000568092A13D9EE680A3A02EB42029340CB
:100C00009E43EE600B788A680A3B03EB43039A40ED
:100C10000368DD682A43DA6010E0022078BD2E699F
:100C200002EB420293409E432E610B788A6803EBED
:100C300043039A4003681D692A431A614A681F23C7
:100C4000072A13D205686E6B521E02EB8202934094
:100C50009E436E630B790A885B1E92B203EB83039B
:100C60009A4003685D6B2A435A6327E005680D2AA2
:100C700012D22E6BD21F02EB820293409E432E6350
:100C80000B790A88DB1F92B203EB83039A40036857
:100C90001D6B2A431A6311E0EE6A0D3A02EB8202E1
:100CA00093409E43EE620B790A880D3B92B203EBB0
:100CB00083039A400368DD6A2A43DA62164B0568AB
:100CC000144A9D4206D10D68122D03D1556845F492
:100CD0008005556005689D4218D10B68102B01D026
:100CE000112B13D1536843F4000353600968102992
:100CF0000CD10A490A4A0968B1FBF2F101EB810102
:100D0000490000E0491E00910029FBD180F83C40D9
:100D1000002078BD00230140002001407800002021
:100D200040420F0070B50068194988422ED1194C15
:100D3000002211462388184800F0C8FA174908789D
:100D4000012823D1888841F27073B0FBF3F203FBD2
:100D5000120504F23252268822F81560B0FBF3F532
:100D600003FB150502EB450505F500556688A5F85A
:100D7000E06EB0FBF3F503FB150302EB430202F553
:100D8000A042A388A2F8C03D401C888070BD00002E
:100D90000020014078040020D40100200000002041
:100DA0007047704770B50446006801684268C1F337
:100DB0004001C2F3401251B34AB3216CC90603D4B7
:100DC000216C41F400712164816811F0405F17D1FA
:100DD000217EA9B9C16A11F4700F02D0816849055A
:100DE0000ED4416821F020014160206C20F4807015
:100DF0002064206CC00403D4206C40F00100206407
:100E00002046FFF78FFF21686FF01200086020680E
:100E100001684268C1F38001C2F3C01289B382B392
:100E2000216CC90603D4216C41F40051216481680E
:100E300011F4401F1ED1816B11F4401F02D0816854
:100E4000490517D44168490514D4816811F0405F01
:100E500010D1217E71B9416821F080014160206C80
:100E600020F480502064206CC00503D4206C40F036
:100E7000010020642046FFF7AEFE21686FF00C00F1
:100E8000086020680168426811F0010FC2F3801207
:100E90000ED06AB10068C0070AD0206C40F48030E0
:100EA0002064204600F046F821686FF001000860D9
:100EB000206801684268C1F34011C2F380620029D2
:100EC0000DD0002A0BD0616C41F0020161646FF01B
:100ED000200505602046FFF764FF2068056070BDAF
:100EE00070B504004FF0000503D0206C002610B14F
:100EF00007E0012070BD204600F01EF8666484F80B
:100F00003C60206CC00610D4206C20F4885040F067
:100F1000020020642046FFF761FD6664206C20F02B
:100F2000020040F00100206400E0012584F83C60EC
:100F3000284670BD704700002DE9F04786B0064690
:100F400014216846FFF774F94248414B143832685F
:100F500000244049032507154FF400684FF4005959
:100F60004FF4807A9A4240D10A6842F480720A6053
:100F7000096801F480710591016841F00101016087
:100F8000016801F001010591016841F00201016071
:100F90000068694600F0020005904920CDE900058F
:100FA00002942D4800F06CFB0095CDE90154694690
:100FB0002A4800F065FB2B4D294805F10C02C5E9D4
:100FC0000004AC6082E890072C6228466C6238E02E
:100FD000B563002211461220AE6300F0A5FC12207A
:100FE00000F094FC06B0BDE8F0871F4B9A42F9D19F
:100FF0000A6842F480620A60096801F48061059120
:10100000016841F0200101600068694600F020009D
:1010100005904FF46070CDE900050294134800F08C
:101020002FFB104D0E486035183028604FF080605F
:10103000C5E9010405F10C02284682E890072C62FC
:101040006C6200F069FA0028C2D0FFF7C2FDBFE76A
:1010500000200140443802400000024000040240E9
:1010600010640240140100200022014000140240DC
:10107000F8B50E4600210446009190F83C00012886
:1010800007D0012084F83C0020688368DB0702D089
:1010900011E00220F8BD836843F001038360374804
:1010A000374B0068B0FBF3F000EB400000E0401E5F
:1010B00000900028FBD120688368DB075CD0236C9C
:1010C00040F20165AB4343F48073236440684005FC
:1010D00005D5206C20F4005040F480502064206C32
:1010E000C00404D5606C20F00600606400E0616418
:1010F00084F83C10A16B2448224DC863A16B23489F
:101100000864A16B2248C86421686FF0220008605F
:101110002068416841F0806141602068816841F445
:10112000807181602168134632464C31A06B00F01B
:101130005DFA68681749C006206806D088421BD14E
:10114000816811F0405F13D016E08842F8D0124A4F
:10115000904203D1D1F80423D206F1D00F4A904235
:101160000AD1D1F8041301F01F011029E8D303E0DC
:10117000816841F0804181600020F8BD7800002046
:1011800040420F000023014031090008B509000862
:101190009F09000800200140002101400022014079
:1011A000704770B54379012B1AD00126467102238E
:1011B000037105682C6840F6FE7393409C43D1E9A7
:1011C00000310B43934023432B6001680B68C0241C
:1011D0009440A3430B60067100214171084670BD25
:1011E000022070BD704770B504460068416B4FF037
:1011F000040589040ED52571216941F001012161A1
:10120000E90241632068016821F4805101602046B1
:10121000FFF7E8FF2068416B890011D5257121692E
:1012200041F0020121614FF00051416320680168E3
:1012300021F0805101602046BDE87040FFF7B0BF4B
:1012400070BD70B5040003D02079002510B105E011
:10125000012070BD6571204600F008F80220207161
:10126000256101202071002070BD000010B586B0FE
:10127000044614216846FEF7DBFF114920688842C6
:101280001CD110480021026842F000520260006840
:1012900000F0005005900B481038026842F001023F
:1012A0000260006800F001000590302000900320EB
:1012B000CDE901016946044800F0E2F906B010BD2D
:1012C00000740040403802400000024018B5046835
:1012D00000940068104421B1143000900360002095
:1012E00018BD0830F9E730B54279012A16D001223D
:1012F00042710223037103681D6802FA01F4254359
:101300001D60002901680B680AD00C6803F4802373
:1013100004F46014B3F5802F0FD015E0022030BD27
:101320000C6803F0040304F03804042B0CD1382CAF
:101330000AD14B6843F0010305E0B4F5601F03D107
:101340004B6843F002034B60027100214171084673
:1013500030BD90F83510022903D08021416501206D
:101360007047052180F835100068016821F00101FF
:1013700001600020704700002DE9F84304464FF05B
:101380000009CDF8009063484FF41651A56D006830
:10139000B0FBF1F72E6894F85C10082000FA01F118
:1013A00031420FD021680A6852070BD50A6822F033
:1013B00004020A6094F85C108840A860606D40F0F8
:1013C0000100606594F85C104FF0010808FA01F024
:1013D000304208D021684969090604D5A860606DCB
:1013E00040F00200606594F85C10042088403042B0
:1013F00008D021680968890704D5A860606D40F0AD
:101400000400606594F85C1010208840304218D0C9
:1014100021680968090714D5A86020680168490394
:1014200004D50068000308D5A16C07E00168C90570
:1014300003D4016821F008010160216C09B1204644
:10144000884794F85C1020208840304231D02168D1
:101450000968C9062DD5A86094F8350005282068CC
:10146000016806D0490347D5006800031DD4616CAC
:101470001CE021F0160101602068416921F0800123
:101480004161206C08B9A06C20B12068016821F08E
:101490000801016094F85C103F208840A86084F83F
:1014A000349084F83580216D1FE0E16B09B120464E
:1014B0008847606D00282BD0606DC00714D00520D0
:1014C00084F835002068016821F00101016000986E
:1014D000401C0090B84203D820680068C007F6D1CD
:1014E00084F8349084F83580E16C002910D001B084
:1014F0002046BDE8F04308470168C905D5D4016816
:1015000021F01001016084F8349084F83580CCE734
:10151000BDE8F883780000202DE9F041044600F092
:1015200095F906465CB1002584F83450022084F811
:1015300035002068016821F0010101600DE0012003
:10154000BDE8F08100F082F9801B052805D9202034
:101550006065032084F83500F2E720680068C00762
:10156000F0D12268116820480140D4E901031843F2
:10157000D4E903363343184363691843A369184316
:10158000E3691843236A18430843616A042903D1B5
:10159000D4E90B1319430843106020684069666A58
:1015A00020F0070130460E43012704280CD1A06A21
:1015B0000643E06A40B12046FFF7CCFA20B1402054
:1015C000606584F83570BAE7206846612046FFF709
:1015D000ADFA94F85C203F2191408160656584F804
:1015E00035700020ACE700003F8010F02DE9F0419D
:1015F0000446866D90F83400002501280DD00120A6
:1016000084F8340094F835700020012F07D084F856
:10161000340002252846BDE8F0810220FBE70227BE
:1016200084F8357060652046FFF7BEFA94F85C10C8
:101630003F208840B0602068016841F016010160D9
:10164000206C20B12068016841F008010160206829
:10165000016841F001010160DCE7000070B504465B
:1016600000F0F4F80546601C02D0044800780444F9
:1016700000F0ECF8401BA042FAD370BD6C000020D3
:101680002DE9F84F00224FF0010803254FF00F0E0F
:101690000B6808FA02F42340A3426ED14E68012E73
:1016A00005D0022E03D0112E01D0122E12D1866841
:1016B0004FEA420C05FA0CF7BE43CF6807FA0CF765
:1016C000374387604668A6430C79C4F300149440FE
:1016D00034434460C668570005FA07FC8C6826EA64
:1016E0000C06BC403443C4604C68022C01D0122C60
:1016F00013D1D40800EB8404A346D4F820905407F7
:101700004FEAD46A0EFA0AF629EA06090E6906FAC1
:101710000AF646EA0906CBF8206006680C7926EA44
:101720000C0604F00304BC40344304604C68E4003D
:1017300065D5364C266846F480462660246822F03B
:10174000030604F480440094314C3444A446D4F895
:1017500008489607370F0EFA07F6B4432D4EB042ED
:1017600001D1002624E02C4EB04201D101261FE019
:101770002A4EB04202D102261AE040E0284EB04282
:1017800001D1032614E0274EB04201D104260FE018
:10179000254EB04201D105260AE0244EB04201D1C7
:1017A000062605E0224EB04201D1072600E00826B9
:1017B000BE402643CCF808681E4E34684F689C43F0
:1017C000FF0300D51C4334601A4C241D26684F6863
:1017D0009E43BF0300D51E432660164E083634686C
:1017E0004F689C43FF0200D51C433460114E0C36F9
:1017F00034684F689C43BF0200D51C433460521CC0
:10180000102AFFF445AFBDE8F88F000044380240CD
:101810000030014000000240000402400008024085
:10182000000C024000100240001402400018024068
:10183000001C0240003C01400069084000D001202B
:1018400070470AB1816170470904FBE7014880686D
:10185000704700006C000020024881680278114443
:10186000816070476C0000200B4810B5016841F49E
:1018700000710160016841F480610160016841F418
:1018800080710160032000F06FF8002000F006F87E
:1018900000F024F8002010BD003C024070B50D4D52
:1018A00004464FF47A712878B1FBF0F00A490968D0
:1018B000B1FBF0F000F002FB48B9102C07D2002277
:1018C0002146501E00F030F800206C6070BD0120F1
:1018D00070BD00006C000020780000200A4808B5A8
:1018E000016841F480410160006800F4804000908C
:1018F0000548001F016841F080510160006800F058
:101900008050009008BD000044380240002809DBE8
:1019100000F01F02012191404009800000F1E02009
:10192000C0F8001170470000F0B40E4B1B680C4665
:10193000C3F30223C3F10705042D00D90425191DA3
:10194000072901D2002300E0DB1E012606FA05F17B
:10195000491E214099409E40761E16403143F0BCFE
:1019600002F084BB0CED00E0064900F007020868B5
:101970004FF6FF03184040EA0220034A1043086074
:10198000704700000CED00E00000FA052DE9F0477B
:101990000E46050065D0DFF81481D8F80000F7B2D4
:1019A00000F00F00B04207D288F80070D8F80000AD
:1019B00000F00F00B04254D128683D4C810712D589
:1019C000400703D5206840F4E050206028780007E5
:1019D00003D5206840F4604020602068A96820F0AA
:1019E000F000084320602878C0072DD0304968688F
:1019F0000839012812D0022813D0032811D0096811
:101A0000890700292DDA216821F0030101432160B3
:101A1000FFF71CFF814641F2883A0EE0096889030E
:101A2000EFE709688901ECE7FFF710FFA0EB090178
:101A3000514502D90320BDE8F0872068696800F0AD
:101A40000C00B0EB810FEFD1D8F80010404601F048
:101A50000F01B14207D90770006800F00F00B042D3
:101A600001D00120E7E72878400705D52068E9681C
:101A700020F4E050084320602878000706D520684D
:101A8000296920F4604040EAC100206000F038F885
:101A90002168084AC1F30311515CC8400649086037
:101AA00006480068FFF7FAFE0020C4E7003C024049
:101AB00008380240725100087800002070000020B1
:101AC0000448054900680968044AC1F38221515C51
:101AD000C840704778000020083802408251000852
:101AE0000448054900680968044AC1F34231515C61
:101AF000C840704778000020083802408251000832
:101B0000154810B5006810F00C02144813D04110AD
:101B1000042A0FD0082A0ED10F4C241F22682368F4
:101B200002F03F025B0207D52068C0F38810A0FBDB
:101B3000010106E0084610BD2168C1F38811A1FB30
:101B400000010023FEF73CFB2168C1F30141491C61
:101B50004900B0FBF1F010BD083802400024F40049
:101B60002DE9F84F04006ED02078DFF83C93C007D1
:101B7000A9F104054AD009F104000168C1F381010B
:101B8000012908D00068C0F3810002280AD1D9F8E1
:101B90000000400206D52868800337D56068002819
:101BA000E1D033E06068B0F5803F10D0B0F5A02FF1
:101BB000286810D020F480302860286820F4802025
:101BC00028606068A8B1FFF741FE06460DE028686E
:101BD00040F48030F4E740F480202860F7E700BF4D
:101BE000FFF734FE801B642873D828688003F7D57C
:101BF0000CE0FFF72BFE064605E000BFFFF726FED0
:101C0000801B6428F0D828688003F7D42078DFF898
:101C10009C8280074FF0000A3ED5A348001D016852
:101C200011F00C0F08D00068C0F3810002280BD11E
:101C3000D9F80000400207D42868800716D5E0686C
:101C4000012800D112E02BE1E068B8B10120C8F80A
:101C50000000FFF7FBFD064605E000BFFFF7F6FDBD
:101C6000801B0228C0D828688007F7D5286821691A
:101C700020F0F80040EAC10028600DE0C8F800A09C
:101C8000FFF7E4FD064604E0FFF7E0FD801B0228B5
:101C90001FD828688007F7D42078000722D5824E05
:101CA00083486169703671B101210160FFF7CEFD93
:101CB000074604E0FFF7CAFDC01B022809D83068B8
:101CC0008007F7D50EE0C0F800A0FFF7BFFD07467C
:101CD00005E082E0FFF7BAFDC01B02287DD830681E
:101CE0008007F7D42078400768D5DFF8BCB100271B
:101CF0000BF13C0BDBF80000C0000BD4DBF800104C
:101D000041F08051CBF80010DBF80000012700F013
:101D100080500090674E3068C00510D4306840F4A1
:101D200080703060FFF792FD009005E0FFF78EFDB8
:101D30000099401A022850D83068C005F6D55A4E8E
:101D4000A0686C3601280FD00528306810D020F02C
:101D500001003060306820F004003060A068B8B145
:101D6000FFF774FD00900FE0306840F00100F4E7E9
:101D700040F004003060F7E7FFF768FD0099411A72
:101D800041F28830814266D830688007F4D50EE091
:101D9000FFF75CFD009007E0FFF758FD0099411A3E
:101DA00041F28830814256D830688007F4D42FB190
:101DB000DBF8001021F08051CBF80010A069C8B307
:101DC0003949091D0968C1F3810102294AD0022855
:101DD000504607D0C8F8600000E03CE0FFF736FD51
:101DE00004463BE04746C8F86000FFF72FFD064673
:101DF00005E000BFFFF72AFD801B02282BD82868CA
:101E00008001F7D4D4E907010843A16A2A4A4908A6
:101E100002EB0141626A41EA8211084394F82C10F6
:101E200040EA0161C9F8001001203866FFF70EFD95
:101E3000044606E036E000BFFFF708FD001B02285D
:101E400009D828688001F7D52CE000BFFFF7FEFC19
:101E5000001B022802D90320BDE8F88F2868800102
:101E6000F4D41FE00128F7D0D9F80000E26900F4AB
:101E70008001914214D1226A00F03F0191420FD1BA
:101E800047F6C071626A0140914209D1A26A00F42A
:101E90004031914204D1E16A00F07060884201D083
:101EA0000120D9E70020D7E704380240000047426C
:101EB000800E4742007000400000FFFF10B5401E3A
:101EC000B0F1807F01D3012010BD4FF0E0246061AC
:101ED0000F21601702F0CAF80020A06107202061DE
:101EE000002010BD7047704710B590F83C20012AC3
:101EF00022D0012280F83C20CA688C6822F440720B
:101F000022434C6822F4806222430C6822F400626F
:101F100022430C6922F4805222434C6922F400527D
:101F20002243C969002322F480420A4301684A64BB
:101F300080F83C30002010BD022010BD70B588B084
:101F40000E46040004D094F83D00002518B107E0C7
:101F5000012008B070BD84F83C50204600F04CF8D9
:101F6000022084F83D00211D206801F063FDB36864
:101F700031680322206801F0B5FE2068816921F0F4
:101F80000C01816120688169726811438161206858
:101F9000416841F0800141602068816821F0700152
:101FA00081602068816841F040018160206881681B
:101FB00021F0070181602068816841F0040181609F
:101FC0007020059504950695039502950090F0689C
:101FD00001906946206801F0E1FD2068416821F028
:101FE000700141602068416841F05001416001206A
:101FF00084F83D000020ACE77047000070B590F811
:102000003C20012A32D0012480F83C40022280F892
:102010003D2003685A689D6822F070060A683243C2
:102020005A60134B02689A4214D0B2F1804F11D01B
:10203000104B9A420ED0104B9A420BD00F4B9A4243
:1020400008D00F4B9A4205D00E4B9A4202D00E4B4D
:102050009A4204D1496825F080031943916080F8C1
:102060003D40002180F83C10084670BD022070BD44
:10207000000001400004004000080040000C004047
:1020800000040140004001400018004010B5040069
:1020900003D094F83D0010B107E0012010BD0020EE
:1020A00084F83C00204600F00DF8022084F83D0042
:1020B000211D206801F0BEFC012084F83D000020B5
:1020C00010BD000070B586B0044614216846FEF7C6
:1020D000AFF8414822680024404B824207D118687B
:1020E00040F001001860186800F001005BE03B4818
:1020F0003A493B4E001F14390225B24229D10268E9
:1021000042F004020260006800F0040005900868D4
:1021100040F008000860086800F0080005900868B2
:1021200040F0020008600868694600F0020005906F
:102130004FF440500090CDE901542A48CDE90345C1
:10214000FFF79EFAE8010090CDE901546946264860
:1021500019E0264EB2421CD1026842F00802026029
:10216000006800F008000590086840F080000860F2
:102170000868694600F0800005904FF4E050009038
:10218000CDE901541A48CDE90345FFF779FA06B0C5
:1021900070BD18498A4208D1016841F01001016000
:1021A000006800F010000590F1E71348824207D163
:1021B000186840F002001860186800F00200F2E7AA
:1021C0000E488242E3D1186840F4803018601868E5
:1021D00000F48030E7E7000000000140443802408E
:1021E00000080040000C024000040240000C0040C7
:1021F000001C02400010004000040140004001406B
:10220000022180F83D1001688A6802F00702062A60
:1022100003D00A6842F001020A60012180F83D10F3
:102220000020704770B5044690F83C00012817D094
:10223000012584F83C50022084F83D002068826823
:1022400022F0770222F47F4282600868502830D062
:102250000DDC20284DD005DC98B310283BD148E098
:10226000022070BD302844D0402834D139E06028A5
:1022700028D0702806D0B0F5805F2CD0B0F5005F74
:1022800029D10AE0CB68D1E90121206801F043FCA3
:102290002068816841F0770109E0CB68D1E901212C
:1022A000206801F038FC2068816841F48041816039
:1022B00011E0CA684968206801F002FD50212068D9
:1022C00007E016E0CA684968206801F04BFD60210C
:1022D000206801F02AFC84F83D50002084F83C007E
:1022E00070BDCA684968206801F0EAFC4021206896
:1022F000EFE7226801461046EBE72DE9F0410D4675
:10230000040003D094F83D0018B108E00120BDE8B6
:10231000F081002084F83C00204600F03BF80220C9
:1023200084F83D002068816844F20702914381608F
:10233000211D206801F07EFB226890689169166A71
:102340002B68AF69034340F20330814341EA072120
:10235000A868EF6908434FF6FC418843E96840EA02
:102360000720014328692F6A000140EA073008432B
:1023700069686D6926F0AA0646EA05152943936047
:102380002268906120680162012084F83D000020ED
:10239000BDE7000010B586B0044614216846FDF77D
:1023A00047FF16492068884226D115480021026857
:1023B00042F002020260006800F00200059010483E
:1023C0001038026842F004020260006800F0040065
:1023D0000590C02000900220CDE90101CDE9031055
:1023E00069460848FFF74CF9002211461D20FFF707
:1023F0009BFA1D20FFF78AFA06B010BD00040040CA
:10240000403802400008024010B50446006891B10F
:10241000042904D00122002101F070FB2068012270
:102420005FF0040101F06AFB2068016841F00101DE
:102430000160002010BD01220021F3E7704770B554
:102440000446006801694FF00005C943890715D4A7
:10245000C168C943890711D4E91E016101202077B1
:10246000206880698007204602D0FFF7E7FF04E07C
:1024700000F0F4F8204600F076F92577206801692D
:10248000C943490717D4C168C943490713D46FF03A
:1024900004010161022020772068806910F4407FE8
:1024A000204602D0FFF7CAFF04E000F0D7F820462C
:1024B00000F059F9257720680169C943090716D446
:1024C000C168C943090712D46FF0080101610420F3
:1024D00020772068C0698007204602D0FFF7AEFF52
:1024E00004E000F0BBF8204600F03DF925772068B5
:1024F0000169C943C90617D4C168C943C90613D4C1
:102500006FF010010161082020772068C06910F485
:10251000407F204602D0FFF791FF04E000F09EF8D4
:10252000204600F020F9257720680169C943C907D2
:1025300008D1C168C943C90704D1891E0161204679
:1025400000F012F920680169C943090609D4C1687D
:10255000C943090605D46FF0800101612046FFF7E9
:10256000C1FC20680169C943490609D4C168C9434F
:10257000490605D46FF040010161204600F01CFBC4
:1025800020680169C94389060BD4C168C94389061B
:1025900007D46FF0200101612046BDE87040FFF7CD
:1025A000A2BC70BD30B587B0044614216846FDF763
:1025B0003FFE2368224C002022490222A34212D16E
:1025C0000B6843F001030B60096801F001010591FC
:1025D0004FF4E0610091CDE90120039001200490C7
:1025E0006946194813E0194D0324AB4213D10B6817
:1025F00043F480730B60096801F480710591E02158
:102600000091CDE90120CDE9030469461048FFF7A8
:1026100037F807B030BD0F4DAB42FAD10B6843F02D
:1026200010030B60096801F0100105914021009131
:10263000CDE90120CDE9030469460748E7E700003A
:102640000000014030380240000002400004014018
:10265000002002400040014000100240704770B569
:10266000044690F83C000D4601280DD0012684F860
:102670003C60022084F83D0042B1042A18D0082AA8
:102680002AD00C2A4DD139E0022070BD206801F01B
:1026900055FA2068816941F00801816120688169EB
:1026A00021F004018161206881692A69114311E0E8
:1026B000206801F073FA2068816941F4006181614A
:1026C0002068816921F480618161206881692A69BB
:1026D00041EA0221816124E0206801F095FA206836
:1026E000C16941F00801C1612068C16921F004019C
:1026F000C1612068C1692A69114311E0206801F0B5
:10270000B7FA2068C16941F40061C1612068C169FC
:1027100021F48061C1612068C1692A6941EA02210E
:10272000C16184F83D60002084F83C0070BD10B5A4
:10273000040003D094F83D0010B107E0012010BD63
:10274000002084F83C00204600F00CF8022084F8B9
:102750003D00211D206801F06DF9012084F83D0045
:10276000002010BD704770472DE9F05F044601223C
:102770001146FE48FFF765F8FD492068FD4D884287
:102780000AD1FD4800680068C006A86801D5401E4F
:1027900000E0401CA86006E2F8498842FBD1E888C6
:1027A0004FF0C809401C80B2B0FBF9F2E880F14C50
:1027B00009FB12001C34012808D100F0A9FBE062DB
:1027C000E06A216B401A6063E06A2063E8880026B3
:1027D000B0F5C87F06D1A068E168401A2061A06802
:1027E000E060EE80012000F055FBC7B26878A84693
:1027F000B84207D02078012802D1384601F066F8A7
:1028000088F801706079A178DD4F8842E069A7F10E
:102810003A0570D000EBC001C1EB8010D949B1FB83
:10282000F0F000EE100AB8EE400ADFEDD70A20EE15
:10283000200AD4ED050A9FEDD51A00EE810A84ED39
:10284000050A6079062827D8A078062824D8607958
:1028500000F00F01A07861F31F10452816D0512811
:1028600014D0132812D0322810D026280ED0642875
:102870000CD062280DD023280BD0312809D0152880
:1028800007D0542805D0462803D005E0A068401E94
:1028900001E0A068401CA060A078012813D198F83E
:1028A00002204046012122B102782AB1012A07D034
:1028B00009E088F8021006E00170A8F8046002E060
:1028C000022188F80010A178AD48263879B1A178A6
:1028D00002290CD0A178042924D0A178052921D07F
:1028E000A17801293AD0A178032937D051E00023FB
:1028F0001A46298805E05AE037F812C0521C634492
:1029000092B29142F8D8B3FBF1F200EE102AB8EE81
:10291000400A80ED000A9A4802F0FAFAA8812E8057
:10292000EE8036E000231A46698806E007EB420C89
:10293000521CBCF890C192B263449142F6D8B3FBEA
:10294000F1F200EE102AB8EE400A80ED010A90483C
:1029500002F0DEFAE8816E802E811AE000231A462A
:10296000A98806E007EB420C521CBCF820C392B2C7
:1029700063449142F6D8B3FBF1F200EE102AB8EEB0
:10298000400A80ED020A834802F0C2FA2882AE8033
:102990006E81A0786071607906210003B0FBF1F3CD
:1029A000002210217C48FEF791FCE66105E0401C06
:1029B000E0612078012800D1E069A378A646DFF81D
:1029C000C0B16C48ABF1160B0BF2C64110304FF0A2
:1029D000140AA1F2BA42042B22D10388B3FBFAFCF9
:1029E0000AFB1C34B2F800C021F814C05B1C9CB276
:1029F0000480142C11D14FF0000C634631F8138081
:102A00005B1C9BB2C4449C42F8D8BCFBF4F300EEC0
:102A1000103AB8EE400A8BED000A142C00D3068061
:102A20009EF80230012B27D14388B3FBFAFC0AFB46
:102A30001C3401EB4404B2F802C0A4F828C05B1CAB
:102A40009CB24480142C14D14FF0000C4FEA0C03BC
:102A500001EB43085B1CB8F828809BB2C4449C423D
:102A6000F6D8BCFBF4F300EE103AB8EE400A8BED5A
:102A7000010A142C00D346809EF80230062B28D180
:102A800080468088B0FBFAFC0AFB1C0301EB430381
:102A9000B2F804C0A3F850C0401C83B2A8F80430B8
:102AA000142B12D10024204601EB400C401CBCF832
:102AB00050C080B264448342F6D8B4FBF3F000EE19
:102AC000100AB8EE400A8BED020A142B01D3A8F8C5
:102AD00004609EF80210704601290FD08178032906
:102AE0000CD0817805291CD08178062919D08178ED
:102AF00002292BD08078042828D054E02888118817
:102B0000B0FBF9F309FB1303401C80B227F8131044
:102B10002880C82800D32E80E888814243D9E980E4
:102B200041E06988B1FBF9F309FB131007EB40039F
:102B3000491C508889B2A3F890016980C82900D344
:102B40006E80298988422ED928812CE0A988B1FB82
:102B5000F9F309FB131007EB4003491C908889B275
:102B6000A3F82003A980C82919D317E00010024058
:102B70000004004000000020280200200000014066
:102B80008204002080F52000CDCC4C3D3333733FD0
:102B900012060020A2070020D4010020AE8069891F
:102BA000884200D96881BDE8F05F00220121014818
:102BB000FEF747BE001002407047704770B50268CC
:102BC00004461068D168536910F00F0F52D003F01B
:102BD000010501F490762E435FD0C20705D0CA05E7
:102BE00003D5E26B42F00102E263420705D5DA0742
:102BF00003D0E26B42F00202E263820705D5DA07F6
:102C000003D0E26B42F00402E263020707D501F051
:102C100020022A4303D0E26B42F00802E263E26B37
:102C2000002A33D0800604D5880602D5204601F05C
:102C3000C1F820684069E16BC0F38010090700D437
:102C400028B3204601F0A8F82068416949061AD542
:102C5000416921F040014161606BA0B11B490165F0
:102C6000606BFEF776FB002810D0606B016DBDE84D
:102C700070400847830610D58B060ED52046BDE868
:102C8000704001F097B82046FFF797FF70BD2046CF
:102C9000FFF793FF0020E06370BD030606D50B0627
:102CA00004D52046BDE8704001F064B94006F3D574
:102CB0004806F1D5D168204621F04001D16020219D
:102CC00084F8391000F0E4F870BD0000893D000878
:102CD00070B5040004D094F83900002510B106E066
:102CE000012070BD84F83850204600F023F82420DD
:102CF00084F839002068C16821F40051C160204681
:102D000001F0A4F82068016921F490410161206874
:102D1000416921F02A0141612068C16841F40051F4
:102D2000C160E563202084F8390084F83A0000206F
:102D300070BD000070B586B0064614216846FDF7E8
:102D400077FA1F493068884237D11E48002501684C
:102D500041F010010160006800F010000590194872
:102D60001438016841F0020101600068694600F012
:102D700002000590C02000900220CDE9010503204B
:102D80000390072004901048FEF77AFC104C0F487F
:102D900020604FF00060C4E901054014C4E903500D
:102DA0006561A561E561256220466562FEF7B4FBB9
:102DB00008B1FDF70EFF7463A66306B070BD000096
:102DC00000100140443802400004024040640240C8
:102DD000E803002070472DE9F843044690F83900D5
:102DE0001F4616460D46202850D1B5B1AEB194F815
:102DF000380001284AD0012084F838004FF000083C
:102E0000C4F83C80212084F83900FEF71FFDA68419
:102E10008146E68484F8388026E00120BDE8F88306
:102E2000E08C401EE084A0684B46B0F5805F4FF018
:102E300000024FF080012046009703D001F0CBF84C
:102E4000E8B90DE001F0C7F8C8B928882168C0F3D7
:102E500008004860206908B16D1C05E0AD1C03E066
:102E6000216815F8010B4860E08C0028D8D14B464A
:102E7000002240212046009701F0ADF808B1032060
:102E8000CCE7202084F839000020C7E70220C5E7FE
:102E90007047000070B5124C0021E16001281DD17F
:102EA000104D81022846FEF7C7FC18B1E06840F0DB
:102EB0000100E0604FF400612846FEF7BDFC18B148
:102EC000E06840F00200E0604FF480512846FEF7D1
:102ED000B3FC18B1E06840F00400E060E06870BD49
:102EE00000000020001C0240FEE7000010B53C215D
:102EF0000648FFF789FA05480168CA6842F00102EE
:102F0000CA6000686FF00101016110BD2802002055
:102F100003480068406A0349896800EB0140704734
:102F2000280200200000002070B50D4C0020A06396
:102F3000E0630C4D024661142846FEF782FC002235
:102F40004FF400412846FEF77CFC0748408B606345
:102F50002846BDE8704001229103FEF772BC0000D4
:102F600000000140000402401C00002070B50D4C20
:102F70000020A063E0630C4D024661142846FEF772
:102F800060FC00224FF480412846FEF75AFC0748B7
:102F9000408B60632846BDE870400122D103FEF7F4
:102FA00050BC000000000140000402401C00002052
:102FB00070B50D4C00206063E0630C4D02464FF489
:102FC00080412846FEF73DFC00224FF40041284690
:102FD000FEF737FC0648408BA0632846BDE87040EA
:102FE00001225103FEF72DBC000001400004024005
:102FF0001C00002070B50D4C00206063E0630C4D98
:10300000024661142846FEF71CFC00224FF4804162
:103010002846FEF716FC0748408BA0632846BDE80B
:1030200070400122D103FEF70CBC000000000140FB
:10303000000402401C00002070B50D4C0020A0636D
:1030400060630C4D02464FF480412846FEF7F9FBC1
:1030500000224FF400412846FEF7F3FB0648408B60
:10306000E0632846BDE8704001225103FEF7E9BB4A
:1030700000000140000402401C00002070B50D4C0F
:103080000020A06360630C4D024661142846FEF7E1
:10309000D8FB00224FF400412846FEF7D2FB074838
:1030A000408BE0632846BDE8704001229103FEF7A3
:1030B000C8BB000000000140000402401C000020CA
:1030C0007FB500242B48009401940294284903946E
:1030D000016001254FF480310561C0E901140576D6
:1030E00080F820402449C0E90A140526C661C4605E
:1030F00080F830504461FDF7F3FE08B1FDF769FD3B
:103100000820CDE90005022569461A480295FDF719
:1031100063FD08B1FDF75DFD0620CDE900056946B8
:103120001448FDF759FD08B1FDF753FD032500953F
:10313000694610480195FDF74FFD08B1FDF749FDBF
:10314000092000900420CDE9010569460948FDF7F2
:1031500043FD08B1FDF73DFDCDE900466946054850
:10316000FDF73AFD002801D0FDF733FD7FBD0000DB
:1031700000200140840000200100000F7FB50021E5
:1031800020480091019102911D4A0391026001249F
:103190004FF480320461C0E90121047680F82010E8
:1031A000194AC0E90A210325C561C16080F8304091
:1031B0004161FDF795FE08B1FDF70BFD0720CDE954
:1031C0000004029069460F48FDF706FD08B1FDF7BF
:1031D00000FD062000900220019069460948FDF795
:1031E000FBFC08B1FDF7F5FC0520CDE900056946BB
:1031F0000448FDF7F1FC002801D0FDF7EAFC7FBD93
:1032000000220140CC0000200100000F1CB500246A
:10321000104900940E48019408600846FEF711F822
:1032200008B1FDF7D6FC0220CDE900400022694636
:103230000848FDF7B6FF08B1FDF7CBFC1022694640
:103240000448FDF7AEFF002801D0FDF7C2FC1CBD0D
:1032500000740040D4010020114808B5016841F411
:10326000800101600068002200F480000090114697
:103270003820FEF759FB3820FEF748FB00221146A4
:103280003920FEF751FB3920FEF740FB00221146A2
:103290003A20FEF749FBBDE808403A20FEF736BB6E
:1032A000303802402DE9F04F87B014216846FCF712
:1032B000BFFF47480024016841F010010160016828
:1032C00001F010010591016841F0200101600168E1
:1032D00001F020010591016841F080010160016861
:1032E00001F080010591016841F001010160016870
:1032F00001F001010591016841F0020101600168DE
:1033000001F002010591016841F0080101600168C6
:1033100001F008010591016841F0040101600168B4
:1033200001F004010591016841F4807101600068B9
:10333000DFF8A08000F4807040F201470590002281
:1033400039464046FEF77DFADFF88C904FF4604630
:10335000002231464846FEF774FADFF880A00022CA
:1033600031465046FEF76DFADFF874B001220321B2
:103370005846FEF766FA1C2001258DE831006946A3
:103380005846FEF77DF90097CDE90154694640465D
:103390000394FEF775F90096CDE901546946484655
:1033A0000394FEF76DF90096CDE901546946504645
:1033B0000394FEF765F903200090CDE901546946B6
:1033C00058460394FEF75CF907B0BDE8F08F0000A3
:1033D000303802400014024000040240001C024049
:1033E0000010024010B5002211461820FEF79CFA8A
:1033F0001820FEF78BFA002211461920FEF794FAE6
:103400001920FEF783FA002211461A20FEF78CFAE3
:103410001A20FEF77BFA002211461B20FEF784FAE1
:103420001B20FEF773FA002211461E20FEF77CFADD
:103430001E20FEF76BFA002201212520FEF774FA08
:103440002520FEF763FA002211463220FEF76CFABF
:103450003220FEF75BFA002211463620FEF764FAAE
:10346000BDE810403620FEF751BA000010B596B006
:1034700000240F9410941194129413941C21684604
:103480001494FCF7D5FE202107A8FCF7D1FE3148A3
:103490002F49C0E9001442F27441C0E90241802181
:1034A0000461C0E90541FEF7F1FD08B1FDF791FBAC
:1034B0004FF480500F900FA92648FEF7B3FE08B1D5
:1034C000FDF787FB2348FFF732F908B1FDF781FBD1
:1034D0002020CDE9130413A91E48FEF78FFD08B183
:1034E000FDF777FB6020CDE9000404200294CDE9CC
:1034F000034005940022694616480694FFF7AFF88A
:1035000008B1FDF766FB042269461248FFF7A7F8E9
:1035100008B1FDF75EFB082269460E48FFF79FF8E9
:1035200008B1FDF756FB0794089409944FF4005036
:103530000A94CDE90B4007A906480E94FEF7D4FC87
:1035400008B1FDF746FB0348FFF72CF816B010BD95
:1035500000000140E801002010B58CB0242168462D
:10356000FCF766FE00241648099414490A94C0E941
:1035700000144FF6FF71C0E9024104618461032029
:10358000CDE900040120CDE9020407210491CDE931
:103590000540CDE9074169460948FEF7AEFE08B18E
:1035A000FDF717FB099409A905480A94FEF726FDC3
:1035B000002801D0FDF70DFB0CB010BD0004004049
:1035C0002802002010B58AB000241F4804940594F6
:1035D0000694079403940094019402940894194962
:1035E00009940160A721C0E901144FF6FF71C0E9F9
:1035F00003148461FEF74AFD08B1FDF7EAFA4FF4BF
:103600008050049004A91048FEF70CFE08B1FDF7A5
:10361000E0FA0A200094CDE9014069460A48039483
:10362000FEF78CFC08B1FDF7D4FA5020CDE9080470
:1036300008A90548FEF7E2FC002801D0FDF7C9FA09
:103640000AB010BD000800406802002010B58AB022
:1036500000241F480494059406940794039400944E
:10366000019402940894194909940160A721C0E9C2
:1036700001144FF6FF71C0E903148461FEF706FDE3
:1036800008B1FDF7A6FA4FF48050049004A9104841
:10369000FEF7C8FD08B1FDF79CFA0A200094CDE9B9
:1036A000014069460A480394FEF748FC08B1FDF75B
:1036B00090FA5020CDE9080408A90548FEF79EFCC1
:1036C000002801D0FDF785FA0AB010BD000C0040BB
:1036D000A80200201CB500240F4800940D49019455
:1036E00001605321C0E9011440F2E731C16080213B
:1036F0008161FEF7CBFC08B1FDF76BFA00946946D7
:1037000005480194FEF77AFC002801D0FDF761FA24
:103710001CBD000000100040E802002010B596B06B
:1037200000240F9410941194129413941C21684651
:103730001494FCF77DFD202107A8FCF779FD3148A2
:103740002F49C0E9001442F27441C0E902418021CE
:103750000461C0E90541FEF799FC08B1FDF739FAAB
:103760004FF480500F900FA92648FEF75BFD08B17B
:10377000FDF72FFA2348FEF7DAFF08B1FDF729FA23
:10378000139413A91F481494FEF738FC08B1FDF7F1
:1037900020FA6020CDE9000404200294CDE9034022
:1037A00005940022694617480694FEF758FF08B1B1
:1037B000FDF70FFA042269461248FEF750FF08B1E0
:1037C000FDF707FA082269460E48FEF748FF08B1E0
:1037D000FDF7FFF90794089409944FF400500A94F8
:1037E000CDE90B4007A907480E94FEF77DFB08B111
:1037F000FDF7EFF90348FEF7D5FE16B010BD000047
:10380000000401402803002010B58CB00024079468
:10381000089409941C2168460A94FCF709FD1A488B
:10382000184901605321C0E9011440F2CF71C0E989
:1038300003148461FEF72AFC08B1FDF7CAF94FF4BE
:103840008050079007A91048FEF7ECFC08B1FDF77F
:10385000C0F90D48FEF76BFF08B1FDF7BAF960201B
:103860000090C820CDE9010404226946064804946A
:10387000FEF7F5FE08B1FDF7ACF90348FEF792FE3E
:103880000CB010BD00400140680300200C4810B58A
:103890000A4901604FF4E1314160002181600C224E
:1038A000C160C0E904128161C161FFF711FA00280B
:1038B00003D0BDE81040FDF78CB910BD00100140E9
:1038C000A8030020FEE7FEE7704770470B498A799E
:1038D000012A01D0C0F1070088708878062809D82D
:1038E000887838B188780549383101EB800050F884
:1038F000040C004700200870704700001C000020E6
:10390000FDF7AABF30B593B030216846FCF790FCB4
:1039100014210CA8FCF78CFC1D480025016841F01F
:1039200080510160006800F08050119019480168D2
:1039300041F4804101600068022400F4804011904D
:1039400001200090000401908001CDE90640042090
:103950000890A820CDE9090407200B906846FEF7DF
:10396000FFF808B172B6FEE70CA90F2081E831001C
:103970004FF4A0500F904FF48050109005210CA8E8
:10398000FEF704F8002801D072B6FEE713B030BD90
:1039900040380240007000400548016841F4700161
:1039A000016003494FF000608039086070470000F3
:1039B00088ED00E010B50448FEF741FDBDE8104079
:1039C0000248FEF73CBD0000E8010020680300202B
:1039D0000148FEF734BD0000E80100200148FEF771
:1039E0002EBD0000E80100200148FEF728BD0000C0
:1039F000E80100200148FEF722BD00002802002057
:103A00000148FEF71CBD0000680200200148FEF7D7
:103A100016BD0000A802002010B50448FDF7E3FB26
:103A2000BDE810400248FEF70ABD0000D4010020A6
:103A3000E8020020F0B50268254C264D264E274F9F
:103A4000274B4FF0804CA04209D0604507D0A842D8
:103A500005D0B04203D0B84201D0984204D122F040
:103A6000700E4A6842EA0E02A0421BD0604519D08F
:103A7000A84217D0B04215D0B84213D0984211D006
:103A8000184DA8420ED0184DA8420BD0174DA84291
:103A900008D0174DA84205D0164DA84202D0164DA9
:103AA000A84203D122F44075CA682A434D6922F026
:103AB00080022A4302608A68C2620A688262A04267
:103AC00001D0984201D10969016301214161F0BD32
:103AD000000001400004004000080040000C0040CD
:103AE0000004014000400140004401400048014002
:103AF00000180040001C00400020004010B501F0FC
:103B00001F030121046A99408C430462016A9A40B0
:103B10001143016210BD10B5846842EA032224F407
:103B20007F440A432243826010BD826822F0700203
:103B30000A4342F00701816070470000F0B5026A55
:103B400022F001020262036A42688469124E24F084
:103B500073050C682C4323F002058B682B430D4D35
:103B6000A84201D0B04205D123F00807CB683B43FF
:103B700023F00403A84201D0B04205D14D6922F4DC
:103B8000407215438A692A434260846149684163EF
:103B90000362F0BD0000014000040140F0B5026A7C
:103BA00022F010020262026A436884690D6824F4FC
:103BB000E64444EA05248D6822F0200242EA051218
:103BC0000F4D104EA84201D0B04206D1CF6822F06E
:103BD000800242EA071222F04002A84201D0B0421D
:103BE00007D14D6923F4406343EA85038D6943EAB5
:103BF000850343608461496881630262F0BD00000F
:103C00000000014000040140F0B5026A22F4807215
:103C10000262026A4368C46922F4007224F07305E8
:103C20000C68124E2C438D6842EA05220E4DA842C4
:103C300001D0B04206D1CF6822F4006242EA0722E6
:103C400022F48062A84201D0B04207D14D6923F42A
:103C5000405343EA05138D6943EA05134360C46189
:103C60004968C1630262F0BD0000014000040140E8
:103C700030B5026A22F480520262046A4268C36963
:103C80000D6823F4E64343EA05238D6824F40054C9
:103C900044EA0534084DA84202D0084DA84204D198
:103CA0004D6922F4804242EA85124260C36149684C
:103CB0000164046230BD00000000014000040140C6
:103CC00010B5036A046A24F001040462846924F0D4
:103CD000F00444EA021423F00A020A4384610262F7
:103CE00010BD000070B5046A24F001040462846908
:103CF000056A154EB04214D0B0F1804F11D0134E6A
:103D0000B0420ED0124EB0420BD0124EB04208D08C
:103D1000114EB04205D0114EB04202D0104EB0420A
:103D200003D124F00304144301E044F001041A0712
:103D300024F0F00444EA126225F00A0301F00A01BB
:103D400019438261016270BD00000140000400401F
:103D500000080040000C0040000401400040014009
:103D60000018004010B5036A23F010030362836952
:103D7000046A23F4704343EA023224F0A00343EAC6
:103D800001118261016210BD10B5806B0021C185F7
:103D9000C184FEF712FF10BD0168CA6822F4907258
:103DA000CA6001684A6922F001024A61202180F854
:103DB0003A10704710B590F83A10222901D002202D
:103DC00010BD8168B1F5805F11D0016900290168DB
:103DD0001FD0496801F07F03816A4A1C82620B7020
:103DE000C18D491E0904090CC18518D02BE0026958
:103DF000816A002A0268526805D0D2B20A80816ABC
:103E0000491C8162ECE7C2F308020A80816A891CBE
:103E1000F7E74A68816A4B1C83620A70E0E7016831
:103E2000CA6822F02002CA600168CA6822F480725F
:103E3000CA6001684A6922F001024A61202180F8C3
:103E40003A10FEF7C7FF002010BD00002DE9F04139
:103E5000044600680169E26821F4405111430161A0
:103E60002169A068E2690843616911430843216838
:103E7000CA6849F20C639A430243CA6020684169E8
:103E8000A26921F4407111434161E0691927642559
:103E90003226B0F5004F354A354920684FF000080A
:103EA00006D0884201D0904236D1FDF719FE35E0A8
:103EB000884201D0904202D1FDF712FE01E0FDF7E9
:103EC000FFFD61684A18A0FB070148EB0803FCF7F7
:103ED00077F90146B0FBF5F00201B1FBF5F06FF0A8
:103EE0001803584301EB800006EBC000B0FBF5F06F
:103EF00000F0F80002EB4002B1FBF5F0584301EB93
:103F0000800006EBC000B0FBF5F000F00700216870
:103F100010448860BDE8F081FDF7D2FD61688B0F29
:103F20008A00A0FB0701FCF74BF90146B0FBF5F056
:103F30006FF01802504301EB800006EB0010B0FB5D
:103F4000F5F000F0F002B1FBF5F002EB0012B1FB6E
:103F5000F5F06FF01803584301EB800006EB0010FA
:103F6000B0FBF5F000F00F00D1E7000000140140B5
:103F70000010014090F83910212901D0022070472B
:103F80008168B1F5805F016A0BD04A1C0262026849
:103F900009785160C18C491E0904090CC1840ED0F6
:103FA00017E009880268C1F308015160016900291E
:103FB000016A02D0491C0162ECE7891CFBE7016839
:103FC000CA6822F08002CA600068C16841F04001FE
:103FD000C160002070472DE9F041984617460E4613
:103FE0000446069D1DE0681C1BD02DB1FDF72EFC7C
:103FF000A0EB0800A84214D92068C16821F4D07150
:10400000C1602068416921F001014161202084F8EC
:10401000390084F83A00002084F838000320BDE815
:10402000F0812068006836EA000004D00020B84221
:10403000D9D00020F3E70120F9E700000148FEF79E
:10404000BDBD0000A8030020FEE700000FB4054B33
:1040500010B503A9044A029800F0C2FB10BC5DF839
:1040600014FB0000894F00087C0000200907090E9E
:10407000002804DB00F1E02080F80014704700F015
:104080000F0000F1E02080F8141D704700000000D0
:1040900070B5D94B00242DED020B2DED108BDDE911
:1040A0001010984205DA20F000429A4201D809D156
:1040B00041B19DED100BBDEC108B02B0BDE870401E
:1040C00000F09ABAB0F5801F26DA11430BD0002811
:1040D00013DA012000F0BCFABDEC108B02B0BDE891
:1040E000704000F095BA022000F0B2FA00F06CFACD
:1040F00051EC100B81F000419EE06FF035049FED14
:10410000C00B53EC102B9DED100B51EC100BFCF77A
:10411000F1FACDE91001084604EB2051C0F3130475
:10412000B948A1F2FF31204400F4801080F07F6292
:1041300082F04052224301EB20559FEDB50B1192C6
:1041400053EC102B9DED100B51EC100BFCF71CF9F0
:1041500041EC180BA01CC0F313009FEDAFDB9FEDEB
:10416000B0EBB14E7E4403286CD296ED000B51ECBF
:10417000180B53EC102BFCF799FB1DD1002D01BF40
:1041800096ED000BBDEC108B02B070BD2846FCF71D
:1041900070F941EC180B53EC1D2BFCF7ABFA41EC1A
:1041A000190B53EC1E2B51EC180BFCF7A3FA53EC34
:1041B000192BFCF748F83FE09FED9D0B51EC180BD5
:1041C00053EC102BFCF796FA9FED9B1B53EC112B35
:1041D000FCF7DDF841EC190B53EC182B51EC180BE4
:1041E000FCF788FA53EC192BFCF784FA41EC190B15
:1041F000002D04BF53EC192B51EC180B1AD0284694
:10420000FCF737F941EC1A0B53EC1D2BFCF772FA53
:1042100053EC192BFCF7BBF853EC182BFCF7B4F854
:1042200041EC180B53EC1E2B51EC1A0BFCF762FA05
:1042300053EC182BFCF7A8F8BDEC108B02B041EC46
:10424000100B70BD9FED7E0B51EC180B53EC102B37
:10425000FBF7F9FF41EC100B51EC180B53EC102B52
:10426000FCF798F841EC190B2846FCF702F941ECF1
:104270001B0B53EC192B51EC190BFCF73BFA41ECDF
:104280001A0B714853EC1A2B261851EC1A0BFCF739
:1042900031FA41EC1F0B6D48C4F1510404F5D724E9
:1042A000B0EE4F0AF0EE6F0A0321784400F00FF9E8
:1042B00053EC1F2B51EC100BFCF71CFA41EC1C0BC0
:1042C0006348B0EE4F0AF0EE6F0A0421784400F024
:1042D000FEF853EC1A2B51EC100BFCF70BFA34439D
:1042E00053EC1C2BFBF7AFFF41EC1C0B002C4CDDFF
:1042F0009FED510B51EC180B53EC102BFCF7FAF916
:1043000053EC182BFCF7F6F941EC1A0B55B353ECB0
:104310001D2B51EC1B0BFCF7EDF941EC1D0B53EC85
:104320001C2B51EC1A0BFBF78EFF53EC192BFCF7EF
:10433000E1F953EC1D2BFBF786FF53EC1A2BFCF72E
:1043400026F853EC182BFCF71FF841EC180B53EC34
:104350001E2B51EC1B0BFCF7CDF953EC182BFCF783
:1043600013F869E753EC1C2B51EC1A0BFBF76BFFAE
:1043700053EC192BFCF7BEF953EC1A2BFCF707F89A
:1043800053EC182BFCF703F856E735B353EC1D2B11
:1043900051EC1B0BFCF7AEF941EC1A0B53EC1C2B48
:1043A00051EC180BFBF7F0FF53EC192BFCF7A2F9BB
:1043B00053EC1A2BFBF7E8FF53EC182BFBF7E4FF49
:1043C00041EC180B53EC1E2B51EC1B0BFCF792F934
:1043D00053EC182BFBF7D8FF2EE753EC1C2B51ECBA
:1043E000180BFBF7D1FF53EC192BFCF783F953ECB7
:1043F000182BFBF7CCFF1FE70000F07F0000000048
:104400000000000000005043645F0900000000004D
:10441000000000000000F03F763C7935EF39EA3DBE
:104420000000E0FE422EE63F6010000000000000A9
:10443000555555555555D53F000000000000E03F4B
:10444000000000000000004086EBF9FFE20E0000D3
:10445000D80E000000B52DED048BB0EE409AF0EEC2
:10446000609A83B051EC190BFCF7B6F941EC180BCC
:1044700018EE100A18EE901A8DED008B002818BF68
:104480000120084320F00040C0F17F6000F1E040CF
:10449000C00F14D019EE101A19EE900A8DED009B82
:1044A000002918BF0121084320F00040C0F17F60BF
:1044B00000F1E040C00F04BF012000F0C9F8B0EEE9
:1044C000480A03B0F0EE680ABDEC048B00BD70B57D
:1044D00004462DED028B4D1E00EBC500B0EE408A68
:1044E000F0EE608A90ED000B35F0060017D053EC2B
:1044F000182B51EC100BFCF7FDF841EC100B6D1E66
:1045000004EBC50090ED001B51EC100B53EC112B8C
:10451000FBF799FE41EC100B35F00600E7D1022DB8
:1045200036D0042D1CD0062D1CBFBDEC028B70BDF7
:1045300053EC182B51EC100BFCF7DCF894ED0A1B34
:1045400053EC112BFBF77FFE53EC182BFCF7D2F842
:1045500094ED081B53EC112BFBF775FE41EC100B8F
:1045600053EC182B51EC100BFCF7C4F894ED061B20
:1045700053EC112BFBF767FE53EC182BFCF7BAF842
:1045800094ED040B53EC102BFBF75DFE41EC100B8C
:1045900053EC182B51EC100BFCF7ACF894ED021B0C
:1045A00053EC112BFBF74FFE53EC182BFCF7A2F842
:1045B00094ED001B53EC112BFBF745FEBDEC028B79
:1045C00041EC100B70BD00009FED070B10B553ECD4
:1045D000102B9FED070B51EC100BFBF7DBFE41ECB2
:1045E000100B10BD000000000000000000000000E3
:1045F000000000000000F03F10B553EC102B51EC10
:10460000100BFBF720FE41EC100B10BD000000006A
:104610009FED050B10B553EC102B51EC100BFBF775
:10462000B9FE41EC100B10BD0000000000000000BE
:1046300002E008C8121F08C1002AFAD1704770476B
:10464000002001E001C1121F002AFBD170470000C9
:104650000149086070470000800000202DE9FF5FDD
:1046600082B00021DDE90430020DDDF840B00343E3
:1046700018D044F61050A2F2FF324243151411989C
:1046800001281FD0A5EB0B00401C5FEA000A4FF089
:1046900000064E4FDFF83891B046504615D5CAF1A6
:1046A000000413E0119801244AA3012801D16FEA04
:1046B0000B010298119AC0E90031C0E9024206B02C
:1046C000BDE8F09FCBF10000DFE704460021404A3F
:1046D000491842EB0450CDE9001012E0E00707D082
:1046E00032463B4640464946FCF704F88046894638
:1046F00032463B4610461946FBF7FCFF06460F467E
:104700006410002CEAD1DDE90401DDE90023BAF1EF
:10471000000F06DAFBF7EEFF42464B46FBF7EAFFD7
:1047200005E0FBF737FE42464B46FBF733FE0446F7
:104730000E460022284BFCF7D1F803D84FF0FF308B
:10474000014607E00022254B20463146FBF77BFD62
:10475000FCF793F8102409E0002C0ADB0A2200235E
:10476000FBF72EFD039B30321A55641E50EA0102FE
:10477000F2D1641C039AC4F111031444119A012A62
:1047800003D0012208430DD10AE0084304D00020E1
:104790004FF0110B119072E7A3EB0B056D1E0DE0AE
:1047A0005B4504DD4FF0000205F1010504E003DA8A
:1047B0004FF00002A5F10105002AECD002981199F2
:1047C000C0E90231C0E9004579E70000000014406B
:1047D0000000F03F300000000000F0430000E03F28
:1047E0002DE9FF4F95B09B468946064600250FE20E
:1047F000252877D100242746F84A0121059400E0B6
:10480000044316F8013F203B01FA03F01042F7D1B0
:1048100030782A2811D06FF02F033078A0F13002C1
:10482000092A16D8059A44F0020402EB820203EB2F
:1048300042021044761C0590EFE759F8042B0592CC
:10484000002A03DA504244F40054059044F0020474
:10485000761C30782E2816D116F8010F44F0040487
:104860002A280DD06FF02F023078A0F13003092BE9
:1048700009D807EB870302EB4303C718761CF3E75D
:1048800059F8047B761C30786C280FD006DC4C2855
:1048900017D068280DD06A2814D104E0742810D0ED
:1048A0007A280FD10DE044F400140AE044F4801497
:1048B00001E044F440147278824202D104F580147D
:1048C000761C761C307866280BD013DC582877D0FD
:1048D00009DC002875D04528F6D04628F4D04728B2
:1048E0001AD19DE118E0632835D0642879D0652875
:1048F00012D195E1702873D008DC6728F1D06928BF
:104900006FD06E280DD06F2806D1B5E073282CD05B
:10491000752875D0782874D05A46179990476D1C21
:1049200075E1C4F30250022809D003280DD0D9F84C
:10493000001004280DD00D6009F1040967E1D9F8D1
:104940000010EA17C1E90052F6E7D9F800100D800F
:10495000F2E70D70F0E719F8041B8DF80010002045
:104960008DF80100EA46012003E059F804AB4FF04E
:10497000FF3061074FF0000102D40DE008F10101A2
:104980008846B9420FDA8045F8DB1AF8081000298A
:10499000F4D108E008F1010188468142FADB1AF8F7
:1049A00008100029F6D105985B46A0EB08072146C0
:1049B0003846179A00F094FA284400EB080507E0FF
:1049C0004DE029E10DE01AF8010B5A46179990477E
:1049D000B8F10108F7D25B4621463846179A13E131
:1049E00042E00A220092C4F302524FF0000A022A67
:1049F00008D059F804CB032A4FEAEC710AD00DE035
:104A000029E02AE009F1070121F00702F2E802C1DA
:104A1000914609E00FFA8CFC4FEAEC71042A03D1AD
:104A20004FFA8CFC4FEAEC71002907DA0A460021A4
:104A3000DCF1000C61EB02012D2202E0220504D51D
:104A40002B228DF80420012203E0E20701D020226E
:104A5000F7E7904659E00A2102E010220DE010210C
:104A60004FF0000A00910BE010224FF0000A44F0D2
:104A700004040827009203E008224FF0000A009285
:104A8000C4F30252022A05D059F804CB0021032AAC
:104A900008D009E009F1070121F00702F2E802C19C
:104AA000914605E01FFA8CFC042A01D10CF0FF0CA2
:104AB0004FF00008220728D5702806D0009B83F00D
:104AC000100353EA0A0305D00EE040228DF80420BB
:104AD000012208E05CEA010206D030228DF80420B1
:104AE0008DF8050002229046009B83F0080353EAEC
:104AF0000A030AD15CEA010201D1620705D530221E
:104B00008DF804204FF001087F1E582804D034A0EF
:104B100003900EA802900DE036A0F9E753466046D8
:104B2000009AFBF74DFB84460398825C0298401E76
:104B3000029002705CEA0100F0D1029806A9081AFE
:104B400000F1200A600702D524F4803400E0012738
:104B5000574502DDA7EB0A0000E0002000EB0A0148
:104B6000009005984144401A0590E00306D45B4646
:104B70002146179A059800F0B3F90544002706E08E
:104B800001A85A46C05D179990476D1C7F1C474588
:104B9000F6DBE0030CD55B462146179A059800F03A
:104BA0009FF9054404E030205A46179990476D1C40
:104BB0000099481E00900029F5DC08E0029802994F
:104BC0005A460078491C0291179990476D1CBAF11A
:104BD0000001AAF1010AF1DC65E1000009280100E9
:104BE0003031323334353637383961626364656663
:104BF0000000000030313233343536373839414225
:104C0000434445460000000000F058F90544761C76
:104C1000307800287FF4ECAD19B02846BDE8F08F5D
:104C2000620700D4062709F1070222F0070CFCE80E
:104C30000223E14603F000485FEA080C02D00FF2BD
:104C4000702C0DE05FEA045C02D50FF2682C07E0DF
:104C50005FEAC47C02D00FF2602C01E0AFF2700C6E
:104C60004FF0FF3823F00043CDF850C065280CD03A
:104C700006DC452809D046281DD047283DD13DE017
:104C8000662818D067287ED138E00021112F01DB7B
:104C9000112000E0781CCDE9000106A90EA8FFF75D
:104CA000DDFCDDE90F010E9A03910021009207F16E
:104CB000010A04914DE04FF000400097CDE901104A
:104CC00006A90EA8FFF7CAFCDDE90F0203920E9BAE
:104CD00011990022DDF80CA00093049211B9791CFF
:104CE00000EB010AB7EB0A0004D4C0F1FF3007F172
:104CF000010A0490AAEB0700019044E0012F00DABA
:104D000001270021112F01DD112000E03846CDE9F7
:104D1000000106A90EA8FFF7A1FCDDE90F010E9A1C
:104D20000391002104910092BA4621070CD4039903
:104D3000514500DA8A46BAF1010F05DD009AAAF161
:104D40000101515C302908D0B84202DA10F1040F99
:104D500006DA0121CDE9011015E0AAF10101E9E728
:104D6000002805DC049901440491AAEB000102E04B
:104D7000411C514500DD8A460499401A401C0190AF
:104D80004FF000400290200704D40198504501DB09
:104D9000CDF8048000208DF84F0002980DF14F07E8
:104DA000B0F1004F25D02B200E9002984FF0020852
:104DB00000280CDA404202902D200E9007E00A21D4
:104DC0000298FBF7BCFB3031029007F8011DB8F1E7
:104DD0000001A8F10108F2DC02980028EFD1791E49
:104DE0000E980870307800F0200040F0450007F879
:104DF000020D12A8C01B00F107081498007800B13A
:104E0000012000EB0A01019801EBE0710598414493
:104E1000401A401E0590E00306D45B462146179ACF
:104E2000059800F05DF805441498007818B15A46CA
:104E3000179990476D1CE00324D55B462146179ACD
:104E4000059800F04DF805441CE00498002807DBA5
:104E5000DDE90301884203DD0098405C179901E019
:104E6000179930205A469047049805F10105401CD7
:104E700004900198401E019004D12E205A461799A3
:104E800090476D1CBAF10001AAF1010ADDDC05E0D2
:104E900017F8010B5A46179990476D1CB8F100019D
:104EA000A8F10108F4DC5B462146179A0598ABE6A9
:104EB0002D0000002B000000200000002DE9F04133
:104EC000044600251E461746880404D405E03946EA
:104ED0002020B0476D1C641EF9D52846BDE8F0813E
:104EE0002DE9F041044600251E469046C80301D531
:104EF000302700E02027880404D505E041463846E5
:104F0000B0476D1C641EF9D52846BDE8F08100004D
:104F100070B506462DED028B0D009FED178B4FF0FF
:104F2000000026D000240BE036F814004043FBF7C5
:104F3000A0FA53EC182BFBF786F941EC180B641C14
:104F4000AC42F1DB2846FBF7A5FA41EC100B51EC23
:104F5000180B53EC102BFBF71DFA41EC100BFFF76D
:104F600079FABDEC028B51EC100BBDE87040FBF7F9
:104F70009EBABDEC028B70BD000000000000000076
:104F8000D821FBF755B9000013B54FF6FF73012286
:104F900069460248FDF71FFF00981CBDA8030020CA
:104FA00000EE100A9FED1B1A10B5F8EE400A9FEDB7
:104FB000180A60EE800A60EE811ADFED170A81EEB2
:104FC000A01AC0EE011A9FED151A71EEE00A80EEEC
:104FD000810A10EE100AFBF783FA41EC100BFFF781
:104FE00057F851EC100BFBF78EFA00EE100A9FED0C
:104FF0000C1AC0EE010A9FED0B0AB7EE001A30EE54
:10500000800AC1EE000A9FED080A30EEC00A10BD0A
:10501000333353400000803900E0924500401C4685
:10502000004053450FCF5B3B3393884310B514A02A
:10503000FFF70CF81648FDF7E3F815480068C1685B
:1050400041F00101C160FDF751FF052211491248ED
:10505000FCF70EF8032211491148FCF709F8114832
:10506000FFF78EFF00211048FCF73DF910210E4894
:10507000FCF739F9BDE810404FF4FA60FCF7EEBADE
:105080007379732072756E2E2E2E0D0A00000000AB
:10509000E801002078040020840000201600002091
:1050A000CC00002050960020D40100207CB5322096
:1050B000FCF7D4FA124C2089FFF772FF10EE100AA9
:1050C000FBF70EFA0546E088DFED0E0A00EE100A47
:1050D0000E46B8EE400A20EE200A10EE100AFBF74A
:1050E000FFF941EC100BCDE9005653EC102B06A054
:1050F000FEF7ACFFBDE87C4008A0FEF7A7BF0000AC
:10510000780400200000A53C766F6C3A252E3166AD
:105110002074656D703A252E316600000D0A00007E
:10512000FCF7A2FBFEF7EEFBFEF7BCF8FEF794F8E7
:10513000FEF7ACFBFEF79AF9FEF744FAFEF7CAFA5F
:10514000FEF784FAFEF7EAFAFEF706FAFDF7B8FF73
:10515000FEF714F8FEF75AF8FEF756FBFEF742F991
:10516000FFF764FFFFF7A2FFFCE70006101600063A
:1051700010160000000000000000010203040607F2
:105180000809000000000102030400000000000004
:1051900004FA97999999D93FAF788E1DC571CC3F84
:1051A0009FC678D0099AC33F935555555555E53F4D
:1051B000599322942449D23FDE03CB966446C73FDD
:1051C00044523EDF12F1C23F000000000000000028
:1051D000F051000800000020840000003046000864
:1051E0007452000884000020D4B600004046000835
:1051F00000FF0000000000000000000000000000B0
:10520000000000000000000000000000000000019D
:10521000000000000000000000000000000000008E
:10522000000000000000000000000000000000007E
:10523000000000000000000000000000000000006E
:10524000000000006D2F0008B12F0008F52F0008A6
:105250007D300008292F00083930000801000000C7
:1052600010000000000000000024F4000000000016
:04527000000000003A
:040000050800018965
:00000001FF
