:020000040800F2
:10000000781200209D01000817230008811B0008BA
:1000100015230008AD0300083D2B00080000000078
:100020000000000000000000000000001B2300088A
:1000300039040008000000001923000821240008EA
:10004000B7010008B7010008B7010008B7010008B0
:10005000B7010008B7010008B7010008B7010008A0
:10006000B7010008B7010008B7010008B701000890
:10007000B7010008B7010008B7010008B701000880
:10008000B7010008B7010008B7010008B701000870
:10009000B7010008B7010008B7010008B701000860
:1000A000D5240008F9240008ED240008E124000804
:1000B000B7010008B701000805250008B7010008CE
:1000C000B7010008B7010008B7010008B701000830
:1000D000B7010008312B0008B7010008B70100087C
:1000E000B7010008B7010008B7010008B701000810
:1000F000B7010008B7010008B7010008B701000800
:10010000B7010008B701000811250008B701000871
:10011000B7010008B70100081D250008B701000855
:10012000B7010008B7010008B1030008B7010008D3
:10013000B7010008B7010008B7010008B7010008BF
:10014000B7010008B7010008B7010008B7010008AF
:10015000B7010008B7010008B7010008B70100089F
:10016000B7010008B7010008B7010008B70100088F
:10017000B7010008B7010008B7010008000000003F
:10018000B7010008B7010008DFF80CD000F090F8C4
:1001900000480047652D0008781200200648804777
:1001A00006480047FEE7FEE7FEE7FEE7FEE7FEE75C
:1001B000FEE7FEE7FEE7FEE7B92400088901000834
:1001C0002DE9F05F0546002092469B46884606468C
:1001D000814640241BE0284641464746224600F01F
:1001E00057F853465A46C01A914110D31146184643
:1001F000224600F03EF82D1A67EB01084F462246D2
:100200000120002100F035F817EB00094E41201EB7
:10021000A4F10104DFDC484631462A464346BDE8E6
:10022000F09FD2B201E000F8012B491EFBD27047CB
:100230000022F6E710B513460A4604461946FFF7B2
:10024000F0FF204610BD30B50B46014600202022AD
:10025000012409E021FA02F59D4205D303FA02F5D3
:10026000491B04FA02F52844151EA2F10102F1DC33
:1002700030BD202A04DB203A00FA02F1002070474A
:100280009140C2F1200320FA03F3194390407047D4
:10029000202A04DB203A21FA02F00021704721FADB
:1002A00002F3D040C2F12002914008431946704742
:1002B000064C074D06E0E06840F0010394E80700B3
:1002C00098471034AC42F6D3FFF762FF942E000833
:1002D000B42E00082DE9F05F164601285BD1314CA1
:1002E0004FF00008CDB2E6B320784FF001090028A6
:1002F00053D0A079884239D0E78A02F04FF8A4F8A9
:10030000168084F80080DFF8A0804FF4005A0122A4
:100310005146404600F0D3FA4FF4804B0122594633
:10032000404600F0CCFA0122D103404600F0C7FA63
:10033000C82F02D3B80900F0CFF900225146404639
:1003400000F0BDFA00225946404600F0B8FA0022FB
:100350004FF40041404600F0B2FAC82F06D32620E1
:1003600000E011E0B7FBF0F000F0B6F9A571E6820D
:1003700084F8009001F0ECFF012001F0D7FBBDE80C
:10038000F05FC0B201F0CABF02F008F8A4F816800E
:1003900084F80080A571BDE8F09F84F80090A571F5
:1003A000E682E7E70800002000040240FEE70000C4
:1003B000014800F057B80000180200200168182317
:1003C000CAB2103AB2FBF3F2054B6FF30901032AEC
:1003D0009B5CC36500D9091D816508467047000014
:1003E000742E000810B5014600208B698A6A4FF010
:1003F000C07453B1B3F5005F15D072B1012A0CD0AF
:10040000022A0AD0032A09D104E01AB1012A06D02F
:10041000022A03D1C96AC90100D5012010BDC96AE9
:10042000A142FAD010BD002AF7D0012AF2D0022A48
:10043000F3D0032AF3D010BD704772B6FEE790F8F0
:100440003510022903D08021416501207047052124
:1004500080F835100068016821F00101016000207A
:10046000704700002DE9F84304464FF00009CDF82D
:10047000009063484FF41651A56D0068B0FBF1F78A
:100480002E6894F85C10082000FA01F131420FD078
:1004900021680A6852070BD50A6822F004020A6034
:1004A00094F85C108840A860606D40F001006065C1
:1004B00094F85C104FF0010808FA01F0304208D0BF
:1004C00021684969090604D5A860606D40F0020002
:1004D000606594F85C1004208840304208D02168A0
:1004E0000968890704D5A860606D40F00400606564
:1004F00094F85C1010208840304218D021680968B8
:10050000090714D5A86020680168490304D500686C
:10051000000308D5A16C07E00168C90503D4016890
:1005200021F008010160216C09B12046884794F848
:100530005C1020208840304231D021680968C9060B
:100540002DD5A86094F8350005282068016806D0EC
:10055000490347D5006800031DD4616C1CE021F0FD
:10056000160101602068416921F080014161206C21
:1005700008B9A06C20B12068016821F00801016071
:1005800094F85C103F208840A86084F8349084F888
:100590003580216D1FE0E16B09B120468847606D11
:1005A00000282BD0606DC00714D0052084F83500DA
:1005B0002068016821F0010101600098401C009052
:1005C000B84203D820680068C007F6D184F8349098
:1005D00084F83580E16C002910D001B02046BDE8D8
:1005E000F04308470168C905D5D4016821F010011E
:1005F000016084F8349084F83580CCE7BDE8F88356
:10060000500000202DE9F041044600F05DF9064657
:100610005CB1002584F83450022084F8350020684D
:10062000016821F0010101600DE00120BDE8F081C9
:1006300000F04AF9801B052805D9202060650320B9
:1006400084F83500F2E720680068C007F0D122681E
:10065000116820480140D4E901031843D4E9033666
:100660003343184363691843A3691843E369184384
:10067000236A18430843616A042903D1D4E90B13A0
:1006800019430843106020684069666A20F007013A
:1006900030460E43012704280CD1A06A0643E06AC5
:1006A00040B12046FFF79EFE20B14020606584F8EF
:1006B0003570BAE7206846612046FFF77FFE94F860
:1006C0005C203F2191408160656584F83570002091
:1006D000ACE700003F8010F070B5044600F0F4F87D
:1006E0000546601C02D004480078044400F0ECF891
:1006F000401BA042FAD370BD440000202DE9F84F02
:1007000000224FF0010803254FF00F0E0B6808FA86
:1007100002F42340A3426ED14E68012E05D0022E72
:1007200003D0112E01D0122E12D186684FEA420C4E
:1007300005FA0CF7BE43CF6807FA0CF7374387601A
:100740004668A6430C79C4F30014944034434460D3
:10075000C668570005FA07FC8C6826EA0C06BC4000
:100760003443C4604C68022C01D0122C13D1D4083D
:1007700000EB8404A346D4F8209054074FEAD46ACF
:100780000EFA0AF629EA06090E6906FA0AF646EA98
:100790000906CBF8206006680C7926EA0C0604F0FE
:1007A0000304BC40344304604C68E40065D5364C17
:1007B000266846F480462660246822F0030604F486
:1007C00080440094314C3444A446D4F80848960739
:1007D000370F0EFA07F6B4432D4EB04201D1002672
:1007E00024E02C4EB04201D101261FE02A4EB04237
:1007F00002D102261AE040E0284EB04201D1032681
:1008000014E0274EB04201D104260FE0254EB0423D
:1008100001D105260AE0244EB04201D1062605E0AA
:10082000224EB04201D1072600E00826BE402643F2
:10083000CCF808681E4E34684F689C43FF0300D50F
:100840001C4334601A4C241D26684F689E43BF0326
:1008500000D51E432660164E083634684F689C4308
:10086000FF0200D51C433460114E0C3634684F68CB
:100870009C43BF0200D51C433460521C102AFFF475
:1008800045AFBDE8F88F0000443802400030014019
:10089000000002400004024000080240000C024038
:1008A000001002400014024000180240001C0240E8
:1008B000003C01400069084000D0012070470AB1A7
:1008C000816170470904FBE70148806870470000B8
:1008D000440000200248816802781144816070471A
:1008E000440000200B4810B5016841F4007101601C
:1008F000016841F480610160016841F48071016028
:10090000032000F06FF8002000F006F800F024F853
:10091000002010BD003C024070B50D4D04464FF460
:100920007A712878B1FBF0F00A490968B1FBF0F060
:1009300000F002FB48B9102C07D200222146501EBD
:1009400000F030F800206C6070BD012070BD000028
:1009500044000020500000200A4808B5016841F416
:1009600080410160006800F4804000900548001F4D
:10097000016841F080510160006800F080500090F3
:1009800008BD000044380240002809DB00F01F02C7
:10099000012191404009800000F1E020C0F80011E1
:1009A00070470000F0B40E4B1B680C46C3F30223E3
:1009B000C3F10705042D00D90425191D072901D20B
:1009C000002300E0DB1E012606FA05F1491E214046
:1009D00099409E40761E16403143F0BC02F0C0B8EC
:1009E0000CED00E0064900F0070208684FF6FF032F
:1009F000184040EA0220034A104308607047000094
:100A00000CED00E00000FA052DE9F0470E46050068
:100A100065D0DFF81481D8F80000F7B200F00F00BD
:100A2000B04207D288F80070D8F8000000F00F003C
:100A3000B04254D128683D4C810712D5400703D5F8
:100A4000206840F4E05020602878000703D5206833
:100A500040F4604020602068A96820F0F00008435E
:100A600020602878C0072DD03049686808390128EF
:100A700012D0022813D0032811D009688907002951
:100A80002DDA216821F0030101432160FFF71CFFEB
:100A9000814641F2883A0EE009688903EFE7096868
:100AA0008901ECE7FFF710FFA0EB0901514502D9DE
:100AB0000320BDE8F0872068696800F00C00B0EB07
:100AC000810FEFD1D8F80010404601F00F01B1427C
:100AD00007D90770006800F00F00B04201D0012074
:100AE000E7E72878400705D52068E96820F4E0505A
:100AF000084320602878000706D52068296920F47B
:100B0000604040EAC100206000F038F82168084ADF
:100B1000C1F30311515CC8400649086006480068EB
:100B2000FFF7FAFE0020C4E7003C0240083802400C
:100B30007C2E000850000020480000200448054991
:100B400000680968044AC1F38221515CC8407047BB
:100B500050000020083802408C2E00080448054947
:100B600000680968044AC1F34231515CC8407047CB
:100B700050000020083802408C2E0008154810B59F
:100B8000006810F00C02144813D04110042A0FD052
:100B9000082A0ED10F4C241F2268236802F03F025E
:100BA0005B0207D52068C0F38810A0FB010106E0B6
:100BB000084610BD2168C1F38811A1FB0001002384
:100BC000FFF7FEFA2168C1F30141491C4900B0FB5F
:100BD000F1F010BD083802400024F4002DE9F84F70
:100BE00004006ED02078DFF83C93C007A9F104051B
:100BF0004AD009F104000168C1F38101012908D03C
:100C00000068C0F3810002280AD1D9F80000400230
:100C100006D52868800337D560680028E1D033E026
:100C20006068B0F5803F10D0B0F5A02F286810D0D4
:100C300020F480302860286820F4802028606068D4
:100C4000A8B1FFF741FE06460DE0286840F4803069
:100C5000F4E740F480202860F7E700BFFFF734FE98
:100C6000801B642873D828688003F7D50CE0FFF751
:100C70002BFE064605E000BFFFF726FE801B64281A
:100C8000F0D828688003F7D42078DFF89C828007AA
:100C90004FF0000A3ED5A348001D016811F00C0F6B
:100CA00008D00068C0F3810002280BD1D9F80000F9
:100CB000400207D42868800716D5E068012800D1D3
:100CC00012E02BE1E068B8B10120C8F80000FFF79E
:100CD000FBFD064605E000BFFFF7F6FD801B02287E
:100CE000C0D828688007F7D52868216920F0F80067
:100CF00040EAC10028600DE0C8F800A0FFF7E4FD5D
:100D0000064604E0FFF7E0FD801B02281FD8286894
:100D10008007F7D42078000722D5824E8348616986
:100D2000703671B101210160FFF7CEFD074604E086
:100D3000FFF7CAFDC01B022809D830688007F7D525
:100D40000EE0C0F800A0FFF7BFFD074605E082E017
:100D5000FFF7BAFDC01B02287DD830688007F7D4A2
:100D60002078400768D5DFF8BCB100270BF13C0BB9
:100D7000DBF80000C0000BD4DBF8001041F080511C
:100D8000CBF80010DBF80000012700F08050009045
:100D9000674E3068C00510D4306840F48070306011
:100DA000FFF792FD009005E0FFF78EFD0099401AD5
:100DB000022850D83068C005F6D55A4EA0686C3667
:100DC00001280FD00528306810D020F001003060D5
:100DD000306820F004003060A068B8B1FFF774FDFF
:100DE00000900FE0306840F00100F4E740F00400AC
:100DF0003060F7E7FFF768FD0099411A41F288304B
:100E0000814266D830688007F4D50EE0FFF75CFDBC
:100E1000009007E0FFF758FD0099411A41F2883031
:100E2000814256D830688007F4D42FB1DBF8001027
:100E300021F08051CBF80010A069C8B33949091DD1
:100E40000968C1F3810102294AD00228504607D01F
:100E5000C8F8600000E03CE0FFF736FD04463BE0E8
:100E60004746C8F86000FFF72FFD064605E000BFC3
:100E7000FFF72AFD801B02282BD828688001F7D4B1
:100E8000D4E907010843A16A2A4A490802EB014153
:100E9000626A41EA8211084394F82C1040EA016129
:100EA000C9F8001001203866FFF70EFD044606E081
:100EB00036E000BFFFF708FD001B022809D82868AC
:100EC0008001F7D52CE000BFFFF7FEFC001B0228D5
:100ED00002D90320BDE8F88F28688001F4D41FE010
:100EE0000128F7D0D9F80000E26900F480019142AE
:100EF00014D1226A00F03F0191420FD147F6C07130
:100F0000626A0140914209D1A26A00F440319142E3
:100F100004D1E16A00F07060884201D00120D9E775
:100F20000020D7E70438024000004742800E4742C5
:100F3000007000400000FFFF10B5401EB0F1807F40
:100F400001D3012010BD4FF0E02460610F21601734
:100F500001F006FE0020A06107202061002010BDE6
:100F60007047704710B590F83C20012A22D001222A
:100F700080F83C20CA688C6822F4407222434C6896
:100F800022F4806222430C6822F4006222430C693E
:100F900022F4805222434C6922F400522243C96950
:100FA000002322F480420A4301684A6480F83C30FE
:100FB000002010BD022010BD70B588B00E460400A0
:100FC00004D094F83D00002518B107E0012008B0D6
:100FD00070BD84F83C50204600F04CF8022084F8A4
:100FE0003D00211D206801F09FFAB368316803229B
:100FF000206801F0F1FB2068816921F00C0181611A
:10100000206881697268114381612068416841F0FC
:10101000800141602068816821F070018160206852
:10102000816841F0400181602068816821F00701FA
:1010300081602068816841F004018160702005951D
:1010400004950695039502950090F0680190694615
:10105000206801F01DFB2068416821F070014160AB
:101060002068416841F050014160012084F83D0052
:101070000020ACE77047000070B590F83C20012AD2
:1010800032D0012480F83C40022280F83D200368E1
:101090005A689D6822F070060A6832435A60134B02
:1010A00002689A4214D0B2F1804F11D0104B9A428C
:1010B0000ED0104B9A420BD00F4B9A4208D00F4BD8
:1010C0009A4205D00E4B9A4202D00E4B9A4204D15E
:1010D000496825F080031943916080F83D40002164
:1010E00080F83C10084670BD022070BD0000014031
:1010F0000004004000080040000C004000040140D3
:10110000004001400018004010B5040003D094F8DE
:101110003D0010B107E0012010BD002084F83C0024
:10112000204600F00DF8022084F83D00211D2068C3
:1011300001F0FAF9012084F83D00002010BD000004
:1011400070B586B0044614216846FFF771F83B4835
:10115000236800243A4A834207D1106840F0010016
:101160001060106800F001005BE035483449354EEE
:10117000001F14390225B34229D1026842F004024B
:101180000260006800F004000590086840F0080064
:101190000860086800F008000590086840F0020048
:1011A00008600868694600F0020005904FF440505E
:1011B0000090CDE901542448CDE90345FFF79EFA9C
:1011C000E8010090CDE901546946204819E0204E1D
:1011D000B3421CD1026842F008020260006800F0CD
:1011E00008000590086840F08000086008686946BB
:1011F00000F0800005904FF4E0500090CDE90154DC
:101200001448CDE90345FFF779FA06B070BD1249DD
:101210008B4208D1016841F010010160006800F0C4
:1012200010000590F1E70D488342EED1106840F0C0
:1012300002001060106800F00200F2E700000140B8
:101240004438024000080040000C02400004024004
:10125000000C0040001C024000100040000401404F
:10126000022180F83D1001688A6802F00702062A10
:1012700003D00A6842F001020A60012180F83D10A3
:101280000020704770B5044690F83C00012817D044
:10129000012584F83C50022084F83D0020688268D3
:1012A00022F0770222F47F4282600868502830D012
:1012B0000DDC20284DD005DC98B310283BD148E048
:1012C000022070BD302844D0402834D139E0602855
:1012D00028D0702806D0B0F5805F2CD0B0F5005F24
:1012E00029D10AE0CB68D1E90121206801F08DF90C
:1012F0002068816841F0770109E0CB68D1E90121DC
:10130000206801F082F92068816841F480418160A1
:1013100011E0CA684968206801F04CFA5021206841
:1013200007E016E0CA684968206801F095FA602174
:10133000206801F074F984F83D50002084F83C00E6
:1013400070BDCA684968206801F034FA40212068FD
:10135000EFE7226801461046EBE72DE9F0410D4624
:10136000040003D094F83D0018B108E00120BDE866
:10137000F081002084F83C00204600F03BF8022079
:1013800084F83D002068816844F20702914381603F
:10139000211D206801F0C8F8226890689169166ADA
:1013A0002B68AF69034340F20330814341EA0721D0
:1013B000A868EF6908434FF6FC418843E96840EAB2
:1013C0000720014328692F6A000140EA07300843DB
:1013D00069686D6926F0AA0646EA051529439360F7
:1013E0002268906120680162012084F83D0000209D
:1013F000BDE7000010B586B0044614216846FEF72C
:1014000017FF1249206888421ED111480021026846
:1014100042F002020260006800F0020005900C48F1
:101420001038026842F004020260006800F0040014
:101430000590C02000900220CDE90101CDE9031004
:1014400069460448FFF75AF906B010BD0004004091
:101450004038024000080240704770B504460068FA
:1014600001694FF00005C943890715D4C168C94314
:10147000890711D4E91E0161012020772068806965
:101480008007204602D0FFF7E7FF04E000F0DCF819
:10149000204600F05EF9257720680169C9434907B5
:1014A00017D4C168C943490713D46FF0040101611F
:1014B000022020772068806910F4407F204602D007
:1014C000FFF7CAFF04E000F0BFF8204600F041F942
:1014D000257720680169C943090716D4C168C94343
:1014E000090712D46FF008010161042020772068F9
:1014F000C0698007204602D0FFF7AEFF04E000F08D
:10150000A3F8204600F025F9257720680169C94332
:10151000C90617D4C168C943C90613D46FF01001B6
:101520000161082020772068C06910F4407F2046C0
:1015300002D0FFF791FF04E000F086F8204600F0AB
:1015400008F9257720680169C943C90708D1C1682E
:10155000C943C90704D1891E0161204600F01CF966
:1015600020680169C943090609D4C168C94309064D
:1015700005D46FF0800101612046FFF7F1FC20687F
:101580000169C943490609D4C168C943490605D45C
:101590006FF040010161204600F05AF920680169AE
:1015A000C94389060BD4C168C943890607D46FF0C3
:1015B000200101612046BDE87040FFF7D2BC70BD3C
:1015C00010B586B0044614216846FEF731FE236844
:1015D000184C002118480222A34212D1036843F09C
:1015E00001030360006800F0010005904FF4E06023
:1015F0000090CDE901210120CDE9031069460F4893
:1016000013E00F4CA34212D1036843F480730360CC
:10161000006800F480700590E0200090CDE9012181
:101620000320CDE9031069460648FFF767F806B0C6
:1016300010BD0000000001403038024000000240B0
:101640000004014000200240704770B5044690F845
:101650003C000D4601280DD0012684F83C60022094
:1016600084F83D0042B1042A18D0082A2AD00C2A56
:101670004DD139E0022070BD206800F0D9FF20680C
:10168000816941F0080181612068816921F00401CC
:101690008161206881692A69114311E0206800F0A6
:1016A000F7FF2068816941F40061816120688169E8
:1016B00021F480618161206881692A6941EA0221FF
:1016C000816124E0206801F019F82068C16941F0C7
:1016D0000801C1612068C16921F00401C16120686D
:1016E000C1692A69114311E0206801F03BF82068C4
:1016F000C16941F40061C1612068C16921F4806160
:10170000C1612068C1692A6941EA0221C16184F886
:101710003D60002084F83C0070BD10B5040003D08B
:1017200094F83D0010B107E0012010BD002084F8BE
:101730003C00204600F00CF8022084F83D00211DFA
:10174000206800F0F1FE012084F83D00002010BD6B
:101750007047704710B504460068012200F048FF4A
:101760000B492068884202D00A49884203D1416C63
:1017700041F4004141642068816801F007010629B5
:1017800003D0016841F001010160002010BD00009C
:1017900000000140000401402DE9F04124490068A7
:1017A000096888423BD1234D002605F1080468787A
:1017B000401CC0B2687064280AD1A068E168401A71
:1017C0002061A068E0606E7021691BA001F0B8F98B
:1017D0002078012823D100F0A9F9C7B22878B842AF
:1017E00003D0384600F09AFD2F706079A1788842C6
:1017F00017D0A6610F48083001F07CFA012802D00A
:10180000022803D005E0A068401E01E0A068401C4B
:10181000A060A1680BA001F093F9A0786071BDE809
:10182000F08120780128FAD1A069401CA061F6E778
:10183000580000200000002073706565643A25643C
:101840000D0A0000706F733A25640D0A0000000055
:101850007047704770B5026804461068D1685369D4
:1018600010F00F0F52D003F0010501F490762E43D3
:101870005FD0C20705D0CA0503D5E26B42F0010272
:10188000E263420705D5DA0703D0E26B42F00202B9
:10189000E263820705D5DA0703D0E26B42F0040267
:1018A000E263020707D501F020022A4303D0E26B6E
:1018B00042F00802E263E26B002A33D0800604D5CE
:1018C000880602D5204600F0EFFF20684069E16BF2
:1018D000C0F38010090700D428B3204600F0D6FFDB
:1018E0002068416949061AD5416921F040014161EA
:1018F000606BA0B11B490165606BFEF7A0FD00287D
:1019000010D0606B016DBDE870400847830610D5AC
:101910008B060ED52046BDE8704000F0C5BF2046BE
:10192000FFF797FF70BD2046FFF793FF0020E063AD
:1019300070BD030606D50B0604D52046BDE87040F1
:1019400001F092B84006F3D54806F1D5D16820469B
:1019500021F04001D160202184F8391000F0E4F832
:1019600070BD00007D28000870B5040004D094F814
:101970003900002510B106E0012070BD84F8385010
:10198000204600F023F8242084F839002068C1683C
:1019900021F40051C160204600F0D2FF20680169A7
:1019A00021F4904101612068416921F02A014161DF
:1019B0002068C16841F40051C160E563202084F8CB
:1019C000390084F83A00002070BD000070B586B080
:1019D000064614216846FEF72BFC1F4930688842F2
:1019E00037D11E480025016841F0100101600068F0
:1019F00000F01000059019481438016841F0020108
:101A000001600068694600F002000590C020009067
:101A10000220CDE90105032003900720049010481F
:101A2000FEF76CFE104C0F4820604FF00060C4E9D8
:101A300001054014C4E903506561A561E5612562B3
:101A400020466562FEF7DEFD08B1FEF7F6FC746322
:101A5000A66306B070BD000000100140443802408B
:101A600000040240406402401802002070472DE943
:101A7000F843044690F839001F4616460D462028C4
:101A800050D1B5B1AEB194F8380001284AD0012048
:101A900084F838004FF00008C4F83C80212084F816
:101AA0003900FEF711FFA6848146E68484F8388069
:101AB00026E00120BDE8F883E08C401EE084A068A9
:101AC0004B46B0F5805F4FF000024FF0800120469A
:101AD000009703D000F0F9FFE8B90DE000F0F5FF42
:101AE000C8B928882168C0F308004860206908B197
:101AF0006D1C05E0AD1C03E0216815F8010B486082
:101B0000E08C0028D8D14B46002240212046009787
:101B100000F0DBFF08B10320CCE7202084F8390077
:101B20000020C7E70220C5E77047000070B5124CDF
:101B30000021616001281DD1104D81022846FEF769
:101B4000B9FE18B1606840F0010060604FF40061B8
:101B50002846FEF7AFFE18B1606840F002006060F2
:101B60004FF480512846FEF7A5FE18B1606840F09A
:101B700004006060606870BD00000020001C02402E
:101B8000FEE7000070B50F4C0020216888632168D3
:101B9000C8630D4D02464FF400512846FEF78FFEF4
:101BA00000224FF400412846FEF789FE0748C08A0C
:101BB000216848632846BDE8704001229103FEF782
:101BC0007EBE0000580000200004024008000020F3
:101BD00070B50F4C0020216888632168C8630D4DE3
:101BE00002464FF400512846FEF769FE00224FF4EA
:101BF00080412846FEF763FE0748C08A2168486393
:101C00002846BDE870400122D103FEF758BE00000F
:101C100058000020000402400800002070B50F4C5E
:101C20000020216848632168C8630D4D02464FF4C7
:101C300080412846FEF743FE00224FF4004128462B
:101C4000FEF73DFE0748C08A216888632846BDE844
:101C5000704001225103FEF732BE00005800002000
:101C6000000402400800002070B50F4C00202168DD
:101C700048632168C8630D4D02464FF40051284661
:101C8000FEF71DFE00224FF480412846FEF717FEA6
:101C90000748C08A216888632846BDE87040012251
:101CA000D103FEF70CBE00005800002000040240E3
:101CB0000800002070B50F4C00202168886321685F
:101CC00048630D4D02464FF480412846FEF7F7FD6C
:101CD00000224FF400412846FEF7F1FD0748C08A74
:101CE0002168C8632846BDE8704001225103FEF711
:101CF000E6BD00005800002000040240080000205B
:101D000070B50F4C002021688863216848630D4D31
:101D100002464FF400512846FEF7D1FD00224FF451
:101D200000412846FEF7CBFD0748C08A2168C863FA
:101D30002846BDE8704001229103FEF7C0BD0000B7
:101D4000580000200004024008000020094808B59F
:101D5000016841F4800101600068002200F4800005
:101D6000009011463A20FEF71DFEBDE808403A20DB
:101D7000FEF70ABE303802402DE9F04F87B014213B
:101D80006846FEF755FA47480024016841F0100103
:101D90000160016801F010010591016841F0200126
:101DA0000160016801F020010591016841F08001A6
:101DB0000160016801F080010591016841F00201B4
:101DC0000160016801F002010591016841F008011C
:101DD0000160016801F008010591016841F004010A
:101DE0000160016801F004010591016841F0010101
:101DF0000160016801F001010591016841F4807101
:101E000001600068DFF8A08000F4807040F20147B4
:101E10000590002239464046FEF751FDDFF88C90D0
:101E20004FF46046002231464846FEF748FDDFF891
:101E300080A0002231465046FEF741FDDFF874B025
:101E4000012203215846FEF73AFD1C2001258DE8AA
:101E5000310069465846FEF751FC0097CDE9015420
:101E6000694640460394FEF749FC0096CDE90154CB
:101E7000694648460394FEF741FC0096CDE90154BB
:101E8000694650460394FEF739FC03200090CDE9E3
:101E90000154694658460394FEF730FC07B0BDE88C
:101EA000F08F00003038024000140240000402406D
:101EB000001C02400010024010B5002211461820FC
:101EC000FEF770FD1820FEF75FFD00221146192075
:101ED000FEF768FD1920FEF757FD002211461A2073
:101EE000FEF760FD1A20FEF74FFD002211461B2071
:101EF000FEF758FD1B20FEF747FD002211461E206D
:101F0000FEF750FD1E20FEF73FFD00220121252097
:101F1000FEF748FD2520FEF737FD0022114632204E
:101F2000FEF740FD3220FEF72FFD0022114636203D
:101F3000FEF738FDBDE810403620FEF725BD000055
:101F400010B596B000240F94109411941294139429
:101F50001C2168461494FEF76BF9202107A8FEF7B0
:101F600067F931482F49C0E9001442F27441C0E9D1
:101F7000024180210461C0E90541FFF7C5F808B1BD
:101F8000FEF75BFA4FF480500F900FA92648FFF739
:101F900079F908B1FEF751FA2348FFF7BEFB08B103
:101FA000FEF74BFA2020CDE9130413A91E48FFF7D2
:101FB00063F808B1FEF741FA6020CDE9000404207F
:101FC0000294CDE903400594002269461648069420
:101FD000FFF73BFB08B1FEF730FA042269461248CE
:101FE000FFF733FB08B1FEF728FA082269460E48CE
:101FF000FFF72BFB08B1FEF720FA07940894099429
:102000004FF400500A94CDE90B4007A906480E94FE
:10201000FEF7A8FF08B1FEF710FA0348FFF7D0FA61
:1020200016B010BD000001405800002010B58CB063
:1020300024216846FEF7FCF8002416480994144948
:102040000A94C0E900144FF6FF71C0E9024104612F
:1020500084610120CDE90004CDE902040721049147
:10206000CDE90540CDE9074169460A48FFF775F912
:1020700008B1FEF7E2F92020CDE9090409A90548D5
:10208000FEF7FAFF002801D0FEF7D7F90CB010BD1B
:10209000000400409800002010B58AB000241F48BA
:1020A0000494059406940794039400940194029474
:1020B0000894194909940160A721C0E901144FF659
:1020C000FF71C0E903148461FFF71EF808B1FEF741
:1020D000B4F94FF48050049004A91048FFF7D2F8E7
:1020E00008B1FEF7AAF90A200094CDE9014069463B
:1020F0000A480394FEF760FF08B1FEF79EF95020EE
:10210000CDE9080408A90548FEF7B6FF002801D06C
:10211000FEF793F90AB010BD00080040D800002077
:1021200010B58AB000241F480494059406940794BF
:10213000039400940194029408941949099401604D
:10214000A721C0E901144FF6FF71C0E903148461AF
:10215000FEF7DAFF08B1FEF770F94FF480500490F3
:1021600004A91048FFF78EF808B1FEF766F90A20B7
:102170000094CDE9014069460A480394FEF71CFF2C
:1021800008B1FEF75AF95020CDE9080408A905481E
:10219000FEF772FF002801D0FEF74FF90AB010BD1C
:1021A000000C0040180100201CB500240F480094CA
:1021B0000D49019401605321C0E9011440F2E73157
:1021C000C16080218161FEF79FFF08B1FEF735F9FC
:1021D0000094694605480194FEF74EFF002801D09F
:1021E000FEF72BF91CBD0000001000405801002034
:1021F00010B596B000240F94109411941294139477
:102200001C2168461494FEF713F8202107A8FEF756
:102210000FF831482F49C0E9001442F27441C0E977
:10222000024180210461C0E90541FEF76DFF08B15C
:10223000FEF703F94FF480500F900FA92648FFF7DF
:1022400021F808B1FEF7F9F82348FFF766FA08B15C
:10225000FEF7F3F8139413A91F481494FEF70CFF2C
:1022600008B1FEF7EAF86020CDE9000404200294EA
:10227000CDE9034005940022694617480694FFF70C
:10228000E4F908B1FEF7D9F8042269461248FFF7CD
:10229000DCF908B1FEF7D1F8082269460E48FFF7CD
:1022A000D4F908B1FEF7C9F80794089409944FF4DB
:1022B00000500A94CDE90B4007A907480E94FEF799
:1022C00051FE08B1FEF7B9F80348FFF779F916B0E7
:1022D00010BD000000040140980100200C4810B51A
:1022E0000A4901604FF4E1314160002181600C2214
:1022F000C160C0E904128161C161FFF735FB0028AC
:1023000003D0BDE81040FEF798B810BD00100140A2
:10231000D8010020FEE7FEE7704770470B498A7935
:10232000012A01D0C0F1070088708878062809D8F2
:10233000887838B188780549243101EB800050F85D
:10234000040C0047002008707047000008000020BF
:1023500010B500210F48FFF7FDF904210D48FFF7E4
:10236000F9F908210B48FFF7F5F90B4C00224FF45F
:1023700000512046FEF7A3FA00224FF48041204688
:10238000FEF79DFA2046BDE8104000224FF40041C0
:10239000FEF795BA58000020000402401D4910B510
:1023A000002048638863C86348621B4C00221146C2
:1023B000206800F01DF900220421206800F018F9BF
:1023C00000220821206800F013F90022114620683D
:1023D00000F00EF900220421206800F009F9002223
:1023E0000821206800F004F90C4C00224FF4005141
:1023F0002046FEF764FA00224FF480412046FEF7A3
:102400005EFA2046BDE8104000224FF40041FEF77E
:1024100056BA0000000001405800002000040240AD
:10242000FEF758BA30B593B030216846FDF700FF8B
:1024300014210CA8FDF7FCFE1D480025016841F0A1
:1024400080510160006800F08050119019480168C7
:1024500041F4804101600068022400F48040119042
:1024600001200090000401908001CDE90640042085
:102470000890A820CDE9090407200B906846FEF7D4
:10248000ADFB08B172B6FEE70CA90F2081E8310060
:102490004FF4A0500F904FF48050109005210CA8DD
:1024A000FEF7B2FA002801D072B6FEE713B030BDD5
:1024B00040380240007000400548016841F4700156
:1024C000016003494FF000608039086070470000E8
:1024D00088ED00E00148FEF7C0BF00005800002072
:1024E0000148FEF7BABF0000580000200148FEF77F
:1024F000B4BF0000580000200148FEF7AEBF000046
:10250000580000200148FEF7A8BF0000D8000020B6
:102510000148FEF7A2BF0000180100200148FEF7A5
:102520009CBF000058010020F0B50268254C264DE4
:10253000264E274F274B4FF0804CA04209D06045D4
:1025400007D0A84205D0B04203D0B84201D098428B
:1025500004D122F0700E4A6842EA0E02A0421BD05B
:10256000604519D0A84217D0B04215D0B84213D058
:10257000984211D0184DA8420ED0184DA8420BD049
:10258000174DA84208D0174DA84205D0164DA842B5
:1025900002D0164DA84203D122F44075CA682A43DE
:1025A0004D6922F080022A4302608A68C2620A688A
:1025B0008262A04201D0984201D1096901630121E0
:1025C0004161F0BD000001400004004000080040EF
:1025D000000C004000040140004001400044014064
:1025E0000048014000180040001C0040002000404E
:1025F00010B501F01F030121046A99408C43046265
:10260000016A9A401143016210BD10B5846842EA24
:10261000032224F47F440A432243826010BD82686F
:1026200022F070020A4342F0070181607047000007
:10263000F0B5026A22F001020262036A426884690C
:10264000124E24F073050C682C4323F002058B68AE
:102650002B430D4DA84201D0B04205D123F008070D
:10266000CB683B4323F00403A84201D0B04205D11C
:102670004D6922F4407215438A692A43426084619D
:10268000496841630362F0BD00000140000401405D
:10269000F0B5026A22F010020262026A436884699D
:1026A0000D6824F4E64444EA05248D6822F02002F3
:1026B00042EA05120F4D104EA84201D0B04206D199
:1026C000CF6822F0800242EA071222F04002A842BC
:1026D00001D0B04207D14D6923F4406343EA85033A
:1026E0008D6943EA850343608461496881630262BE
:1026F000F0BD00000000014000040140F0B5026A96
:1027000022F480720262026A4368C46922F4007291
:1027100024F073050C68124E2C438D6842EA0522A2
:102720000E4DA84201D0B04206D1CF6822F400621B
:1027300042EA072222F48062A84201D0B04207D1C7
:102740004D6923F4405343EA05138D6943EA0513A9
:102750004360C4614968C1630262F0BD000001408A
:102760000004014030B5026A22F480520262046A19
:102770004268C3690D6823F4E64343EA05238D6884
:1027800024F4005444EA0534084DA84202D0084D10
:10279000A84204D14D6922F4804242EA8512426087
:1027A000C36149680164046230BD0000000001405B
:1027B0000004014010B5036A046A24F001040462B5
:1027C000846924F0F00444EA021423F00A020A4364
:1027D0008461026210BD000070B5046A24F0010437
:1027E00004628469056A154EB04214D0B0F1804F7E
:1027F00011D0134EB0420ED0124EB0420BD0124E3A
:10280000B04208D0114EB04205D0114EB04202D0B5
:10281000104EB04203D124F00304144301E044F00D
:1028200001041A0724F0F00444EA126225F00A03B6
:1028300001F00A0119438261016270BD000001408C
:102840000004004000080040000C0040000401406B
:10285000004001400018004010B5036A23F0100347
:1028600003628369046A23F4704343EA023224F06A
:10287000A00343EA01118261016210BD10B5806BB3
:102880000021C185C184FEF7E4FF10BD0168CA685C
:1028900022F49072CA6001684A6922F001024A611A
:1028A000202180F83A10704710B590F83A1022298C
:1028B00001D0022010BD8168B1F5805F11D001699F
:1028C000002901681FD0496801F07F03816A4A1C12
:1028D00082620B70C18D491E0904090CC18518D094
:1028E0002BE00269816A002A0268526805D0D2B2E0
:1028F0000A80816A491C8162ECE7C2F308020A80FF
:10290000816A891CF7E74A68816A4B1C83620A70F6
:10291000E0E70168CA6822F02002CA600168CA685C
:1029200022F48072CA6001684A6922F001024A6199
:10293000202180F83A10FFF799F8002010BD000020
:102940002DE9F041044600680169E26821F4405134
:10295000114301612169A068E2690843616911437B
:1029600008432168CA6849F20C639A430243CA606B
:1029700020684169A26921F4407111434161E06915
:10298000192764253226B0F5004F354A35492068AD
:102990004FF0000806D0884201D0904236D1FEF7B1
:1029A000DDF835E0884201D0904202D1FEF7D6F83A
:1029B00001E0FEF7C3F861684A18A0FB070148EB85
:1029C0000803FDF7FDFB0146B0FBF5F00201B1FB8A
:1029D000F5F06FF01803584301EB800006EBC000E0
:1029E000B0FBF5F000F0F80002EB4002B1FBF5F0AF
:1029F000584301EB800006EBC000B0FBF5F000F09F
:102A00000700216810448860BDE8F081FEF796F861
:102A100061688B0F8A00A0FB0701FDF7D1FB01461F
:102A2000B0FBF5F06FF01802504301EB800006EBAD
:102A30000010B0FBF5F000F0F002B1FBF5F002EB96
:102A40000012B1FBF5F06FF01803584301EB800062
:102A500006EB0010B0FBF5F000F00F00D1E700002E
:102A6000001401400010014090F83910212901D0D4
:102A7000022070478168B1F5805F016A0BD04A1C63
:102A80000262026809785160C18C491E0904090C70
:102A9000C1840ED017E009880268C1F308015160B3
:102AA00001690029016A02D0491C0162ECE7891C16
:102AB000FBE70168CA6822F08002CA600068C1684A
:102AC00041F04001C160002070472DE9F041984677
:102AD00017460E460446069D1DE0681C1BD02DB10E
:102AE000FDF7F2FEA0EB0800A84214D92068C168E7
:102AF00021F4D071C1602068416921F00101416178
:102B0000202084F8390084F83A00002084F8380046
:102B10000320BDE8F0812068006836EA000004D098
:102B20000020B842D9D00020F3E70120F9E70000E7
:102B30000148FEF78FBE0000D8010020FEE700002C
:102B40000FB4054B10B503A9044A029800F028F809
:102B500010BC5DF814FB00004D2D0008540000204F
:102B60000907090E002804DB00F1E02080F80014BA
:102B7000704700F00F0000F1E02080F8141D70474E
:102B800002E008C8121F08C1002AFAD17047704736
:102B9000002001E001C1121F002AFBD17047000094
:102BA0002DE9FF4F89B09B460446002506E0252805
:102BB0000BD05A460B999047641C6D1C2078002856
:102BC000F5D10DB02846BDE8F08F0027B8460122A8
:102BD000474900E0074314F8013F203B02FA03F0A5
:102BE0000842F7D120782E2819D114F8010F47F0A8
:102BF00004072A280ED06FF02F022078A0F13001B0
:102C000009290CD808EB880102EB410100EB01080F
:102C1000641CF2E70A98641C50F8048B0A90207830
:102C20000028CED0642808D0692806D075281ED088
:102C30005A460B9990476D1C58E00A994FF00A09C3
:102C400001C90A91002802DA40422D2102E039052B
:102C500004D52B218DF82010012103E0F90704D0C1
:102C60002021F7E78A4608AE0DE00021FAE70A992D
:102C70004FF00A0901C90A91F7E74946FDF7E3FA5F
:102C8000303106F8011D0028F7D1ADEB060000F148
:102C90002009780701D44FF00108C84502DDA8EBF0
:102CA000090000E000208046002706E008A85A46F8
:102CB000C05D0B9990476D1C7F1C5745F6DB04E007
:102CC00030205A460B9990476D1CB8F10001A8F1CD
:102CD0000108F5DC05E016F8010B5A460B99904700
:102CE0006D1CB9F10001A9F10109F4DC641C65E770
:102CF000092801004279F021062A24D88278062A80
:102D000021D84279807802F00F0262F31F10452823
:102D100016D0512814D0132812D0322810D02628CB
:102D20000ED064280CD062280CD023280AD0312879
:102D300008D0152806D0542804D0462802D002E036
:102D4000012100E0022108467047000013B54FF64C
:102D5000FF73012269460248FEF789FE00981CBDF8
:102D6000D8010020FDF7BEFDFFF75CFBFFF704F87C
:102D7000FEF7ECFFFFF7B2FAFFF7E2F8FFF78CF986
:102D8000FFF712FAFFF7CCF9FFF732FAFFF74EF927
:102D9000FFF792F831A0FFF7D3FE012291023348EA
:102DA000FDF78DFD3248FEF75BFA31480068C168D7
:102DB00041F00101C16001214FF4C8620846FDF7EE
:102DC00089FA4FF496742046FDF786FC4FF4E165CE
:102DD0002A4602210120FDF77DFA2046FDF77CFC02
:102DE000012140F628220846FDF774FA2046FDF737
:102DF00073FC2A4602210120FDF76CFA2046FDF7FC
:102E00006BFC012100220846FDF764FA40F69805A4
:102E10004FF42F644FF448666420FDF75DFC2A46AA
:102E200002210120FDF756FA6420FDF755FC01212F
:102E300022460846FDF74EFA6420FDF74DFC324667
:102E400002210120FDF746FA6420FDF745FC01212F
:102E500022460846FDF73EFADEE70000737973204C
:102E600072756E2E2E2E0D0A000000000014024016
:102E70005800002000061016000610160000000082
:102E8000000000000102030406070809000000001A
:102E900001020304B42E00080000002058000000C6
:102EA000802B00080C2F0008580000202012000082
:102EB000902B0008FF00000000000000000000014F
:102EC0000000000000000000000000000000000002
:102ED00000000000000000000000000000000000F2
:102EE000D11B00081D1C0008691C0008011D0008FA
:102EF000851B0008B51C0008010000001000000040
:0C2F0000000000000024F40000000000AD
:040000050800018965
:00000001FF
