:020000040800F2
:1000000098110020450100084D0100083127000823
:1000100051010008530100085501000800000000CC
:100020000000000000000000000000005701000870
:1000300059010008000000005B0100080D4B00089A
:100040005F0100085F0100085F0100085F01000810
:100050005F0100085F0100085F0100085F01000800
:100060006D0600085F0100085F0100085F010008DD
:100070005F0100085F0100085F0100085F010008E0
:100080005F0100085F010008F50100085F0100083A
:100090005F0100085F0100085F0100085F010008C0
:1000A0007D4B0008A54B00085F0100085F010008B8
:1000B0005F010008BD4B00085F0100085F010008F8
:1000C0005F0100085F0100085F0100085F01000890
:1000D0005F0100085F0100085F010008255D00085E
:1000E0005F0100085F0100085F0100085F01000870
:1000F0005F0100085F0100085F0100085F01000860
:100100005F0100085F0100085F0100085F0100084F
:100110005F0100085F0100085F0100085F0100083F
:100120005F0100085F0100085F0100085F0100082F
:10013000DFF80CD000F020F800480047895E000886
:10014000981100200648804706480047FEE7FEE772
:10015000FEE7FEE7FEE7FEE7FEE7FEE7FEE7FEE777
:10016000354B000831010008421C10F8011B002922
:10017000FBD1801A70470000064C074D06E0E0688E
:1001800040F0010394E8070098471034AC42F6D3DE
:10019000FFF7D2FF548900087489000870B58C18E5
:1001A00010F8015B15F0070301D110F8013B2A118B
:1001B00006D110F8012B03E010F8016B01F8016B78
:1001C0005B1EF9D12B0705D40023521E0DD401F874
:1001D000013BFAE710F8013BCB1A921C03E013F83D
:1001E000015B01F8015B521EF9D5A142D8D3002072
:1001F00070BD0000054810B5016821F00C010160D8
:1002000004F036FEBDE8104005F0BAB90024014004
:1002100070B504460068816811F0010F20D0816834
:1002200021F00101816000F00BFF05462068806825
:1002300010F0010F14D000BF00F002FF401B022895
:1002400009D9A06A40F01000A062E06A40F0010005
:10025000E062012070BD2068806810F0010FEBD1D2
:10026000002070BD10B402460FFA81FC08460CFB5A
:100270000CF40B1403FB0341148864438C4224BF29
:1002800010BC704792F8B240C4EB1161C9B202EBE6
:1002900041018A8810BC0CFB02F14FEAE17C01EBC2
:1002A0005C41C91361F30F0003FB02F1CA1701EBB4
:1002B0005241C91361F31F407047000070B50446F6
:1002C00090F83010124D002205F0CEF900B200F582
:1002D0000041104802686FF30F1211430160686813
:1002E00040F00100686094F831100022204605F0CB
:1002F000BBF900B200F50041074802686FF30F1226
:1003000011430160686840F00200686070BD000041
:10031000007400400C74004018740040084490F8C9
:100320003000704700EB4100B0F932007047000028
:100330000448016841F001010160016841F4803125
:100340000160704700740040084480F83020704716
:1003500000EB41004286704770B504468089012554
:1003600030B1401E0004000CA08118BF002501D050
:10037000284670BDB4F91400217E90FBF1F001B263
:10038000A06800F05DF90120A073F1E7C07B704721
:100390008360C0E9001200218173C1737047807BC4
:1003A0007047C173704710B504460022406811467B
:1003B00005F00DFDB4F91410606805F045FD00214D
:1003C000206804F0E8FA00221146206804F064FA7C
:1003D000E28AB4F91210206804F05EFAE08A218AF9
:1003E00048434FF47A71B0FBF1F0401CA08110BD7E
:1003F000016A496A826E89B25143CA1701EB124100
:100400000914C388C18042784A4312B28280C91A53
:10041000836809B219448160104670472DE9F041A4
:10042000076A002490F875507B6A2246B0F870C0C5
:100430002646A0F870403F68BCF1010F07F0100895
:1004400084BF4FF0010C80F879C0B0F86E70B0F83E
:1004500072C0B8F1100F5ED09C4594BF4FF00008F9
:100460004FF00108A3EB0C0C08FB07CC90F8787058
:1004700000EB8707C7F828C0002D08D900EB820CD5
:10048000521CDCF828C0D2B264449542F6D8426AC5
:1004900002FB04FCB0F86E2090F8754062439CFBB0
:1004A000F2F20A80B0F80CC0A2EB0C0CA0F812C05B
:1004B000828190F87820B0F86CC000EB8202926ADA
:1004C00002FB0CF290F801C002FB0CF2B0F86EC017
:1004D00092FBFCF2D0F81CC00CFB02F2B0F81AC080
:1004E00092FBFCF2C281A0F8723090F87820521C86
:1004F00080F8782090F8782090F875309A4208BFFC
:1005000080F8786090F87920B2B180F87660C2788F
:100510000021027013E09C4534BF4FF001084FF0FA
:100520000008A3EB0C0C08FB17CC90F8787000EBDC
:100530008707C7F828C09FE704F048F90146084636
:10054000BDE8F08190F875200021002A88BF0022C4
:1005500009D900BF00EB8103491C9A6290F87530FD
:10056000C9B28B42F6D8012180F876107047B0F8F6
:100570007010491CA0F87010002070472DE9F001A0
:10058000016A00224A62B0F86E204FF0FF33B3FBDD
:10059000F2F28266B0F86C20DFF8A0C002EB8202B3
:1005A0005200426290F8772001F1180516059CF878
:1005B000002053191F680CF10702F02492F8008004
:1005C00004FA08F827EA080792F80080360C06FAC1
:1005D00008F63E431E6090F877301E059CF8023006
:1005E0002B44D3F800C09578AC402CEA040C340CB2
:1005F000EAB204FA02F24CEA02021A606FF0010257
:100600000A61CA6842F00102CA600A6842F0010247
:100610000A6090F875200021002A8EBF0023BDE8F3
:10062000F001704700EB810C491CC9B2CCF82830AE
:100630008A42F7D8BDE8F00170470000D88800086A
:10064000026AC18043784B4383804FF6FF730029D1
:10065000B8BF494289B2B8BF591AB0F86E004843D2
:10066000B0FBF3F080B250627047000004480168AC
:1006700011F0040F08BF70470421016005F0D4B9E0
:100680001404014072B6FEE7002190B1437801786E
:1006900000221944002B09D900EB020C521C9CF8D3
:1006A00002C0D2B2614489B29342F5D801EB112065
:1006B000C1B208467047002141820175417580F83A
:1006C000961080F8971080F8981080F8991080F8AC
:1006D0009A1080F81B1180F81C1180F81D117047CA
:1006E000DDF800C0002818BF80E80E107047000039
:1006F00000EB400101EB001210B5084901EB420488
:1007000094F82410002918BF10BD054951F82000A5
:1007100004F08CF8E083208210BD0000040C00205F
:10072000E005002010B5044600EB440000EB041285
:100730001248002100EB4202114811605160D16063
:100740001161D183C2F81610C2F81A10118450F842
:10075000240003F07EF90B48002150F8240003F038
:1007600078F9094850F8240004F08EF8074850F84A
:100770002400BDE8104003F0F9BA0000040C00208A
:10078000E8050020EC050020E0050020FC05002025
:100790007047000070B483B00022029290F82430B9
:1007A0001446012B01BF022003B070BC7047012327
:1007B00080F824308368FBB1D1F804C00B691F2591
:1007C0009C452DD81E05A3EB0C03C3F10303D1F800
:1007D00000C003EB83030CFA03FC05FA03F343F4B4
:1007E00040150368A6F5801646EA0C0C9E6B26EAB7
:1007F00005054CEA050C21E04B68012B05D0826A07
:1008000042F02002826201221AE00368D3F838C065
:100810000D686FF3150C4CEAC53CC3F838C00FE007
:10082000A3EB0C03C3F1030303EB830305FA03F308
:1008300043F4401C03689D6B25EA0C0CC3F838C0D8
:100840000368D3F808C01CF0010F03D04B7D012BC7
:1008500016D01EE0D3F808C02CF00105A3F1804C9F
:10086000BCF59E3CD1F818C025F4E04504BFBCF5AA
:10087000C04F4FF4804C45EA0C0CC3F808C0E5E7C4
:100880008B69B3F5E04F08D0826A42F020028262A1
:1008900001220B7D012B08D00EE00368D3F804C0C1
:1008A0004CF4806CC3F804C0F3E74B7DCBB1826A93
:1008B00042F02002826201220B6805684FF0070CAB
:1008C0000A2B16D3EE680A3B03EB43030CFA03FC36
:1008D00026EA0C0C8E6806FA03F34CEA0303EB607D
:1008E00014E00368D3F804C04CF4805CC3F804C07F
:1008F000E2E72E6903EB43030CFA03FC26EA0C0C37
:100900008E6806FA03F34CEA03032B610B68102B85
:1009100018BF112B06D10368D3F808C04CF4000CA3
:10092000C3F808C04B68012B13D0022B1CD0032B3B
:10093000036824D0D3F820C0CD686FF30B0C4CEAC9
:10094000050CC3F820C00B68102B18BF112B20D04A
:100950002AE00368D3F814C0CD686FF30B0C4CEA9F
:10096000050CC3F814C0EEE70368D3F818C0CD68CF
:100970006FF30B0C4CEA050CC3F818C0E3E7D3F88F
:100980001CC0CD686FF30B0C4CEA050CC3F81CC0FF
:10099000D9E70368A3F1804CBCF5923C0AD0816A88
:1009A00041F020018162012280F8244003B010460A
:1009B00070BC7047D3F808C01CF4000FF4D1D3F812
:1009C00008C04CF4000CC3F808C009681029EBD12A
:1009D0001749184B0968B1FBF3F101EB810149009C
:1009E00002910091E0D0B1F1004F1BD20029D8BF95
:1009F000002105DD11F0010102D0029B5B1E029374
:100A0000009B491C5B1C9942CEDA00BFDDF808C090
:100A1000891CACF1010CACF1010CCDF808C0994275
:100A2000F4DBC1E70299491E0291FCD1BCE700004A
:100A30003406002040420F002DE9F04104004FF041
:100A4000000604BF0120BDE8F081A06A002528B996
:100A5000E56284F82450204600F090F82046FFF725
:100A6000D7FB0146A06A10F0100F08BF002904D080
:100A7000A06A40F01000A06276E0A06A20F48850DE
:100A800040F00200A0622268A2F18040B0F59E30E2
:100A9000E06904BFB0F5402F4FF4002094F80CC07B
:100AA00040EA4C03606843EA0003A068B0F5807F29
:100AB00016BF01284FF480700020277D012F0ED132
:100AC000BCF1000F21D0D4F828C04CF0200CC4F8A1
:100AD00028C0D4F82CC04CF0010CC4F82CC0D2F8BB
:100AE00004C02CF4694C4CEA000050602068826815
:100AF000DFF87CC002EA0C021A438260A068B0F5FD
:100B0000807F18BF01280FD109E01A4FD4F818C010
:100B100007EB4C3C4CEA000040F40060DFE7208A21
:100B20004FEA0050A0F580162068C26A22F47002D5
:100B300042EA0602C262206880680F4A00EA0200A8
:100B4000984207D1E562A06A20F0020040F001005F
:100B5000A0620AE0A06A20F0020040F01000A0624B
:100B6000E06A40F00100E06201210846BDE8F08142
:100B7000FDF7E1FF00E0FFFFFE0E1FFFF0B585B0BF
:100B800000250095019502950395026806463949AE
:100B900002200324384B394FA2F1804CBCF5923C23
:100BA0002CD0A2F1804CBCF5943C1CBF05B0F0BD2C
:100BB0008A6942F480628A618A6902F480620492DE
:100BC0008A6942F004028A618A6902F0040204928E
:100BD0008A6942F008028A618969CDE9000401F05E
:100BE000080104916946184600F022F9009469460C
:100BF0003846019400F01CF905B0F0BD8A6942F452
:100C000000728A618A6902F4007204928A6942F071
:100C100004028A618A6902F0040204928A6942F03D
:100C200008028A618969CDE9000401F00801049194
:100C30006946184600F0FCF800946946384601946D
:100C400000F0F6F80F4C0E48C4E900058015A560C9
:100C5000C4E90350800060612020C4E906052046F5
:100C600000F082F8002818BFFFF70CFD34626662BE
:100C700005B0F0BD0010024000080140000C01402A
:100C800008000240C00B00204379012B04BF022062
:100C9000704730B44FF0010C80F805C00223037197
:100CA00003681C6802F0100240F6FE759540AC43E4
:100CB000D1E90051294391402143196001680C6832
:100CC000C02303FA02F224EA02030B6001680B68F6
:100CD00023EA02020A6080F804C00021417130BC9E
:100CE00008467047002804BF0120704770B50446CD
:100CF0000079002518B96571204600F007F8022038
:100D00002071256101202071002070BD00B585B0E3
:100D1000002100910191029103910068A0F18041AE
:100D2000B1F5E8411CBF05B000BD0D48C16941F0F7
:100D30000051C161C16901F000510491816941F024
:100D4000040181618069694600F00400049030204C
:100D5000009003200190034800F06AF805B000BD40
:100D60000010024000080140002804BF0120704725
:100D70001F4B01681F4A994208D21F4B0B44A2FB2C
:100D800003321209920002641C4A07E01C4B0B4418
:100D9000A2FB03321209920002641A4AC26310B421
:100DA000022280F821200A68D0E9013C43EA0C03C2
:100DB000D0E903C44CEA040C43EA0C03D0F814C095
:100DC0006FF30D1243EA0C03D0F818C043EA0C038A
:100DD000D0F81CC043EA0C031A430A600021816367
:100DE000012280F8212080F8201010BC08467047AE
:100DF00008040240CDCCCCCCF8FFFDBF000002407F
:100E0000F8FBFDBF0004024070B5044600F018F97D
:100E10000546B4F1FF3F02D004480078044400F0D6
:100E20000FF9401BA042FAD370BD00002806002035
:100E300000230A689C46002A08BF70472DE9F84F36
:100E4000784EDFF8DC914FF001080F2706F1040E11
:100E50000A6808FA03F42240A2427CD14D68A5F149
:100E6000805AAAF5881A4D4500F0C98074DC032D1C
:100E700008BF4FF0000C1BD00DDC002D6DD0012DF4
:100E800008BFD1F80CC013D0022D04BFD1F80CC09C
:100E90000CF1080C0CE0112D04BFD1F80CC00CF1C2
:100EA000040C05D0122D04BFD1F80CC00CF10C0CB1
:100EB000B2F5807F34BF0546051D4FEA830428BF85
:100EC000203CD5F800A007FA04FB2AEA0B0A0CFA2A
:100ED00004F44AEA04042C604C6814F0805F74D077
:100EE000514CA56945F00105A561A46904F0010410
:100EF000009423F0030404F1804505F58035D5F80E
:100F000008A04FEA83744FEA147407FA04FB2AEA34
:100F10000B0AA0F1804BBBF5843B2CD0A0F1804B99
:100F2000BBF5863B08BF4FF0010B24D0A0F1804BEE
:100F3000BBF5883B08BF4FF0020B1CD0A0F1804BE3
:100F4000BBF58A3B08BF4FF0030B14D0A0F1804BD8
:100F5000BBF58C3B02E038E03EE050E008BF4FF0CC
:100F6000040B08D0A0F1804BBBF58E3B0CBF4FF0BB
:100F7000050B4FF0060B0BFA04F444EA0A04AC60CC
:100F80004C6814F4803F346814BF144394433460B5
:100F90004C6814F4003FDEF8004014BF144394433F
:100FA000CEF800404C6814F4801F204C256814BF14
:100FB0001543954325604C6814F4001F1C4C2568AC
:100FC00014BF2A4325EA020222600A685B1CDA4049
:100FD0007FF43EAFBDE8F88FBAF5881F0FD007DC6D
:100FE000BAF5803F18BFBAF5801F7FF461AF06E005
:100FF000BAF5001F18BFBAF5041F7FF459AFD1F836
:1010000008C0BCF1000F08BF4FF0040C3FF450AF14
:10101000BCF1010F4FF0080C0CBF0461446147E7BD
:1010200000001110000401400010024008040140BB
:101030000C040140002A08BF090401617047000048
:101040000148806870470000280600200248816837
:10105000027811448160704728060020074810B5C7
:10106000016841F010010160032000F08DF80420B8
:1010700000F006F800F024F8002010BD0020024027
:1010800070B50D4D04464FF47A712878B1FBF0F03D
:101090000A490968B1FBF0F000F0C0FE48B9102C15
:1010A00007D200222146501E00F03CF800206C6060
:1010B00070BD012070BD000028060020340600200D
:1010C0000E4808B5816941F001018161816901F033
:1010D00001010091C16941F08051C161C06900F016
:1010E00080500090042000F04FF80548416821F03E
:1010F000E06141F00071416008BD00000010024055
:10110000000001400028B8BF704700F01F01012215
:1011100002FA01F14009800000F1E020C0F800115E
:1011200070470000174B10B41B68C3F30223C3F1D0
:10113000070CBCF1040F88BF4FF0040C1C1D072CDA
:1011400034BF0023DB1E012404FA0CFCACF1010CBB
:101150000CEA0101994004FA03F35B1E1A401143A3
:1011600000284FEA0111A1BF00F1E02080F800142F
:1011700010BC704700F00F0000F1E02080F8141D53
:1011800010BC70470CED00E0074900F007000A684A
:101190004FF6FF031A4042EA002040F0FD7040F095
:1011A00080600860704700000CED00E001490120FC
:1011B0000862704700000E4210B586B001460FF27B
:1011C000EC0C9CE80D108DE80D103CA03C4C006828
:1011D0000490002004293ED010DC01293FD00229D0
:1011E0001CBF06B010BD00F007FA616806B0C1F37D
:1011F0008131491C4900B0FBF1F010BD08292AD00B
:1012000010291CBF06B010BD6168226812F0807FF3
:1012100004BF06B010BDC1F3834211F4803F1DF836
:10122000020004BF2749484308D0616804AAC1F3FB
:101230004041515C244AB2FBF1F14843616811F42A
:10124000800F1CBF06B010BD4000204906B0A1FBB6
:101250000010400810BD00F0DFF906B010BD216A93
:1012600001F44072B2F5807F06D111F0020F1EBF6B
:101270004FF4004006B010BDB2F5007F07D1626A9E
:1012800012F0020F1EBF49F6404006B010BD4FF4E9
:10129000407232EA01011CBF06B010BD216811F492
:1012A000003F18BF4FF2244006B010BD02030405F2
:1012B000060708090A0B0C0D0E0F101001020000A2
:1012C0000010024000093D0000127A00ABAAAAAA51
:1012D0002DE9F84304460078DFF8148110F0010F7F
:1012E0006AD0D8F81C00002710F0805F0BD1D8F826
:1012F0001C0040F08050C8F81C00D8F81C000127E2
:1013000000F0805000903B4E306810F4807F14D184
:10131000306840F480703060FFF792FE0546306818
:1013200010F4807F09D100BFFFF78AFE401B6428BC
:101330002BD8306810F4807FF6D0D8F8200010F455
:1013400040702AD0A18801F44071814225D0D8F89C
:101350002000012220F44071274802600022026030
:10136000C8F8201011F0010F17D0FFF769FE0546ED
:10137000D8F8200010F0020F08BF41F288360CD1D7
:10138000FFF75EFE401BB04202D90320BDE8F883A0
:10139000D8F8200010F0020FF2D0D8F820006168D1
:1013A00020F440700843C8F820002FB1D8F81C0082
:1013B00020F08050C8F81C00207810F0020F07D0F1
:1013C000D8F80400A16820F440400843C8F804009D
:1013D000207810F0100F07D0D8F80400616920F4CD
:1013E00080000843C8F804000020BDE8F88300002E
:1013F000001002400070004040044242002804BF38
:10140000012070472DE9F043DFF89081054685B053
:10141000D8F800000E4600F00700B0420CD2D8F811
:10142000000020F007003043C8F80000D8F80000A2
:1014300000F00700B04265D12868594C10F0020F47
:1014400014D010F0040F03D0606840F4E0606060D6
:10145000287810F0080F03D0606840F46050606096
:101460006068A96820F0F00008436060287810F0F8
:10147000010F34D06868012821D02168022823D0C8
:1014800011F0020F3ED0616821F003010843606053
:10149000FFF7D6FD07466068696800F00C00B0EB06
:1014A000810F18BF41F2883919D000BFFFF7C8FD7E
:1014B000C01B48450CD905B00320BDE8F083216866
:1014C00011F4003FDFD11DE011F0007FDBD119E006
:1014D0006068696800F00C00B0EB810FE6D1D8F8C5
:1014E000000000F00700B04210D9D8F8000020F04A
:1014F00007003043C8F80000D8F8000000F00700EB
:10150000B04203D005B00120BDE8F083287810F088
:10151000040F05D06068E96820F4E060084360606B
:10152000287810F0080F06D06068296920F4605010
:1015300040EAC10060601B490FC98DE80F001A48DE
:10154000006804906168194801F00C02042A14D064
:10155000082A12D1C1F3834211F4803F1DF8020022
:1015600004BF1349484308D0616804AAC1F340414D
:10157000515C0E4A5043B0FBF1F061680D4AC1F373
:101580000311515CC8400C4908600C480068FFF723
:1015900077FD05B00020BDE8F08300000020024088
:1015A00000100240701600088016000800127A0031
:1015B00000093D00C0880008340600202C060020E9
:1015C00001490120C8647047000042420148006898
:1015D0007047000034060020044805490068496847
:1015E000044AC1F30221515CC84070473406002010
:1015F00000100240D0880008044805490068496886
:10160000044AC1F3C221515CC8407047340600202F
:1016100000100240D088000815A186B00FC98DE8DF
:101620000F0017A0174A006804905168164801F08F
:101630000C03042B04BF06B07047082B1CBF06B078
:101640007047C1F3834311F4803F1DF8030001BFCD
:101650000E49484306B07047516804AAC1F340419F
:10166000515C094A06B05043B0FBF1F070470000EE
:1016700002030405060708090A0B0C0D0E0F1010D3
:10168000010200000010024000127A0000093D0033
:10169000002804BF012070472DE9F84F0446007868
:1016A000E84D10F0010F59D0686800F00C000428D4
:1016B00008D0686800F00C0008280CD1686810F4A5
:1016C000803F08D0286810F4003F47D060680028A9
:1016D00000F0B28142E06068B0F5803F04BF286846
:1016E00040F480300AD010B1B0F5A02F11D0286896
:1016F00020F480302860286820F48020286060680A
:10170000D0B1FFF79DFC0646286810F4003F08D0D2
:1017100024E0286840F480202860286840F4803065
:10172000ECE7FFF78DFC801B642800F23681286807
:1017300010F4003FF5D011E0FFF782FC0646286860
:1017400010F4003F0AD000BFFFF77AFC801B64282A
:1017500000F22381286810F4003FF5D12078BA4EBA
:1017600010F0020F4FF0010B4FF0000845D06868F1
:1017700010F00C0F14D0686800F00C00082804BFAB
:10178000686810F4803F0BD0206918B3C6F800B029
:10179000FFF756FC0746286810F0020F09D011E049
:1017A000286810F0020F1CBF206901280AD000F041
:1017B00043B9FFF745FCC01B02287DD8286810F00C
:1017C000020FF6D02868616920F0F80040EAC100F5
:1017D000286012E0C6F80080FFF732FC0746286850
:1017E00010F0020F09D000BFFFF72AFCC01B02282F
:1017F00062D8286810F0020FF6D1207810F0080F98
:1018000035D09248A169F9B1C0F800B0FFF718FCD3
:101810000746686A10F0020F09D100BFFFF710FCFD
:10182000C01B022848D8686A10F0020FF6D088481A
:1018300001684FF4FA50B1FBF0F0009000BF00983F
:10184000411E0091FAD212E0C0F80080FFF7F8FBC9
:101850000746686A10F0020F09D000BFFFF7F0FBDF
:10186000C01B022828D8686A10F0020FF6D1207831
:1018700010F0040F79D0E8694FF0000A10F0805F93
:1018800009D1E86940F08050E861E8694FF0010A49
:1018900000F080500090DFF8BC91D9F8000010F4FF
:1018A000807F19D1D9F8000040F48070C9F8000099
:1018B000FFF7C6FB074600E06FE0D9F8000010F420
:1018C000807F09D1FFF7BCFBC01B642865D8D9F81D
:1018D000000010F4807FF5D0E068012804BF286A7A
:1018E00040F0010009D008B1052813D0286A20F083
:1018F00001002862286A20F004002862E06841F2B2
:101900008837D0B1FFF79CFB8146286A10F0020FA0
:1019100008D023E0286A40F004002862286A40F0DA
:101920000100EAE7FFF78CFBA0EB0900B84234D8CE
:10193000286A10F0020FF5D010E0FFF781FB814616
:10194000286A10F0020F09D0FFF77AFBA0EB09001C
:10195000B84222D8286A10F0020FF5D1BAF1000F70
:1019600003D0E86920F08050E861E069F0B369686D
:1019700001F00C01082950D00228C6F860800FD071
:10198000FFF75EFB0446286810F0007F57D000BFC9
:10199000FFF756FB001B02283AD90320BDE8F88F59
:1019A000FFF74EFB0746286810F0007F09D000BF04
:1019B000FFF746FBC01B0228EFD8286810F0007F15
:1019C000F6D1206AB0F5803F05D16868A16820F49F
:1019D000003008436860D4E908010843696821F4CD
:1019E000741108436860C6F860B000E027E0FFF7B4
:1019F00027FB0446286810F0007F20D1FFF720FB6A
:101A0000001B0228C9D8286810F0007FF6D016E025
:101A1000286810F0007FBBD111E0012808BFBDE8A5
:101A2000F88F6868226A00F48031914204D1616ABB
:101A300000F47010884202D00120BDE8F88F002029
:101A4000BDE8F88F0010024000004242800442428C
:101A50003406002000700040002804BF01207047B9
:101A60002DE9F0410446407C002618B92674204632
:101A700000F08AF8022060742068416821F00801B3
:101A80004160FFF7DDFA0546206840684FF0040723
:101A900010F0080F0FD100BFFFF7D2FA401BB0F5CE
:101AA0007A7F03D967740120BDE8F081206840681F
:101AB00010F0080FF0D0FFF7C3FA05462068406821
:101AC00010F0200F0BD100BFFFF7BAFA401BB0F5A2
:101AD0007A7FE7D82068406810F0200FF4D02068A3
:101AE000416841F0100141602068416821F0070120
:101AF0004160A06820B12248016821F00101016025
:101B000020480168A26821F4607111430160606897
:101B1000B0F1FF3F19D021688A6822F00F0242EA33
:101B200010428A602168CA6860F30F02CA602068A8
:101B3000416821F010014160FFF782FA05462068F4
:101B4000406810F0200F08D012E00120FFF734FBAE
:101B5000002818BF401EDED1A4E7FFF771FA401B32
:101B6000B0F57A7F9ED82068406810F0200FF4D03E
:101B7000E67301206073A07360740020BDE8F081FB
:101B8000306C00402C6C004008B50068A0F180412A
:101B9000B1F5205118BF08BDFFF708FB0648C16921
:101BA00041F00061C161C069044900F0006000902B
:101BB0000120086008BD0000001002403C044242C1
:101BC000002812BF0029012070472DE9F047044684
:101BD000007C012804BF0220BDE8F087012626749E
:101BE00002206074C878002A46D0020902EB820203
:101BF00000F00F0000EB4200E0734878020902EBAE
:101C0000820200F00F0000EB420060738878020946
:101C100002EB820200F00F0000EB4200A073627B37
:101C20000025032AC2EBC20909EB021240F639690A
:101C3000E07BA37B02FB09F24FEAD2323B4FDFF895
:101C4000F0C000F5FA601A444FF4C878024418D284
:101C5000401E02EB9003A7FB0072B0FBF8F0A3EB71
:101C60005212104463460022001DE0FB0C32520861
:101C7000A2EBC202104416E0E073487860738878E3
:101C8000CCE702EB9003A7FB0072B0FBF8F0A3EBEC
:101C900052121044264B0022801CE0FB0C325208EA
:101CA000A2EBC20210442073087020688169C269E7
:101CB00089B293B2826992B291421ABFC06962F34B
:101CC0001F4043EA01404FF46161B0FBF1F1182974
:101CD00027D9184AA2FB0121174A0909514300EBF1
:101CE000C1173946204602F0F3FC4FF0040890B9C2
:101CF0002168086A496A89B241EA0040B0F1FF3FB1
:101D000018BFB8420DD200F5803101F5A34120463D
:101D100002F09CFC28B184F8118025740120BDE8F4
:101D2000F087667425740020BDE8F0871F85EB51AD
:101D300049922449ABAAAAAA5DFDFFFF002812BF61
:101D40000029012070472DE9F0410446007C01285C
:101D500004BF0220BDE8F0810127277402206074CF
:101D600008785AB3020902EB820200F00F0000EB80
:101D70004200C0B24FF4616200FB02F348780209EE
:101D800002EB820200F00F0000EB4200C0B2C0EB99
:101D9000001003EB80028878010901EB810100F05B
:101DA0000F0000EB4100C0B215182946204602F092
:101DB0008FFC00264FF0040818BB0AE04FF4616264
:101DC00050434A788978C2EB021200EB8200451832
:101DD000EBE72068416821F0050141602168086A4D
:101DE000496A89B241EA0040B0F1FF3F18BFA842FA
:101DF0000DD200F5803101F5A341204602F026FC0A
:101E000028B184F8118026740120BDE8F081677440
:101E100026740020BDE8F08170470000411EB1F13A
:101E2000807F24BF012070474FF0E0204161054AC8
:101E3000F02182F8141D0021816107210161002039
:101E4000704700000FE000E010B5FFF7E5FF10BDA0
:101E500090F83C20012A04BF02207047012280F83C
:101E60003C20CA688B6822F440721A434B6822F403
:101E700080621A430B6822F400621A430B6922F451
:101E800080521A434B6922F400521A43C96922F462
:101E90008042114302685164002180F83C100846DA
:101EA0007047002804BF0120704770B5044690F8C1
:101EB0003D0088B00E46002520B984F83C502046ED
:101EC00000F04DF8022084F83D00211D206802F04A
:101ED00087FEB36831680322206802F072FF206831
:101EE000816921F00C018161206881697268114368
:101EF00081612068416841F080014160206881680B
:101F000021F0700181602068816841F040018160AA
:101F10002068816821F0070181602068816841F0B4
:101F2000040181607020059504950695039502953E
:101F30000090F06801906946206802F09BFE2068DE
:101F4000416821F0700141602068416841F0500112
:101F50004160012084F83D0008B0002070BD70474A
:101F600090F83C20012A04BF0220704730B40123BE
:101F700080F83C30022280F83D2002685468D2F894
:101F800008C00D6824F0700449682C432CF0800CC4
:101F900041EA0C0154600268916080F83D300021F4
:101FA00080F83C1030BC08467047002804BF012070
:101FB000704710B5044690F83D0028B9002084F819
:101FC0003C00204600F00CF8022084F83D00211D62
:101FD000206802F005FE012084F83D00002010BDBD
:101FE00000B585B000210091019102910391026832
:101FF0001F492048A2F18043B3F596331ED0A2F1C9
:102000008043B3F500631CBF05B000BDCA6942F050
:102010000402CA61CA6902F0040204928A6942F0A9
:1020200008028A61896901F0080104914FF4E071A6
:1020300000916946FEF7FCFE05B000BD8A6942F4D6
:1020400000628A618A6902F4006204928A6942F03D
:1020500008028A61896901F0080104914FF48051F6
:102060000091012102916946FEF7E2FE05B000BD34
:1020700000100240000C014090F83C20012A0DBFE6
:102080000220012380F83C30704730B4022280F8EF
:102090003D20D0F800C0DCF8082022F0770222F4BE
:1020A0007F42CCF808200A68502A3DD00CDC202A58
:1020B00074D004DC002A18BF102A51D18CE0302AD9
:1020C0006CD0402A6CD091E0602A4AD0702A06D0A9
:1020D000B2F5805F44D0B2F5005F12D086E0D1E95E
:1020E000014C0268C968956844EA012125F47F45DE
:1020F00041EA0C012943916001688A6842F0770245
:1021000010E00268D1F804C08C68C96895684CEA90
:10211000012125F47F4521432943916001688A68A4
:1021200042F480428A6061E00268D1F804C0C96864
:10213000146A156A25F001051562956924F00A04F0
:1021400025F0F00545EA011144EA0C0C9161C2F852
:1021500020C001688A6822F0700242F057028A604B
:1021600044E00268D1F804C0C968146A24F010047D
:1021700014629569146A25F4704545EA013124F02A
:10218000A00444EA0C1C9161C2F820C001688A686E
:1021900022F0700242F067028A6027E01CE0FFE74D
:1021A0000268D1F804C0CC68116A156A25F00105EF
:1021B0001562956921F00A0125F0F00545EA04143D
:1021C00041EA0C019461116201688A6822F0700290
:1021D00042F047028A6009E00168D1F808C02CF09B
:1021E000700C4CEA020242F007028A6080F83D302F
:1021F000002180F83C1030BC08467047002804BF1E
:102200000120704770B5044690F83D000D4628B98E
:10221000002084F83C00204600F048F8022084F8B2
:102220003D002068816821F0070121F48041816030
:10223000211D206802F0D4FC206883688269016A4D
:10224000D5F800C022F00302AE694CEA030322F481
:10225000407242EA0622D5F808C0EE694CEA020252
:1022600022F0FC0222F47C42D5F80CC042EA06229D
:102270004CEA0202D5F810C02E6A4FEA0C1C4CEA58
:10228000063C4CEA0202D5F804C06D6921F0220137
:1022900041EA05114CEA01018360206882612068EF
:1022A0000162012084F83D00002070BD00B585B0BA
:1022B000002100910191029103910068A0F18041F9
:1022C000B1F580611CBF05B000BD0C48C16941F08B
:1022D0000201C161C16901F002010491816941F00B
:1022E000040181618069694600F004000490C02007
:1022F00000900348FEF79CFD05B000BD00100240B1
:102300000008014030B585B0002100910191029193
:1023100003910068A0F18041B1F596311CBF05B072
:1023200030BD1348816941F008018161816901F084
:1023300008010491816941F00401816180690224EE
:1023400000F0040004904FF46040CDE90004032540
:10235000694603950748FEF76BFD4FF4E060CDE951
:102360000004694603950448FEF762FD05B030BDE0
:1023700000100240000C01400008014090F83C3081
:10238000012B04BF022070472DE9F001012480F8E1
:102390003C40022380F83D308A4BDFF82CC242B12A
:1023A000042A49D0082A7DD00C2A00F0CE8000F003
:1023B000FFB80268156A25F001051562156A5668AE
:1023C0009769D1F8008027F0730748EA0707D1F82A
:1023D000088025F0020548EA05059A4218BF6245C3
:1023E00007D1D1F80C8025F0080548EA050525F04D
:1023F00004059A4218BF624509D1D1F814C026F4E9
:1024000040734CEA0303D1F818C04CEA0306566047
:1024100097614B68536315620268936943F0080340
:1024200093610268936923F00403936102689369DE
:10243000096943EA010143E00268156A25F01005C5
:102440001562156A56689769D1F8008027F4E64747
:1024500047EA0827D1F8088025F0200545EA081545
:102460009A4218BF624507D1D1F80C8025F080054B
:1024700045EA081525F040059A4218BF624509D182
:10248000D1F814C026F4406343EA8C03D1F818C095
:1024900043EA8C06566097614B6893631562026845
:1024A000936900E00EE043F400639361026893696E
:1024B00023F48063936102689369096943EA012107
:1024C000916175E00268156A25F480751562166AD7
:1024D0005568D769D1F8008027F0730748EA0707E5
:1024E000D1F8088026F4007646EA08269A4218BFFA
:1024F000624507D1D1F80C8026F4006646EA08262A
:1025000026F480669A4218BF624509D1D1F814C0FA
:1025100025F4405343EA0C13D1F818C043EA0C15D4
:102520005560D7614B68D36316620268D36943F084
:102530000803D3610268D36923F00403D3610268FE
:10254000D369096943EA010131E00268156A25F49B
:1025500080551562176A5568D669D1F8008026F44F
:10256000E64646EA0826D1F8088027F4005747EAED
:1025700008379A4218BF624505D1D1F814C025F436
:10258000804343EA8C155560D6614B68136417622B
:102590000268D36943F40063D3610268D36923F40A
:1025A0008063D3610268D369096943EA0121D1617B
:1025B00080F83D404FF0000180F83C10BDE8F0018C
:1025C00008467047002C014000340140002804BF39
:1025D0000120704710B5044690F83D0028B900204E
:1025E00084F83C00204600F00CF8022084F83D00FE
:1025F000211D206802F0F4FA012084F83D0000203B
:1026000010BD704770B5044690F83C00012804BF27
:10261000022070BD012584F83C50022084F83D0062
:10262000204602F05FFB01004FF0000005D084F867
:102630003D5084F83C00012070BD2168CA6822F03A
:102640004002CA602168CA6822F48042CA6084F8E5
:102650003D5084F83C00002070BD002804BF0120DC
:10266000704770B5044690F83900002520B984F809
:102670003850204600F022F8242084F839002068E1
:10268000C16821F40051C160204602F0F3FD2068CA
:10269000016921F4904101612068416921F02A011A
:1026A00041612068C16841F40051C160E5632020A8
:1026B00084F8390084F83A00002070BD30B585B048
:1026C000002400940194029403940068A0F18041D6
:1026D000B1F590411CBF05B030BD1348C16941F44C
:1026E0008021C161C16901F480210491816941F0B7
:1026F0000801816180690D4D00F0080004904FF4DD
:102700008060009002200190039069462846FEF701
:102710008FFBE814CDE90004694628460294FEF7D1
:1027200087FB05B030BD000000100240000C0140E6
:1027300082B002F08DFB184CD4F82001006810F034
:10274000080F0AD0144802F035FED4F820010168C1
:1027500000914068009003F0A5F9D4F820010068CA
:1027600010F0800F1CBF0C4802F0CDFED4F8200101
:10277000016811F0200FDFD04068C1B2064802F0B6
:1027800023FE0088012804D0022808BF03F08AF93C
:10279000D2E703F081F9CFE79804002010B5044692
:1027A000406802F0CAF8A168086110BD0068012104
:1027B00002F02DB9002808BF704710B50446007E0E
:1027C000012818BF10BD217B0020012904D0022957
:1027D00010D003291ED026E0A16881F82400012131
:1027E000606802F0D8F8E28AB4F90E10606802F06E
:1027F00053F80CE0A16881F824000021606802F021
:10280000CAF8E28AB4F91010606802F045F850B1D5
:10281000022009E0A168012081F82400A068D4F812
:1028200012100161F4E70320207610BD0123037329
:10283000C181C2820376437670470223037301820B
:10284000C28201210176002141767047006802F0C2
:10285000ACB810B5406802F086F8BDE8104001F051
:10286000A2BF407E704780680068704780684068FB
:1028700070478068C0687047806800697047027B55
:102880000021012A08BFB0F90E10084670474068C1
:1028900002F05DB8006802F0B3B88068B0F91E00BD
:1028A00070478068D0F81A0070478068D0F816002A
:1028B00070478360C0E9001200210173C181018269
:1028C000C18201767047032202734182091481821A
:1028D000012101760021417670478268518280682B
:1028E0008182704710B504460068032102F08FF81A
:1028F00000281CBF0121217610BD0068072102F0CD
:1029000086B8406802F04DB801B244F6E61361F3B0
:102910000F02001459435843014408444042C01375
:10292000B0F5004FA8BF47F6FF7104DA10F5004F6D
:10293000B4BF064901B2104661F31F4011F5004FC4
:1029400004BF48F2010161F31F4070470080FFFFA0
:1029500070B50546084600F053F82AB203B24FEAB4
:10296000254C02FB03F105140CFB1510C01316498E
:10297000B0F5004FA8BF47F6FF7004DA10F5004F1E
:10298000B4BF084600B260F30F04104E10F5004FBC
:1029900008BF66F30F0402FB05F00CFB0300C01335
:1029A000B0F5004FA8BF47F6FF7103DA10F5004FEE
:1029B000A8BF01B2204661F31F4011F5004F08BFC8
:1029C00066F31F4070BD00000080FFFF0180FFFF25
:1029D00070B50546084600F013F82AB201B22B1470
:1029E00002FB01FC051403FB05C0C0136A435943F5
:1029F00060F30F04891A2046C91361F31F4070BDAC
:102A000000F50041890911F4407C00F50041C1F353
:102A100087121749C2F1FF0319D0BCF5807F1FD080
:102A2000BCF5007F0AD0BCF5407F18BF704731F875
:102A3000133031F8121063F31F400FE031F8122009
:102A400031F8131062F31F4061F30F00704731F843
:102A5000122031F81310524262F31F404942F3E74B
:102A600031F8133031F812105B4263F31F40EBE78B
:102A70002E860008F8B58C460446DDE90710069F4F
:102A8000C4F830C0C4E9300108481E46154600901D
:102A9000074B084A21466046FDF722FEE763C4E97A
:102AA0000D56204600F096FBF8BD0000B92A00083C
:102AB000C12A0008CD31000810B500F08BFB10BD15
:102AC0002DE9F04105468CB00020984614460E468C
:102AD0008DF804004F0912D07A1E0021284602F01A
:102AE000F9FF002808BF0B2000F05082D5F8C40081
:102AF00006F01F0618B17A1E002102F0EBFF132E1C
:102B000080F04C83DFE806F0BE0AACBDBCBCBBBAAB
:102B1000B9B8B7B6B5B4BCBCBCBCBE0026780520FD
:102B20008DF80800472E70D028DC0F2E7ED00BDCED
:102B30000F2E6BD2DFE806F055929263927A7A7A82
:102B40007A7A7A7A7A7A7A00172E6FD009DCA6F12F
:102B5000100007285AD2DFE800F07272818169699B
:102B600069001D2E5BD004DC182E5FD01C2E4ED0C9
:102B700074E0412E5AD0462E61D06FE0652E55D0BC
:102B80001EDC572E52D00EDC542E4FD006DC482EC1
:102B900055D04F2E18BF532E48D05FE0552E18BF8A
:102BA000562E5BD142E05B2E49D004DC582E18BF74
:102BB000592E53D13AE0612E18BF642E4ED135E024
:102BC000A6F17400152849D2DFE800F01939393927
:102BD00039394848483939484848484848483030E1
:102BE0003000647831462246D5F8C40002F072FF06
:102BF00022463146284602F06DFF00F02ABA62787C
:102C00003146284602F066FF23E218E026E06278AB
:102C10000021D5F8C40002F058FF012019E26278C3
:102C20000121D5F8C40002F050FF7BE16078A17863
:102C300000EB01223146284602F04CFF09E26078A1
:102C4000A178227900EB0120E178090401EB02610F
:102C500042183146284602F03DFFFAE1022095E194
:102C6000217803208DF80800892980F08E810AE000
:102C7000DCE174E25CE24AE221E2EDE1C3E193E1EE
:102C80008CE287E11AE288007844406887440000BB
:102C900024020000BE020000240200002402000002
:102CA000BE02000098020000980200009802000096
:102CB00098020000980200009802000098020000AC
:102CC000980200009802000098020000980200009C
:102CD000980200009802000098020000980200008C
:102CE000980200009802000098020000980200007C
:102CF000980200009802000098020000980200006C
:102D00004802000074020000BE02000098020000A9
:102D1000980200009802000024020000FA0200005D
:102D2000FA020000FA020000FA020000FA020000B3
:102D3000FA020000FA020000FA020000FA020000A3
:102D4000FA020000FA020000FA020000FA02000093
:102D5000FA020000FA020000FA020000FA02000083
:102D6000FA020000FA020000FA020000FA02000073
:102D7000FA020000FA020000FA020000FA02000063
:102D8000FA020000FA020000FA020000FA02000053
:102D9000FA02000098020000FA020000FA020000A5
:102DA000FA020000FA020000BE020000BE020000AB
:102DB000BE02000098020000980200009802000085
:102DC0009802000024020000BE02000098020000E9
:102DD000980200009802000098020000980200008B
:102DE000980200009802000098020000980200007B
:102DF000980200009802000024020000BE020000B9
:102E0000FA020000980200009802000098020000F8
:102E10009802000098020000FA020000FA02000086
:102E20009802000098020000240200002402000022
:102E3000BE020000BE020000BE020000BE02000092
:102E4000BE02000024020000980200009802000068
:102E5000BE020000FA020000980200009802000082
:102E600024020000BE020000BE020000BE020000FC
:102E7000BE020000BE020000BE020000BE02000052
:102E8000BE020000BE020000BE020000BE02000042
:102E900024020000FA02000024020000E402000004
:102EA000E4020000E4020000980200009802000022
:102EB0009802000001AA284602F0D6FB00909DF877
:102EC0000400002800F07581D5E90C0C01236A4646
:102ED000F02100F040B900BFD5F8C400002800F090
:102EE0005F81002102F0B6FB8DF80000D5E90C0CE3
:102EF00001236A46F021E04701208DF804000CB060
:102F0000BDE8F081D5F8C400002800F04981012116
:102F100002F0A0FB8DF80000D5E90C0C01236A46F5
:102F2000F021E047012094E001AA284602F09CFB32
:102F300000909DF80400002800F03B81D5E90C0CBE
:102F400002236A46F021E0470CB0BDE8F08101AAF7
:102F5000284602F089FB00909DF80400002800F04C
:102F60002881D5E90C0C04236A46F021E0470CB017
:102F7000BDE8F08101AA284602F076FB00909DF89A
:102F800004000028EDD100F014B903208DF80800EA
:102F900000F006B9217807208DF80800284602F0D5
:102FA000FFFA8DF80400FBE0002004A902460A5451
:102FB000401CC0B22028FAD3002005E00B18401CAA
:102FC000C0B2DA701D2804D2D5F8C020125C092ADC
:102FD000F4D1D5F8C010421D20238A5C8DF8102052
:102FE000C21D0930895C8DF81110D5F8C01004AAF3
:102FF000085C8DF81200D5E90C0CF021E0470120A7
:103000008DF80400CFE020796179E37800EB0120AE
:1030100082B22078617800EB0120A178090401EBED
:1030200003610144284602F0F3FA12E02079617945
:10303000E37800EB012082B22078617800EB012078
:10304000A178090401EB0361084401B2284602F0AB
:10305000F7FA8DF80400A3E006A80090217807ABEA
:1030600003AA284602F0B8FCBDF91C005449C0EB85
:103070000010800081FB00108110A1EBE0708DF842
:103080001000010A8DF81110010C8DF81210000EBD
:103090008DF81300BDF818008DF81400000A8DF8A3
:1030A0001500BDF80C008DF81600000A8DF8170009
:1030B000D5E90C0C082304AAF021E04770E0E07980
:1030C000227AA37800EB022082B2607894F804C0E0
:1030D00000EB0320E37821781B0403EB0C63184416
:1030E00000EB80004300DFF8DCC00020CCFB0303D2
:1030F0005811A0EBE37003B2607994F806C000EBBE
:103100000C2000B20090284602F08CFDA1E7217847
:103110006078E27801EB002001B2A07800EB022099
:1031200002B2284602F0C4FC01208DF804003AE007
:103130000C208DF8080004948DF81480224904A80E
:1031400002F090FA8DF8040050B31F48F021037983
:103150000268D5E90C0CE0470CB0BDE8F081002016
:1031600004AA04E01154401CC0B220280DD2D5F8A6
:10317000C010095C0029F5D1202838BF002104D2F5
:103180001154401CC0B22028FAD3D5E90C0C2023DE
:10319000F021E04701208DF8040004E00120F5E66D
:1031A0009DF8040028B10023D5E90C0C1A46F02143
:1031B000D1E7D5E90C0C012302AAFF21CBE70000DF
:1031C00067666666898888881000002010B500F060
:1031D00001F810BD10B50446006BE16B88478020F4
:1031E00084F8C800A16B206BBDE8104008470000C0
:1031F00001480068FFF7DABA0800002001480068BB
:10320000FFF748BB0800002006480078002808BFE8
:10321000704710B500F008F801F0BAFFBDE81040A3
:1032200002F01ABCD405002010B50E4C20780128FD
:1032300018BF10BD608800281CBF6088401E02D1E6
:1032400001F07CFE01206080A08810B1A088401EA3
:10325000A080E088002808BF10BDE088401EE08004
:1032600010BD0000D405002001480068FFF73ABBFC
:103270000800002001480068FFF73FBB080000205D
:103280002DE9F35F594801F0BDFB594E002406F1CA
:103290003001347057480860A1F108085648C8F852
:1032A000000000F0FFFE03F0CFFA544800F0C7FB27
:1032B00006F1100B5148CBF8000006F10C05504800
:1032C00028605048FDF75AF94E4B4F4A4F4829683D
:1032D000FDF75EF805F110014C480860DBF80010BE
:1032E000484A286801F047FB474802F06CFD48480F
:1032F00000F0A5FB474800F0A2FB05F1080944488F
:10330000C9F8000005F10C0A4248CAF8000042481A
:10331000306202F0A0FD05F1200140480860316AEA
:103320003F4FC0E943713F4800F006F905F118002E
:103330003C49016005F128013B48086001F07EF935
:103340000020FDF7EFF9012087F82400286801F03C
:10335000F4FA3861286801F0F0FA0014B88207F135
:1033600028002F1FA0F12803386005F12C012A68DE
:10337000FFF79FFA286801F0F0FA3B680146002247
:103380001846FFF753FA0098396801602748DBF8C0
:1033900000100160D9F800104160DAF80010C0E9AF
:1033A0000214D8F80010C0E904141649C0E9061444
:1033B00004622968416205F12C01816214390968AF
:1033C000C162316AC0E90C1405F120018463096807
:1033D000C0E90F1444648464C464046501990860FE
:1033E0000120307002B0BDE8F09F00000C06002004
:1033F000D4050020E4030020E40100202C0100207B
:10340000B0010020940200205C0200201003002084
:1034100058010020840100205403002018000020DF
:10342000040C00202C030020CC030020480C0020BA
:10343000B0F80031002220F81310B0F80031A0F8E5
:1034400002315B1C9BB2A0F80031802B24BF00230B
:10345000A0F800315FF0000330F913C05B1C9BB291
:103460006244802BF8D3D31702EB5362D211A0F839
:1034700004210846704700210A4620F81120491C03
:1034800089B28029F9D3A0F80021A0F80221704761
:10349000B0F904017047000008B5FEF797F84FF443
:1034A000FA61B0FBF1F0FEF7B9FC0749081FFFF71E
:1034B000E7FE03F01FF8044B04481A1F0090012197
:1034C000101F02F0CBFB08BD0C0000200A8600088C
:1034D00010B504460078002818BF002012D194F8D7
:1034E000260000F0BDFFA0F57F41FF3907D0218BFA
:1034F000238A4A1E03FB0200B0FBF1F02082204623
:1035000000F02CF8E08280B210BD002101827047EB
:103510000178002918BF808A01D000B27047018A63
:10352000026A891AB0F91E20808C5143CA1701EB38
:10353000124100EB2140F0E710B50446007820B1BD
:103540000020E082608A208210BD201D00F0E8FF8C
:1035500084F826002046FFF7D8FF10BD018A428B71
:10356000914284BF08207047828B8A428CBF002022
:10357000C08A704770B5164D002400BF05EBC4002B
:1035800002F06FFC601CC4B2802CF7D35FF0000423
:1035900004F1B000C0B2002100F0FAF900210846A1
:1035A00000F0F6F90021102000F0F2F95FF00006BB
:1035B00005EBC6000121005D00F0EAF9701CC6B2FF
:1035C000802EF5D3601CC4B2082CE1D370BD00007E
:1035D0003806002070B5012220215448FDF72AFD4D
:1035E000534C012204212046FDF724FD002208212E
:1035F0002046FDF71FFD0A20FDF706FC01220821E9
:103600002046FDF717FD6420FDF7FEFB0021AE20EC
:1036100000F0BEF90021D52000F0BAF900215020B9
:1036200000F0B6F90021A82000F0B2F900213F20F7
:1036300000F0AEF90021D32000F0AAF900210846DD
:1036400000F0A6F90021402000F0A2F900218D2011
:1036500000F09EF90021142000F09AF900212020AA
:1036600000F096F90021022000F092F90021A1203B
:1036700000F08EF90021C02000F08AF90021DA2044
:1036800000F086F90021122000F082F9002181204B
:1036900000F07EF90021EF2000F07AF90021D92016
:1036A00000F076F90021F12000F072F90021DB2012
:1036B00000F06EF90021302000F06AF90021A4200A
:1036C00000F066F90021A62000F062F90021AF2089
:1036D00000F05EF9174D002405EBC40002F0C1FBB9
:1036E000601CC4B2802CF7D35FF0000404F1B0007A
:1036F000C0B2002100F04CF90021084600F048F962
:103700000021102000F044F95FF0000605EBC60030
:103710000121005D00F03CF9701CC6B2802EF5D38B
:10372000601CC4B2082CE1D370BD00000010014041
:10373000000801403806002070B5114E002400BF7B
:1037400004F1B000C0B2002100F022F900210846C7
:1037500000F01EF90021102000F01AF95FF00005BA
:1037600006EBC5000121005D00F012F9681CC5B22E
:10377000802DF5D3601CC4B2082CE1D370BD0000CD
:10378000380600202DE9F04F84B00D460D9E13F051
:10379000070C18BF4FF0010C0CEBD30C5C080CFBB2
:1037A00004FC1CF0FF0CA2F12002D2B24FF0000486
:1037B000CDF800C004BF04B0BDE8F08F02EB420CAE
:1037C000404F4FF0010A07EB8C0CCDF80CC007F20C
:1037D000744C0CEB021CCDF808C002EBC20207F6D9
:1037E000642C0CEB82024FF0070B01920C2B04BFF0
:1037F000039A12F804C00BD0102B08BF029A05D010
:10380000182B0EBF019A04B0BDE8F08F12F804C067
:103810002D4A002702EBC0021CF0800F22D07F2827
:1038200098BF3F2910D801F00709C9F10709ABEB90
:10383000D1080AFA09F908F0FF0809F0FF0956BB98
:103840002EE000BF02F80890491CC9B24FEA4C6C48
:10385000A1EB05084FEA1C6C984526D1401C29466F
:10386000C0B226E0002E14BF4FF0000E4FF0010E44
:103870007F2898BF3F29E7D801F00709C9F1070958
:103880000AFA09F9ABEBD10808F0FF0809F0FF09C3
:10389000BEF1000F04D012F808E04EEA0909D1E7A2
:1038A00012F808E02EEA0909CCE77F1CFFB2082FC6
:1038B000B2D3621CD4B2009A944297D304B0BDE84C
:1038C000F08F00000A690008380600202DE9F04F4B
:1038D0000646107883B020389A46174689465E28F7
:1038E00084BF03B0BDE8F08F8020A0EB5A00DFF862
:1038F0009C80CAF1400B01900198B04204D209EBC0
:103900000A00002600F0FF09CB452BDA0026B1465D
:103910004FEA060408EBC40002F0A3FA601CC4B22C
:10392000802CF7D35FF0000404F1B000C0B2002196
:1039300000F02EF80021084600F02AF8002110209F
:1039400000F026F85FF0000508EBC5000121005DDE
:1039500000F01EF8681CC5B2802DF5D3601CC4B2FF
:10396000082CE1D3012000903A785346494630466E
:10397000FFF708FF06EB5A00C6B217F8010F203810
:103980005E28B9D903B0BDE8F08F000038060020EA
:103990002DE9F041204F054629B101220421384686
:1039A000FDF748FB04E0002204213846FDF742FB06
:1039B000DFF86880002220214046FDF73BFB184ECF
:1039C0000024002208213046FDF734FB15F0800F5B
:1039D00005D0012220213046FDF72CFB04E0002217
:1039E00020213046FDF726FB012208213046FDF755
:1039F00021FB6806050E601CC4B2082CE1D301222D
:103A000020214046FDF716FB3846BDE8F041012273
:103A10000421FDF70FBB0000000801400010014029
:103A2000000C0140B0F922007047B0F90600704761
:103A3000408B7047B0F904007047008B70470188D5
:103A400081804188C180018C418400218160816234
:103A500070478160704741847047C18070478180A2
:103A60007047000070B4B0F90420002402FB01F696
:103A7000B0F90620B0F914C0B0F91630002A04BF1E
:103A80000021816014D085684A43A91805D5002D0E
:103A9000C4BF002A6FF0004103E0002DBCBF002A24
:103AA0000F49C2688A42A5BF026991428260816063
:103AB000827F8168057F41FA02F246FA05F52A44C1
:103AC0006245C4BFACEB0204624603DC9342C4BF50
:103AD0009C1A1A462144816070BC10B270470000E5
:103AE0000100008070B5D0F80C110446C868D1F808
:103AF000161002B20BB25A430014091400FB012144
:103B0000C81701EB10400514D4F8100102F040F979
:103B1000D4F8081148434FF4167190FBF1F0684354
:103B200000EB40000749400081FB00108110A1EB31
:103B3000E071C81701EB104001142046BDE8704049
:103B4000FFF776BC67666666C169084770B50446CC
:103B5000002511B1012908D017E000F007F9B4F8E9
:103B60005200A4F8440080B90BE0B4F844000028E7
:103B700008BF012509D0401E0004000CA4F8440031
:103B800003D12169204688470125284670BD426837
:103B9000104730B4038E0AB253430A14B0F85010E1
:103BA0004A435200524202EB030CA2EB03030CEB1C
:103BB000DC7C03EBD3735FEA6C0C4FEA63034FEAE0
:103BC000910153D5002B18DA042280F83A20ACEB8F
:103BD0000302D41702EB943201EBA241DA1703EB94
:103BE000D23201EB62434FEAEC720CEBD232A1EB22
:103BF000624CA0F83CC0C1876CE0002A1BDC4FF08F
:103C0000030C80F83AC0A2EB030C4FEAEC740CEB07
:103C1000943C01EBAC414FEAE37C03EBDC334FEA2D
:103C2000E27C01EB634302EBDC32A3EB624CA0F8D5
:103C30003CC0C38717E0022380F83A30ACEB0203A4
:103C4000DC1703EB943301EBA3414FEAEC730CEB6D
:103C5000D333A1EB634CD31702EBD3320CEB6243AB
:103C60008387A0F83EC0A0F8401052E0002B17DB7D
:103C7000012280F83A20ACEB0302D41702EB943215
:103C800001EBA241DA1703EBD23201EB62434FEAB8
:103C9000EC720CEBD2328387A1EB624CC18736E029
:103CA000002A1ADC052380F83A30ACEB0203DC175B
:103CB00003EB943301EBA3414FEAEC730CEBD333EA
:103CC000A1EB634CD31702EBD33281870CEB624339
:103CD000A0F83EC0A0F840301BE04FF0000C80F888
:103CE0003AC0A2EB030C4FEAEC740CEB943C01EBF2
:103CF000AC414FEAE37C03EBDC3301EB63434FEA77
:103D0000E27C02EBDC328187A3EB624CC387A0F834
:103D100040C089B29AB2418682861FFA8CF3C3866C
:103D2000B0F84EC0BCF1010F02D0816930BC084729
:103D3000B0F948C0BCF1000FB0F854C0CCBF61442A
:103D4000A1EB0C014186B0F94A1000291FFA8CF151
:103D5000CCBF1144511A8186B0F94C1000291FFACA
:103D60008CF1CCBF1944591AC186DEE78168084737
:103D7000416F91F88820022A11D1CA68896FC1F376
:103D80000F215161426F1169D26FC2F30F224A6154
:103D9000416F4A69D1F88010C1F30F2151610121AF
:103DA00080F87210463070472DE9F0470446406FA6
:103DB00000278568E7652766676684F87070286A5B
:103DC00020F0550020F4A06028624049616040491D
:103DD0000326A16184F87160204684F83A6000F0FF
:103DE00048FA606F04F1700304F1380190F88920FB
:103DF000284602F059FD204600F00EFA84F8707053
:103E00003449616084F87170204684F83A7000F09B
:103E100030FA606F04F1700304F1380190F88920E2
:103E2000284602F041FD204600F0F6F9E06D2C4BEB
:103E3000C108E165206E05F11809C1082166606EB0
:103E4000C1086166244961602449A161187800EBCA
:103E500009021168D81D4FF0080890F800C008FA50
:103E60000CFC21EA0C01116099784944D1F800A0BA
:103E7000877808FA07F72AEA070AC1F800A01B7931
:103E80004B44D3F80090007908FA00F829EA0800BA
:103E90001860B4F86C006863B4F86C00A863B4F8F8
:103EA0006C00E863106840EA0C0010600868384352
:103EB0000860186840EA0800186084F83A60296AC7
:103EC00040F2555008432862BDE8F08711400008D1
:103ED0005341000867400008E53E00089141000892
:103EE000E688000870B4426F9268136A23F4805326
:103EF000136290F83AC01822436F02EB8C029A5872
:103F000014684FF6FF7202EA4405302404EB8C0477
:103F10001B591B6802EA43043C4A530CBCF1060FD0
:103F200066D2DFE80CF01D414103031DD0F85CC0F0
:103F3000ACEB050C1CF5004FD8BF0A8005DDBCF5C5
:103F4000004FACBF0B80A1F800C0D0F860C0ACEB54
:103F5000040C1CF5004F47DDBCF5004F3FDA45E08F
:103F6000D0F860C0ACEB050C1CF5004FD8BF4A8000
:103F700005DDBCF5004FACBF4B80A1F802C0D0F806
:103F800064C0ACEB040CB1F90240A444CCF1000CC9
:103F9000BCF5004FA8BF0B802ADA1CF5004FD4BF38
:103FA0000A80A1F800C023E0D0F85CC0ACEB050C9F
:103FB0001CF5004FD8BF0A8005DDBCF5004FACBF33
:103FC0000B80A1F800C0D0F864C0ACEB040CB1F9D0
:103FD0000040A444CCF1000CBCF5004F01DB4B8049
:103FE00006E01CF5004F01DC4A8001E0A1F802C0A8
:103FF0000A88A0F848204A88A0F84A200A884988F8
:1040000011444942A0F84C1070BC70470180FFFF7A
:10401000426F9268136A23F48053136290F8702001
:10402000102A1CD290F871304FF0180C426F0CEB34
:104030008303D2581268C36D4FF0300C1A44C26526
:1040400090F87130426F0CEB8303D2581268036E04
:104050001A44026690F87020521C80F870200020EC
:10406000088048807047426F9268136A23F4805337
:10407000136290F87020102A10D290F871304FF02F
:10408000300C426F0CEB8303D2581268436E1A4413
:10409000426690F87020521C80F870200020088042
:1040A0004880704710B4436FD3E901C11A680B68A8
:1040B00023F001030B60436F93F88A3033B16FF044
:1040C00080030B61CB6843F08003CB604B6943F006
:1040D00001034B610C6A40F2555323430B62164BAC
:1040E000A1F18044B4F5963459680CBF41F4806165
:1040F00041F4003159600CBF4FF480514FF4C0417E
:10410000A0F86E10916841F001019160DCF8081090
:1041100041F00101CCF808106FF004011160516802
:1041200041F08001516070218166002180F8721099
:10413000A0F84E1010BC7047002004E090F87220E8
:104140000021012A03D14021002280F87220084674
:10415000704790F8711080F83A10B0F86C10491E52
:104160008AB20146406F4B8E806843638B8E8363B7
:10417000CB8EC3630264006A10F4805018BF012024
:104180000A8F012A18BF7047012000220A87704752
:1041900030B470218166456F818FB0F86C20B5F81E
:1041A0008440A2EB010CC38F1FFA8CFCA44506D9F6
:1041B000032180F83A1091B2491E89B214E0CB1A5B
:1041C0009BB2B3EB4C0F84BFB5F88620891A0AD88E
:1041D000214489B2914207D360228266B0F86C20F4
:1041E000C1EB4201491E89B2AB680246408E58635A
:1041F000908E9863D08ED8631964186A10F480503A
:1042000018BF0120118F01291CBF30BC704701204D
:104210000021118730BC7047416F8968CA6822F05D
:104220000102CA60002280F842204A6C22F4004257
:104230004A64426F92F88830022B11D1D368926F92
:10424000C2F30F225A61436F1A69DB6FC3F30F2366
:104250005361426F5069D2F88020C2F30F2242614D
:104260006FF001020A61086910F0010FFBD00A61CA
:10427000704710B4416F0022896880F84220B0F87E
:104280006C2052084A63B0F86C2052088A63B0F878
:104290006C205208CA63B0F86C20521F0A646FF099
:1042A00001030B610A6912F0010FFBD00B614A6C2C
:1042B00042F480624A644A6C42F400424A64426FAB
:1042C00092F888C0BCF1020F1CD1D1F820C040F296
:1042D000555434EA0C0CD2F80CC0926FC2F30F2282
:1042E00017D0CCF81420426FD2F810C0D26FC2F3AE
:1042F0000F22CCF81420426F5069D2F88020C2F30C
:104300000F2242610B61C86840F00100C86010BC18
:104310007047CCF81020426FD2F810C0D26FC2F3B1
:104320000F22CCF81020426F5069D2F88020C2F3DF
:104330000F220261E6E7000030B450F8742F1168D4
:1043400093685268D1F808C02CF4004CC1F808C03A
:10435000D2F808C02CF4004CC2F808C050F83AC992
:104360004825047805EB84045CF804C0C1F838C023
:10437000D0F83AC010F8344B602505EB84045CF8A3
:1043800004C0C2F838C053F820CF4CF4805C43F826
:1043900008C9B0F800C08C680CF4E04C24F4E04488
:1043A00044EA0C0CC1F808C030F806C994680CF453
:1043B000E04C24F4E04444EA0C0CC2F808C0D1F804
:1043C00008C04CF4004CC1F808C0916841F40041A9
:1043D00091600A4950F8222989791944D1F800C01E
:1043E000074B73259C799B7905FA04F42CEA040C9D
:1043F0009A404CEA02020A6030BC7047E688000826
:10440000ED880008416F0122D31E896880F84220A0
:104410000B6100224A638A63CA630A6912F0010FC2
:10442000FBD00B614A6C42F400424A64416F91F840
:104430008820022A18BF7047CA68896FC1F30F210C
:104440001161426F1169D26FC2F30F220A61416F8D
:104450004869D1F88010C1F30F2101617047000055
:104460001C4910B451F82020D2F800C0127902EB98
:104470004203092A99BF4FF0007444EA0353164CD3
:1044800004EB03531A434FF4407494FAA4F44FF42A
:104490000073B4FA84F4E3400CEB8303D3F82CC02C
:1044A00002F01F022CF01F0C4CEA0202DA6251F8F3
:1044B00020201268D36C936843F4A003936051F8F2
:1044C00020000068016811F0020FFBD0C06C10BC26
:1044D00080B270479C0C0020000020FE10B50E4CEE
:1044E0006078012818BF10BD2078FFF7B9FF608001
:1044F000014602206070094A207852F83030002BC3
:1045000008BF10BD4FF0000C02EBC00284F801C0E0
:104510005268BDE81040184712060020AC0C00207D
:1045200070B4FF21424B002253F822C0BCF1000FAF
:104530001DD09CF804400579AC4206D1DCF800C0DF
:104540000468A44504BF11460422521CD2B2042AB6
:10455000EAD3042968D243F82100364B002243F8FD
:1045600031200268936813F0010F04D023E004297E
:1045700088BF1146E9E7536823F0200353600268BF
:104580006FF0020313600268536823F080035360E6
:1045900002686FF0040313600268936843F001033C
:1045A00093600268936843F0040393600268936821
:1045B00013F0040FFBD1D36A23F47003D3620279A2
:1045C000D0F800C04FF00073092A02EB420492BFFA
:1045D00043EA0454184D05EB04542243846893FACB
:1045E000A3F302F00070B3FA83F3D8400CEB800021
:1045F000D0F80CC002F0F8734FF0F87292FAA2F5FE
:10460000B5FA85F592FAA2F223FA05F50726B2FA71
:1046100082F206FA05F523FA02F22CEA050C04FAF6
:1046200002F24CEA0202C26070BC08467047000009
:104630009C0C0020AC0C0020000020FE00218160BA
:104640004160C16001610121416170472DE9F04184
:104650000F4604460026FCF7F3FC05462068406838
:1046600010F0200F0BD100BFFCF7EAFC401BB0F5A7
:104670007A7F23D82068406810F0200FF4D020689B
:10468000416841F0100141602168380C08622168DE
:10469000B8B248622068416821F010014160FCF71F
:1046A000CFFC05462068406810F0200F0DD100BFF8
:1046B000FCF7C6FC401BB0F57A7F01D9012604E067
:1046C0002068406810F0200FF2D03046BDE8F0813D
:1046D0002DE9F0410F4604460026FCF7B1FC0546E3
:1046E0002068406810F0200F0BD100BFFCF7A8FC39
:1046F000401BB0F57A7F23D82068406810F0200F67
:10470000F4D02068416841F0100141602168380C04
:1047100088612168B8B2C8612068416821F0100141
:104720004160FCF78DFC05462068406810F0200FC2
:104730000DD100BFFCF784FC401BB0F57A7F01D996
:10474000012604E02068406810F0200FF2D03046C7
:10475000BDE8F08190F84800704701EB410100EBA3
:1047600081008089704701EB410100EB8100B0F9C5
:104770000E00704701EB410100EB8100B0F9100021
:10478000704701EB410100EB81008281704701EB32
:10479000410100EB8100C281704701EB410100EB58
:1047A000810002827047B0F90C007047B0F9040034
:1047B0007047B0F910007047B0F90C10B0F9140050
:1047C000C1EBC13191FBF0F000B2704730B4B1F9E8
:1047D0000050012490F803C000230278002DBABFD6
:1047E000694289B20988858A8D4238BF0123C58A0A
:1047F0008D4288BF0123B0F912100029BABF494287
:1048000089B2418A058B8D4228BF002B04D06245B6
:104810003CBF511CCAB202E0624538BF002262456B
:1048200008BF00240270204630BC704770B50546B2
:10483000007800280CBFAC686C68E968012904D9CD
:10484000AA69A1F10101144405E005D169884FEA84
:1048500001444FF00001E960012805D0E01704EBA6
:1048600010400014AC6070BDE01704EB104006145B
:104870006869FFF798FF301A01B22869FFF7F2F86C
:104880000104C5E9014170BD0178012918BF7047D5
:1048900000690021FFF7DDB82DE9F04104460078FA
:1048A00017460D46012660B16068C11700EB114044
:1048B000E18B0014A942A4BFB4F924108D4212DA8E
:1048C0000FE0204600F051F8E18CA94205DAB4F976
:1048D000281000268D421CDA03E0B4F928108D421E
:1048E00008DA002615E0218C8D42BCBFB4F92210F5
:1048F000A942F6DB87B16580A18B4FF47A727943C8
:10490000B1FBF2F1491C281A000490FBF1F0E160C0
:10491000A0613046BDE8F08121782804012914BF48
:10492000A06060600020E060F2E710B504464069D6
:10493000FFF739FF0004606010BD0146C28D098E8B
:1049400062F30F0061F31F407047C08B70474068EF
:10495000C11700EB114000147047B0F92C007047EC
:10496000B0F924007047406970478068C11700EBB8
:10497000114000147047C0E9041290F82A10017029
:10498000818D09044160C18D09048160002141804D
:10499000C1608161704701700021C1607047416151
:1049A00070470021C16081617047027800210B2AA5
:1049B00004D109210170002181800121084670473E
:1049C000B0F802C003784CEA010C2CEA02024280E3
:1049D000B0F804C00A2B4CEA0101818005D012B165
:1049E0000A2101700B4618467047002AFBD10B21A3
:1049F00001700B46F7E78188408841EA0040704724
:104A0000007870470021017041808180704710B5A7
:104A100002780024152A6CD2DFE802F00E1B303336
:104A2000525E636669706B6B0B21262B3D424D58BD
:104A30004800002966D05CE003291CBF01290C292D
:104A400060D0072903D000228021FFF7B9FF20465C
:104A500010BD07291CBF0D290E2953D049E00E298E
:104A600018BF07294ED044E00F2918BF072949D0A5
:104A70003FE0022918BF072944D03AE0072941D076
:104A800037E0072918BF10293CD004291CBF112981
:104A9000012937D02DE0112918BF072932D028E08D
:104AA00012291CBF072914292CD022E0122918BF73
:104AB000072927D01DE0042918BF072922D018E0B4
:104AC00013291CBF072905291CD012E004291CBF8B
:104AD0000729052916D00CE0062918BF072911D08F
:104AE00007E007290ED004E008290BD001E00929CE
:104AF00008D0032918BF0129A9D0A2E7002918BFAF
:104B00000C29F6D14FF001040170A0E710B5084C54
:104B10002078022805D1FCF799FAFDF795F90020D5
:104B20002070C0B2401C2070BDE81040FEF76CBB86
:104B3000160600200E48016841F00101016041683D
:104B40000C4A11404160016821F4102121F080716C
:104B50000160016821F480210160416821F4FE01B7
:104B600041604FF41F0181600349C0030860704732
:104B7000001002400000FFF808ED00E0084810B502
:104B8000406F8068016911F0800F05D06FF08001DF
:104B900001610348FFF7ECF8BDE81040FEF744BBA5
:104BA000E401002003496FF0010008600248FFF7AC
:104BB000C3BB0000102C0140E40100200748006A3C
:104BC000C16811F0010F1ABF016911F0010F7047A0
:104BD0006FF0010101610148FBF7C9BC940200209C
:104BE000F0B402681E4B1F4C1F4D204EDFF880C0F2
:104BF000984218BF604508D0B0F1804F18BFA0425E
:104C000003D0A84218BFB04204D14F6822F070020E
:104C100047EA0202984218BF604508D0B0F1804FC1
:104C200018BFA04203D0A84218BFB04204D1CC683C
:104C300022F4407244EA02024C6922F0800242EA05
:104C4000040202608A68C2620A688262984212BFE5
:104C50006045096901634FF001014161F0BC704793
:104C6000002C01400004004000080040000C0040FF
:104C70000034014070B4026A22F010020262026A3B
:104C80004368D0F818C00C682CF4E64C4CEA042CAD
:104C90008C6822F0200242EA0412104C104DA0420F
:104CA00018BFA84206D1CE6822F0800242EA06125E
:104CB00022F04002A04218BFA84207D14C6923F459
:104CC000406343EA84038C6943EA84034360C0F889
:104CD00018C049688163026270BC7047002C0140B3
:104CE0000034014002689368D1F804C023F07003D7
:104CF0004CEA0303D1F800C023F007034CEA030396
:104D000093604A6812F00F0F59D11211082A56D237
:104D1000DFE802F055555555122B41040068D1E9E2
:104D20000232D1F810C0816843EA0C2321F47F419C
:104D30001A431143816042E00A68052A04BF01203A
:104D400070470268136AD2F820C02CF0010CC2F838
:104D500020C00268D2F818C009692CF0F00C4CEAA7
:104D6000011191610068036229E000680B698A689B
:104D7000016AD0F820C02CF0010CC0F820C0D0F897
:104D800018C021F00A012CF0F00C4CEA0313114377
:104D90008361016213E000688A680969036A23F08D
:104DA00010030362D0F818C0036A2CF4704C4CEA6C
:104DB000013123F0A00343EA021281610262002064
:104DC000704730B4D0F820C02CF0010CC0F820C0DF
:104DD000D0F818C0046AA0F18045B5F596351CBF1F
:104DE000A0F18045B5F59A3513D0B0F1804F1CBFC6
:104DF000A0F18045B5F580650BD0A0F18045B5F5F3
:104E000000651EBFA0F18045B5F540654CF001027C
:104E100003D12CF0030C4CEA02024FF0F00C22F00C
:104E2000F0020CEA03131A4324F00A0301F00A010A
:104E300019438261016230BC7047000003490020C1
:104E40008988002908BF012070470000D405002090
:104E5000054810B50068FFF7DFF90022BDE81040F3
:104E600080210248FFF7ACBDFC0500200C060020A5
:104E70002DE9F84F4FF0000A2C48FBF7B9FA2C48FF
:104E80000068FFF770FD8346FFF790FCDFF8A49001
:104E900007466946D9F80000FEF779FE0098FDF74D
:104EA00033FD80463946FDF753FD234C064631B2AB
:104EB000B4F91000411AA9F114000068FEF7D2FD00
:104EC00060F30F05B4F91200A0EB2641A9F1100020
:104ED0000068FEF7C7FD294660F31F4109F108008D
:104EE0000068FBF7BFF905465846FFF762FC3946F4
:104EF0002846FDF76DFD83465946D9F80000FEF7B8
:104F000048FEC4F816500099E660C4E90018C4F8D9
:104F10001AB02784012805D10022012109F11000CF
:104F2000FFF74EFD5046BDE8F88F000094020020C8
:104F3000E0050020FC050020040C002038B500200E
:104F4000ADF8000069468948FBF768FA88480068B0
:104F5000FEF7C8FD8748FFF753FD132828BF38BD6B
:104F6000DFE800F00A60A1199CC4D7DFF5FF18182C
:104F7000186C7B8832414E007F48FBF707FA002807
:104F800008BF38BD00217C48FBF70BFA03217948A4
:104F9000FFF73DFD38BD7848FBF701FA58B1774877
:104FA0000068FFF72FFA142000F04EF91021714825
:104FB000FFF72DFD38BD01216F48FBF7F2F9012104
:104FC0006C48FFF724FD38BDFFF738FF002808BF05
:104FD00038BD6A4800210068FEF7B8FD1121654818
:104FE000FFF715FD38BD654801210068FEF7AEFDED
:104FF000002808BF38BD12215E48FFF708FD38BD04
:105000005A48FBF79FFA04215A48FFF700FD002891
:1050100008BF38BD0020FBF785FB58480068FFF744
:1050200028F938BD55480068FFF7ECF9142000F066
:105030000BF90D214F48FFF7EAFC38BDFFF7FEFEE4
:10504000002808BF38BD4D4800210068FEF77EFDEE
:105050000E214848FFF7DBFC38BD484801210068B5
:10506000FEF774FD002808BF38BD0F214148FFF747
:10507000CEFC38BD4249012081F824004148424914
:105080000068FFF78CFC3C48FBF78DF9022139489A
:10509000FFF7BDFC002808BF38BDBBE70521354838
:1050A000FFF7B5FC38BD3448FBF756F990B13348EB
:1050B0000068FFF7B1F8334C01212068FFF76BFC63
:1050C0002A492068FFF76BFC072104F12C00FFF749
:1050D0009EFC38BD002060F30F042A480068FFF7EB
:1050E000A5FB60F31F442648046138BD0020FBF790
:1050F0004FFB0020FBF7FCFA06211E48FFF787FC58
:1051000020480068FFF711FC20480068FDF752FBBB
:1051100038BD1E480068FDF74DFB0020FBF7E8FA9C
:1051200038BD16480068FFF777F80020FBF7FAFA59
:105130000F480068FEF79FF94FF4487000F08AF8B6
:1051400008210C48FFF763FC38BD0AE0FFE700F0D8
:1051500087F8002808BF38BD09210648FFF757FC2B
:1051600038BD00210348FFF752FC38BD94020020EF
:10517000000600200C06002010030020FC05002083
:10518000040C0020E00500205C020020DC0500206B
:1051900006480078012818BF704710B5002000F0BD
:1051A00007F8BDE81040FFF799B90000D4050020CA
:1051B000F8B504461F48006800901F4850F82400C6
:1051C000FEF786F93DF814101C4E00EA010556F86A
:1051D0002400FEF7B9FC40EA0501C84382B204EBA3
:1051E000440306F1100000EB43052846FFF7E8FBF7
:1051F0002846FFF705FC0A2806D00B2804BF56F8FE
:105200002400FEF7B3FDF8BD0D4850F82400002837
:105210001CBF0021FBF7C5F856F82400FEF7A6FDD9
:105220002046FBF77FFA074850F82400FEF723F9E1
:10523000F8BD00002C860008F8050020FC050020C1
:10524000F00500200006002001498880704700001A
:10525000D40500200149C88070470000D405002013
:1052600003490020C988002908BF012070470000B9
:10527000D405002070B5044600680169E26821F495
:105280004051114301612169A068084361690143EC
:105290002068C26822F4037222F4A0521143C16054
:1052A00020684169A26921F440711143416120687D
:1052B0003C4D3226A0F18041B1F59C3138D0FCF74D
:1052C0008BF900EBC00101EB001160688000B1FBBD
:1052D000F0F2A5FB02C2B1FBF0F352096FF0180C1B
:1052E00002FB0CF203EB820206EB0212A5FB023278
:1052F000520902F0F003B1FBF0F2A5FB02C2520921
:1053000003EB0212B1FBF0F3B1FBF0F0A5FB0010D0
:1053100040096FF01801484303EB800006EB0010D2
:10532000A5FB00102168C0F343101044886070BDD5
:10533000FCF762F900EBC00101EB0011606880002E
:10534000B1FBF0F2A5FB02C2B1FBF0F352096FF022
:10535000180C02FB0CF203EB820206EB0212A5FB17
:105360000232520902F0F003B1FBF0F2A5FB02C2D7
:10537000520903EB0212B1FBF0F3B1FBF0F0A5FB15
:10538000001040096FF01801484303EB800006EB62
:105390000010A5FB00102168C0F343101044886082
:1053A00070BD00001F85EB51002180F81C11704773
:1053B000FBF781B908B508218DF8001001236A4672
:1053C000FF2100F075F808BD38B590F81C212B4D71
:1053D0000446002A4FD094F81D31C9B28BB1002287
:1053E000012B15D094F89AC00CF1020C63451AD227
:1053F00004F19900195494F81D01401C84F81D0112
:1054000039E084F89910208A60821D4D0120F5E76B
:1054100084F89A10022084F81D01C8B2802828BFA1
:1054200084F81D2127E084F81B116282D4F8200142
:10543000144DC16821F02001C16084F81C2104F1E1
:105440009900FBF721F994F81B1188420AD1D4F88E
:1054500008C094F89A3094F8991004F19B022068DF
:10546000E04708E00A208DF8000001236A46FF218A
:10547000204600F01DF8284638BD0000F4880008DA
:10548000F6880008F888000890F81C1100291CBF55
:1054900001207047002180F81D11012180F81C11A6
:1054A000D0F82001C16841F02001C160022070479E
:1054B00010B5044690F8970000281CBF012010BDCD
:1054C00004F1160C2175581E6375C0B207D300BFD6
:1054D00012F8011B401E0CF8011BC0B2F8D204F1F7
:1054E0001400FBF7D1F884F89600002184F8981096
:1054F000012184F89710D4F82001C16841F080019F
:10550000C160022010BD90F897200146002A08BF14
:10551000704791F89820002A08BF0A7D0CD0012A14
:1055200008BF4A7D08D04B7D9B1C9A423ABF01F1CF
:105530001403D25C91F89620D0F820315A604B7D4C
:1055400091F898209B1C9A423EBF501C81F898000D
:105550007047D1F82001C26822F08002C2600020AA
:1055600081F89700D1E9000108478169002908BF47
:10557000704708474169002908BF70470847000085
:1055800070B5064C0546A06800F04BFAA84218BF5B
:1055900070BDA068BDE87040FFF7E7BF18060020A7
:1055A00070B5026A90F82C0001240F2952F820509F
:1055B0002AD2DFE801F0291915082A2A111D212510
:1055C0002929292915002846FDF764F9062804BF72
:1055D0002846FDF796F918E02846FDF75BF918B163
:1055E0002846FDF78AF910E02846FDF77BF90CE024
:1055F0002846FDF72BF908E02846FDF7D7F804E028
:105600002846FDF7CBF800E00024204670BD0000DE
:1056100010B5036A90F82C0001EB8101DFF81CC083
:1056200053F820004B000021CCFB03135911A1EBD0
:10563000E37109B2FDF7FAF8012010BD8988888866
:1056400010B5036A90F82C0053F82000FDF7F5F828
:10565000012010BD034689209A68002A08BF7047C0
:1056600018461047002070472DE9F0418446436AF0
:1056700090F82C00DCF82040012553F8203054F835
:1056800020600020002A18BF1570D04C232900F09C
:10569000728115DC232943D2DFE801F04E5358987C
:1056A0005D6A6F7492BEC3C8CDD3D8DD4242424218
:1056B0004242424242797EE2E7F183EFEE42ED0060
:1056C000022730297AD00BDCA1F124010C2927D242
:1056D000DFE801F0F5F4F3D3D2F2F1F0EFEEEDF6FE
:1056E0006E296CD010DC402900F0298107DC3D29AF
:1056F0007DD03E297CD03F2900F0168110E0412961
:1057000077D05B2967D00BE0722908BFBDE8F08134
:105710000CDC6F297BD0702904BFAD48BDE8F08157
:10572000002A1CBF00211170BDE8F081732918BF49
:105730008129F5D1BDE8F081604600F072F9BDE83D
:10574000F081986ABDE8F041FFF755B9986ABDE865
:10575000F041FFF755B93046FDF799F8C0EB00105E
:10576000800084FB00108110A1EBE070BDE8F081A7
:105770001868BDE8F041FEF75DB91868BDE8F04172
:10578000FEF753B91868BDE8F041FEF74BB9186B46
:10579000BDE8F04100F0FCBAD86ABDE8F041FDF781
:1057A000B7BE3046FDF755F8C0EB0010800084FB13
:1057B00000108110A1EBE070BDE8F0819AE021E0DB
:1057C0003046FDF759F800B2BDE8F0813046BDE83B
:1057D000F041FDF746B83046FDF743F80128BAD14D
:1057E0003046FDF74CF8C0EB0010800003E04BE0C2
:1057F00053E020E00BE084FB00108110A1EBE0708F
:10580000BDE8F0811868BDE8F041FEF716B91868E8
:10581000BDE8F041FEF70CB95868BDE8F041FEF76D
:1058200009B95868BDE8F041FEF7FFB85868BDE80F
:10583000F041FEF7F7B83046FDF71EF80014BDE85A
:10584000F0819868BDE8F041FEF7F4B89868BDE8CB
:10585000F041FEF7EAB89868BDE8F041FEF7E2B81B
:10586000D86BBDE8F041FDF713BE00216046FFF79D
:10587000F1FEBDE8F08176E071E06CE0FFE7012128
:105880006046FFF7E7FEF4E7DCF81020002AF0D0CE
:10589000BDE8F041002160461047DCF81020002AE6
:1058A000E7D0BDE8F04101216046104708E088E0FC
:1058B00083E07EE079E074E06FE06AE065E05FE05D
:1058C0009CF82C20DCF8281051F822200021B7EB9E
:1058D000127F14BFB5EB127F9969C2F30362022AEB
:1058E00014BF012AD9690029C3D0BDE8F041084698
:1058F000FEF75CBF9CF82C20DCF8281051F8222021
:105900000021B7EB127F14BFB5EB127F9969C2F388
:105910000362022A14BF012AD9690029A9D0BDE86F
:10592000F0410846FEF748BF586AFFF70EF8C0EB93
:10593000001028498000A1FB0010C00899E7586AB0
:10594000FFF70EF8C0EB0010800084FB0010811000
:10595000A1EBE0708DE73046FCF78BFF0EE03046A0
:10596000FCF787FF0FE05969002982D0BDE8F041BC
:105970000846FEF7EFBE3046FCF775FF00B278E749
:105980003046FCF770FF001473E73046FCF76EFFFB
:10599000F4E73046FCF76AFFF5E73046FCF76CFFAA
:1059A000ECE73046FCF768FFEDE73046FCF77DFF9B
:1059B000E4E73046FCF779FFE5E73046FCF771FF96
:1059C000DCE73046FCF76DFFDDE7000067666666E2
:1059D0007A84A634CDCCCCCC2DE9F0478946416AF7
:1059E00090F82C000124DDF8208051F820001E469C
:1059F00017464569002D08BF00240FD049462846A8
:105A0000FEF7ABFE388049462846FEF7ACFE3080F4
:105A100049462846FEF7AEFEA8F800002046BDE83D
:105A2000F08790F82C00704710B5FDF7E7FB18B130
:105A3000BDE81040FDF71EBCBDE81040FDF714BCEA
:105A4000DDF800C001770021C0E9082380F82C10A0
:105A5000C0F828C0704700000948418811B141884A
:105A6000491E41808188012902D98188491E81808F
:105A70000188012998BF70470188491E018070473D
:105A800018060020037F01228B4294BF002280F879
:105A90002C1010467047000001494F208880704745
:105AA0001806002001490020888070471806002051
:105AB000D0F820C090F82C0061F30F0319465CF871
:105AC000200062F31F41FCF7FEBE4368002B08BFB5
:105AD000704718472DE9F04115460246036A90F8D1
