:020000040800F2
:10000000A81100209D010008A5010008AD2A0008E4
:10001000A9010008AB010008AD01000800000000C4
:10002000000000000000000000000000AF01000818
:10003000B101000800000000B30100087961000868
:10004000B7010008B7010008B7010008B7010008B0
:10005000B7010008B7010008B7010008B7010008A0
:1000600029090008B7010008B7010008B701000816
:10007000B7010008B7010008B7010008B701000880
:10008000B7010008B701000835030008B7010008F0
:10009000B7010008B7010008B7010008B701000860
:1000A00099620008C9620008B7010008B70100089A
:1000B000B7010008E1620008B7010008B7010008B5
:1000C000B7010008B7010008B7010008B701000830
:1000D000B7010008B7010008B701000875790008EA
:1000E000B7010008B7010008B7010008B701000810
:1000F000B7010008B7010008B7010008B701000800
:10010000B7010008B7010008B7010008B7010008EF
:10011000B7010008B7010008B70100081163000823
:10012000B7010008B7010008B7010008B7010008CF
:10013000B7010008B7010008B7010008B7010008BF
:10014000B7010008B7010008B7010008B7010008AF
:10015000B7010008B7010008B7010008B70100089F
:10016000B7010008B7010008B7010008B70100088F
:10017000B7010008B7010008B7010008000000003F
:10018000B7010008B7010008DFF80CD000F094F8C0
:1001900000480047357B0008A8110020064880472A
:1001A00006480047FEE7FEE7FEE7FEE7FEE7FEE75C
:1001B000FEE7FEE7FEE7FEE77D6200088901000832
:1001C0002DE9F05F0546002092469B46884606468C
:1001D000814640241BE0284641464746224600F01F
:1001E0005AF853465A46C01A914110D31146184640
:1001F000224600F041F82D1A67EB01084F462246CF
:100200000120002100F038F817EB00094E41201EB4
:10021000A4F10104DFDC484631462A464346BDE8E6
:10022000F09F40EA01039B0703D009E008C9121FB1
:1002300008C0042AFAD203E011F8013B00F8013BA0
:10024000521EF9D27047D2B201E000F8012B491ECC
:10025000FBD270470022F6E710B513460A46044663
:100260001946FFF7F0FF204610BD421C10F8011B95
:100270000029FBD1801A7047202A04DB203A00FABB
:1002800002F1002070479140C2F1200320FA03F3ED
:10029000194390407047202A04DB203A21FA02F0EB
:1002A0000021704721FA02F3D040C2F120029140B0
:1002B0000843194670470000064C074D06E0E06809
:1002C00040F0010394E8070098471034AC42F6D39D
:1002D000FFF75EFFE8A1000808A2000870B58C18BF
:1002E00010F8015B15F0070301D110F8013B2A114A
:1002F00006D110F8012B03E010F8016B01F8016B37
:100300005B1EF9D12B0705D40023521E0DD401F832
:10031000013BFAE710F8013BCB1A921C03E013F8FB
:10032000015B01F8015B521EF9D5A142D8D3002030
:1003300070BD000010B500BF0E480068C0F380001B
:1003400058B10C48006820F00C000A49086006F01B
:10035000CFF9044606F0A2FE0BE00748006820F043
:100360000C000449C1F8000206F0C2F9044606F088
:1003700095FE10BD002001400022014055494A6809
:1003800022F440324A604A6843681A434A6002686D
:10039000526822F4807203685A60026853680269E6
:1003A00043EA022203685A600268526822F04072EF
:1003B00003685A600268526883681A4303685A6087
:1003C0000268926822F4006203689A600268926888
:1003D000C3681A4303689A603F4B826A9A4218D0F6
:1003E0000268926822F0706203689A6002689268FC
:1003F000836A1A4303689A600268926822F0405246
:1004000003689A6002689268C36A1A4303689A6034
:100410000BE00268926822F0706203689A600268DA
:10042000926822F0405203689A600268926822F053
:10043000020203689A6002689368027E43EA4202FD
:1004400003689A602022125CA2B10268526842F4EA
:10045000006203685A600268526822F460420368CE
:100460005A6002685368426A521E43EA4232036885
:100470005A6005E00268526822F4006203685A601C
:100480000268D26A22F470020368DA620268D36AF0
:10049000828B521E43EA02520368DA620268926853
:1004A00022F4007203689A600268936890F8302022
:1004B00043EA422203689A600268926822F48062EA
:1004C00003689A6002689368426943EA822203687B
:1004D0009A607047002301400100000F73B581B09E
:1004E000024602980090BDF8080010FB00F0BDF82D
:1004F0000A5015FB05010B461088404398421FD255
:100500001B0E92F8B2001B1ADDB2101D30F8154018
:10051000BDF9080000FB04F10846CD1701EB554575
:10052000ED132DB2ADF80050BDF90A0000FB04F147
:100530000846CD1701EB5545ED132DB2ADF802502D
:1005400000987EBD2DE9F0410446254695F83060BF
:1005500000223146204606F035FE00B200F5004785
:100560003A460E490E4802F0FBFA0C490C4802F0DC
:1005700015FB3120465D00223146204606F022FE62
:1005800000B200F500473A460649054802F0E8FA8D
:100590000449034802F002FBBDE8F08101001002AB
:1005A00000740040120043150246134603F1300068
:1005B000405C70470246134603F1320030F91100E7
:1005C0007047000010B504460449054802F0DDFA02
:1005D0000449034802F0D9FA10BD000001001002DE
:1005E000007400401200431510B5034603F13004B7
:1005F000625410BD10B5034603F1320424F81120F3
:1006000010BD70B504460125A08990B1A089401E97
:10061000A081A08960B9B4F91400217E90FBF1F0AB
:1006200006B23146A06800F064F90120A07300E032
:100630000025284670BD0146C87B704710B5016093
:100640004260836000248473C47310BD0146887BBC
:100650007047C173704770B5044600221146606848
:1006600007F0E5F9B4F91410606807F026FA0021E4
:10067000206805F07DFC00221146206805F0DEFBB5
:10068000E28AB4F91210206805F0D8FBE08A218ACA
:1006900000FB01F54FF47A70B5FBF0F5A581A08958
:1006A000401CA08170BDF0B501460C6A676ABCB2FF
:1006B0008F6E04FB07F21446D71702EB17473B1463
:1006C000B1F90650CB804C7814FB03F420B288803B
:1006D0005C1B26B28C6834448C60F0BD2DE9F04F71
:1006E00085B004468A46206A04904FF0000B00272C
:1006F0000120029094F875000190B94600BF04985B
:10070000406A0646B4F870800020A4F8700000BF6C
:100710000498006800F01000009008EB0900012820
:1007200002D9012084F879000098102816D1B4F875
:100730007200B04201D2012000E0002080466E34F9
:10074000A088301A08EB0901228801FB1201A27A65
:100750006E3C04F1280040F8221015E0B4F8720055
:10076000B04201D9012000E0002080466E34A0880C
:10077000301A08EB0901228801FB0201A27A6E3CC3
:1007800004F1280040F82210002706E004F12800B8
:1007900050F827008344781CC7B201988742F5DBE4
:1007A000606A00FB0BF5B4F86E0094F875104843CE
:1007B0000390039895FBF0F528B2AAF80000A089F1
:1007C000281A00B2608228B2A08194F8781004F14F
:1007D000280050F8210034F86C1F484314F86B1CB3
:1007E00000FB01F5608895FBF0F554F8500C45438B
:1007F00034F8520C95FBF0F528B224F85E0CE68034
:10080000207B401C2073207B617A6C3C884202D1A3
:10081000002084F8780094F8790030B1002002902C
:1008200084F87600E078207004E05146204605F018
:1008300070FA0290029805B0BDE8F08F002106E042
:10084000002300F1280242F821304A1CD1B290F86E
:1008500075208A42F4DC012280F876207047014638
:100860000A46B2F87000401CA2F8700000207047E1
:100870002DE9F0410446583454F8385C0020686291
:1008800000BFE08A4FF0FF31B1FBF0F02061A08A99
:1008900000EB8000400044F8340CE07F02050121A9
:1008A000284602F0C7F9E07F02051021284602F031
:1008B000C1F900BF6FF00100286100BF00BFE86808
:1008C00040F00100E86000BF00BF286840F0010070
:1008D000286000BF677F583C002606E0002104F135
:1008E000280040F82610701CC6B2BE42F6DBBDE8F8
:1008F000F08170B5046AC18045784D432DB2858082
:10090000002906DA4D4229B28DB24FF6FF76721BEE
:1009100000E08AB2B0F86E5055434FF6FF76B5FB53
:10092000F6F5ABB2636270BD10B5042005490968E5
:10093000014029B100BF0349086000BF06F081FEF5
:1009400010BD0000143C014072B600BFFEE710B5B8
:10095000014600200022A1B10C781444A2B24C78C8
:100960001444A2B2002305E08C1CE45C1444A2B23F
:100970005C1CE3B24C789C42F6DCD0B200EB222443
:10098000E0B210BD0021418201750022427580F85D
:10099000962000F8971F4170817097389A210A5469
:1009A00080F81B21002180F81C1180F81D11704770
:1009B00010B5029C18B1016042608360C46010BD34
:1009C00010B5044604EB440000EB0410114901EBA0
:1009D000400090F82400D8B90F4951F8240005F0E0
:1009E000E8F904EB440101EB04110A4A02EB41016E
:1009F000C88304EB440000EB0410114601EB4000F7
:100A0000C08B04EB440101EB041102EB41010882AD
:100A100010BD000010080020E40500203EB504468B
:100A2000002002900190009004EB440000EB0410C1
:100A30002D4901EB40000299016004EB440000EBFA
:100A40000410294901EB40000099416004EB440087
:100A500000EB0410244901EB40000199C16004EB54
:100A6000440000EB0410204901EB400001990161B2
:100A7000002004EB440101EB04111B4A02EB41018D
:100A8000C88304EB440000EB0410114601EB400066
:100A90000199C0F8161004EB440000EB0410114655
:100AA00001EB40000099C0F81A10002004EB44014B
:100AB00001EB041102EB410108840C4951F82400B8
:100AC000002103F0A5FF0A4951F82400002103F09A
:100AD0009FFF084951F8240005F0A6F9064951F88E
:100AE000240004F092F93EBD10080020EC0500201F
:100AF000F0050020E40500200006002070B586B057
:100B00002A49086805F01AFA0646304605F0EEF85C
:100B100004462749086803A904F03DF8039802F049
:100B200077FA02902146029802F0A2FA0590214A33
:100B3000B2F91020BDF91430D11A1F4A106803F021
:100B40006FFFADF810001B4AB2F91220BDF9163044
:100B5000D11A1A4A106803F063FFADF81200184961
:100B600008680499FFF7BAFC0490304605F0C2F813
:100B700024B22146049802F0D5FA01900C49086885
:100B8000019904F010F805460A480499C0F81610B7
:100B900003990160029941600599C1600199C0F80B
:100BA0001A100484284606B070BD0000E405002039
:100BB0000006002010080020EC050020F0050020B1
:100BC000100600207047000030B50246854C886949
:100BD000A04200D000BF00BF92F83C00012801D124
:100BE000022030BD012082F83C0000BF08680928BF
:100BF00016D91068C0680C780A3C04EB4405072439
:100C0000AC40A0431468E0600C780A3C04EB440458
:100C10008868A0401468E46820431468E06013E02A
:100C2000106800690C7804EB44050724AC40A0432D
:100C3000146820610C7804EB44048868A0401468B0
:100C400024692043146820611068806B20F44010F0
:100C50001468A0631068846B088A401E44EA005040
:100C60001468A0630879C01C0C7C001B00EB800496
:100C70001F20A0401468A46B844310688463087923
:100C8000C01C0C7C001B00EB8004088880B2A040D4
:100C90001468A46B20431468A063524C8869A04276
:100CA00018D01068806820F470201468A060106864
:100CB00080688C6920431468A0601068806820F404
:100CC00040101468A06010688068CC6920431468E4
:100CD000A0600BE01068806820F470201468A060A9
:100CE0001068806820F440101468A060487D30B11E
:100CF0001068406840F480601468606005E0106827
:100D0000406820F4806014686060087D30B110682D
:100D1000406840F480501468606005E010684068E6
:100D200020F48050146860604868012804D00228CC
:100D30000FD0032827D119E0106840696FF30B002A
:100D40001468606110684069CC6820431468606171
:100D500026E0106880696FF30B001468A0611068CA
:100D60008069CC6820431468A06119E01068C069EC
:100D70006FF30B001468E0611068C069CC68204311
:100D80001468E0610CE01068006A6FF30B001468EF
:100D900020621068006ACC6820431468206200BF9B
:100DA00000BF114B114C1068A04206D108681228F0
:100DB00003D1586840F4800058600C4C1068A04281
:100DC00009D10868102802D00868112803D1586892
:100DD00040F40000586000BF002082F83C0000BFD3
:100DE00000BFFEE601000F0000230140002001408B
:100DF00038B502460020009000BF92F83C00012860
:100E000001D1022038BD012082F83C0000BF0868F3
:100E1000092816D91068C0680C780A3C04EB440510
:100E20000724AC40A0431468E0600C780A3C04EB53
:100E300044048868A0401468E46820431468E060B3
:100E400013E0106800690C7804EB44050724AC40FB
:100E5000A043146820610C7804EB44048868A04027
:100E6000146824692043146820614868072817D251
:100E70001068406B0C79641E04EB84051F24AC40A1
:100E8000A04314686063088880B20C79641E04EB88
:100E90008404A0401468646B20431468606331E0EC
:100EA00048680D2817D21068006B0C79E41F04EB1A
:100EB00084051F24AC40A04314682063088880B2D6
:100EC0000C79E41F04EB8404A0401468246B2043D5
:100ED0001468206316E01068C06A0C790D3C04EBBE
:100EE00084051F24AC40A0431468E062088880B2E7
:100EF0000C790D3C04EB8404A0401468E46A2043A0
:100F00001468E062194B1A4C1068A04206D10868B8
:100F1000122803D1586840F480005860144C1068BF
:100F2000A0421CD10868102802D00868112816D1E8
:100F3000586840F400005860086810280FD10D4828
:100F400000680D4CB0FBF4F000EB80004000009016
:100F500002E00098401E009000980028F9D100BFE0
:100F6000002082F83C0000BF00BF4BE70023014097
:100F7000002001404806002040420F0070B50446A2
:100F800000250CB9012070BD1549A06A884200D027
:100F900000BF206C30B9204600F024F800206064C7
:100FA00084F83C00206C00F0100088B9206C20F41C
:100FB000885040F0020020642046FFF7DFF900204F
:100FC0006064206C20F0020040F00100206400E02A
:100FD000012500BF002084F83C0000BF2846D2E76E
:100FE0000100000F10B586B00446142101A8FFF7D8
:100FF00031F949492068884244D100BF002000905F
:101000004648006840F4807044490860084600681B
:1010100000F48070009000BF00BF00BF002000906F
:101020003E481438006840F001003C49143908601B
:101030000846006800F00100009000BF00BF00BF3C
:10104000002000900846006840F002000860084652
:10105000006800F00200009000BF00BF0220019075
:10106000032002900020039001A92D4800F0F4F81D
:101070000320019002900020039001A9294800F06C
:10108000EBF847E028492068884243D100BF0020A0
:1010900000902248006840F400702049086008462B
:1010A000006800F40070009000BF00BF00BF002087
:1010B00000901A481438006840F0010017491439AC
:1010C00008600846006800F00100009000BF00BF03
:1010D00000BF002000900846006840F00200086051
:1010E0000846006800F00200009000BF00BF022028
:1010F0000190032002900020039001A9084800F00D
:10110000ABF80320019002900020039001A905484C
:1011100000F0A2F806B010BD0020014044380240A3
:1011200000000240000402400021014070B5034667
:101130000024002500BF5879012801D1022070BD8C
:101140000120587100BF022018711868046840F629
:10115000FE7090408443D1E9000640EA060505FA96
:1011600002F004431868046018680668C0209040C4
:101170008643186806600120187100BF002058716E
:1011800000BF00BFDBE710B504460CB9012010BD5D
:10119000207920B900206071204600F009F8022073
:1011A000207100202061012020710020EFE7000065
:1011B00010B586B00446142101A8FFF74BF8194971
:1011C000206888422BD100BF00200090164800689C
:1011D00040F00050144908600846006800F00050D4
:1011E000009000BF00BF00BF002000900E481038E4
:1011F000006840F001000C4910390860084600689A
:1012000000F00100009000BF00BF302001900320DB
:1012100002900020039001A9044800F01DF806B0D8
:1012200010BD000000740040403802400000024041
:1012300070B5044600F016F906462546681C10B144
:1012400004480078054400BF00F00CF9801BA84258
:10125000FAD370BD44060020F8B502460B460025BF
:10126000002400200021DCE0012606FA01F51E68BA
:1012700006EA0504AC4273D15E68012E08D05E68B0
:10128000022E05D05E68112E02D05E68122E13D198
:1012900090684F000326BE40B0434F00DE68BE405A
:1012A00030439060506801268E40B0431E79C6F3EB
:1012B00000168E4030435060D0684F000326BE4079
:1012C000B0434F009E68BE403043D0605E68022E3F
:1012D00002D05E68122E13D1CF0802F1200656F814
:1012E00027004E07F70E0F26BE40B0434F07FF0EF4
:1012F0001E69BE403043CF0802F1200646F82700A1
:1013000010684F000326BE40B0431E7906F0030666
:101310004F00BE40304310605E6806F08056B6F164
:10132000805F7DD100BF00260096404E366846F4AF
:1013300080463E4F3E603E46366806F48046009644
:1013400000BF00BF3A4E8F0856F827008E07370FB0
:101350000F26BE40B043374EB24202D1002624E0F1
:101360005EE0354EB24201D101261EE0334EB2425C
:1013700001D1022619E0324EB24201D1032614E017
:10138000304EB24201D104260FE02F4EB24201D1BD
:1013900005260AE02D4EB24201D1062605E02C4E6C
:1013A000B24201D1072600E008268F073F0FBE405A
:1013B00030431F4E8F0846F82700264E3068A04362
:1013C0005E6806F48036B6F5803F00D12043214E9A
:1013D0003060361D3068A0435E6806F40036B6F50E
:1013E000003F00D120431B4E361D3060361D306853
:1013F000A0435E6806F48016B6F5801F00D1204336
:10140000144E08363060361D3068A0435E6806F41E
:101410000016B6F5001F00D120430E4E0C3630608A
:10142000491C1029FFF420AFF8BD000044380240E9
:101430000838014000000240000402400008024059
:10144000000C02400010024000140240001802404C
:10145000001C0240003C01400AB1816101E00B0424
:101460008361704701480068704700003C06002017
:101470000348006803490978084401490860704737
:101480003C0600204406002010B50D48006840F4DA
:1014900000700B4908600846006840F480600860EE
:1014A0000846006840F480700860032000F0A6F849
:1014B000042000F007F800F02BF8002010BD000019
:1014C000003C024070B504460E4800784FF47A7133
:1014D000B1FBF0F00C490968B1FBF0F5284600F0CB
:1014E000A9FE08B1012070BD102C07D200222146B0
:1014F000501E00F045F80548046001E00120F2E7C5
:101500000020F0E7440600204806002040060020A6
:1015100008B500BF002000901048006840F48040EB
:101520000E4908600846006800F48040009000BF43
:1015300000BF00BF00200090081F006840F08050EE
:10154000091F08600846006800F08050009000BF46
:1015500000BF042000F052F808BD000044380240EB
:1015600001460846002809DB00F01F0301229A40CB
:1015700043099B0003F1E023C3F8002100BF70473B
:101580002DE9F05F80460D461646002706F0A6FAC4
:10159000074639462A46334601F00700C0F1070ADC
:1015A000BAF1040F02D94FF0040A01E0C0F1070AB2
:1015B000D14600F1040ABAF1070F02D24FF0000A37
:1015C00001E0A0F1030AD4464FF0010A0AFA09FA31
:1015D000AAF1010A0AEA020A0AFA0CFA4FF0010B10
:1015E0000BFA0CFBABF1010B0BEA030B4AEA0B0401
:1015F0002146404606F07AFABDE8F09F00BF00F0B1
:101600000702064B19684FF6FF031940044B0B43C2
:1016100043EA0221014B196000BF70470CED00E066
:101620000000FA05F8B5044600250026207800F0F1
:10163000010020B9207800F0040004282FD10020F8
:101640005B498866FFF70EFF054606E0FFF70AFFD5
:10165000401B022801D90320F8BD56480068C0F39A
:10166000C0600028F2D160688101207A41EA0070F0
:1016700050498431086001204D498866FFF7F2FE29
:10168000054606E0FFF7EEFE401B022801D90320C5
:10169000E2E748480068C0F3C0600028F2D0207834
:1016A00000F0020002287DD100BF002000904148D8
:1016B0004030006840F080503E49403108600846A4
:1016C000006800F08050009000BF00BF3A480068FA
:1016D00040F4807038490860FFF7C4FE054606E014
:1016E000FFF7C0FE401B022801D90320B4E73248AF
:1016F000006800F480700028F2D02E487030006836
:1017000000F440764EB3A08900F44070B04224D07B
:1017100028487030006820F440760120274908608E
:1017200000200860234870300660006800F0010067
:1017300098B1FFF797FE054608E0FFF793FE401BC0
:1017400041F28831884201D9032085E71948703079
:101750000068C0F340000028EFD000BFA08900F46B
:101760004070B0F5407F0CD112480830006820F47A
:10177000F810134AE168114008430E490831086027
:1017800007E00C480830006820F4F81009490831D7
:101790000860084870300068A189C1F30B01084354
:1017A000044900E002E07031086000BF002053E708
:1017B000000047420038024000700040400E47429F
:1017C000FFFCFF0F70B504460D460CB9012070BD3B
:1017D0005848006800F00F00A84209D255490D7022
:1017E0000846006800F00F00A84201D00120EEE793
:1017F000207800F0020002281DD1207800F00400BB
:10180000042805D14C48006840F4E0504A4908607B
:10181000207800F00800082805D14748006840F407
:101820006040454908604448006820F0F000A16825
:10183000084341490860207800F00100A8B36068BF
:10184000012807D13C4808380068C0F34040B8B9C7
:101850000120BCE76068022802D06068032807D135
:10186000354808380068C0F3406048B90120AEE749
:10187000314808380068C0F3400008B90120A6E7E5
:101880002D48006820F00300616808432A49086079
:10189000FFF7E8FD064609E0FFF7E4FD801B41F293
:1018A0008831884202D9032091E707E02248006886
:1018B00000F00C006168B0EB810FEDD11D480068AD
:1018C00000F00F00A84209D91A490D7008460068B7
:1018D00000F00F00A84201D0012078E7207800F046
:1018E0000400042807D11448006820F4E050E1689F
:1018F000084311490860207800F00800082808D142
:101900000D48006820F46040216940EAC1000A499E
:10191000086000F045F808490968C1F30311074A57
:10192000515CC8400649086006480068FFF7CAFDD8
:1019300000204CE7003C024008380240F0A00008BC
:10194000480600204006002001200149C864704775
:101950000000474201480068704700004806002028
:1019600000B5FFF7F7FF04490968C1F38221034A74
:10197000515CC84000BD00000838024000A10008CA
:1019800000B5FFF7E7FF04490968C1F34231034A94
:10199000515CC84000BD00000838024000A10008AA
:1019A0002DE9F047002400250026A14625480068BF
:1019B00000F00C0020B1042805D008283AD105E039
:1019C000DFF8849039E0DFF8849036E01D48001F8E
:1019D000006800F03F041B48001F006800F480000E
:1019E00078B11A481749091F0968C1F38811A0FB8B
:1019F00001700146224600233846FEF7E1FB05460A
:101A00000EE011480F49091F0968C1F38811A0FBB6
:101A100001700146224600233846FEF7D1FB0546F9
:101A20000848001F0068C0F30140401C4600B5FB99
:101A3000F6F902E0DFF8109000BF00BF4846BDE8AD
:101A4000F0870000083802400024F40000127A00F9
:101A5000F8B504460CB90120F8BD207800F001006B
:101A6000002874D0F948006800F00C0004280DD05C
:101A7000F648006800F00C00082813D1F348001F56
:101A8000006800F48000B0F5800F0BD1EF480838F3
:101A90000068C0F34040002859D06068002856D143
:101AA0000120D9E700BF6068B0F5803F08D1E74862
:101AB0000838006840F48030E449083908601EE0C6
:101AC0006068B0F5A02F0DD1E0480838006840F4F8
:101AD0008020DE49083908600846006840F48030FC
:101AE00008600CE0D9480838006820F48030D749F5
:101AF000083908600846006820F48020086000BFAC
:101B0000606890B1FFF7AEFC054606E0FFF7AAFC5F
:101B1000401B642801D903209EE7CC4808380068A0
:101B2000C0F340400028F1D011E0FFF79BFC0546D0
:101B300006E0FFF797FC401B642801D903208BE7E0
:101B4000C24808380068C0F340400028F1D120782E
:101B500000F0020002285FD1BC48006800F00C00D1
:101B600058B1BA48006800F00C0008281CD1B748EA
:101B7000001F006800F48000B0B9B448083800685D
:101B8000C0F3400020B1E068012801D0012063E7E4
:101B9000AE480838006820F0F800216940EAC1002A
:101BA000AA490839086037E0E06800B30120A84975
:101BB0000860FFF757FC054606E0FFF753FC401BA3
:101BC000022801D9032047E7A04808380068C0F37D
:101BD00040000028F1D09D480838006820F0F80047
:101BE000216940EAC10099490839086014E00020E1
:101BF00097490860FFF736FC054606E0FFF732FC20
:101C0000401B022801D9032026E7904808380068C5
:101C1000C0F340000028F1D1207800F00800082827
:101C20002CD16069A8B101208A490860FFF71AFC2D
:101C3000054606E0FFF716FC401B022801D90320E9
:101C40000AE782486C300068C0F340000028F1D0F9
:101C500014E000207F490860FFF704FC054606E019
:101C6000FFF700FC401B022801D90320F4E6774867
:101C70006C300068C0F340000028F1D1207800F0FB
:101C80000400042870D1002770483830006800F044
:101C9000805090B900BF002000906C483830006838
:101CA00040F080506949383108600846006800F00B
:101CB0008050009000BF00BF01276748006800F413
:101CC0008070B0B96448006840F480706249086070
:101CD000FFF7C8FB054606E0FFF7C4FB401B0228E0
:101CE00001D90320B8E65C48006800F48070002841
:101CF000F2D000BFA068012808D1544868300068BD
:101D000040F001005149683108601DE0A0680528D5
:101D10000DD14E486830006840F004004B496831EE
:101D200008600846006840F0010008600CE0474881
:101D30006830006820F001004449683108600846B6
:101D4000006820F00400086000BFA068A8B1FFF799
:101D500089FB054609E0FFF785FB401B41F288310E
:101D6000884202D9032077E626E0384868300068C8
:101D7000C0F340000028EED013E0FFF773FB0546E8
:101D800008E0FFF76FFB401B41F28831884201D920
:101D9000032061E62D4868300068C0F34000002849
:101DA000EFD1012F07D129483830006820F080504A
:101DB00026493831086000BFA069002845D0234873
:101DC000006800F00C0008285DD0A069022845D109
:101DD00000201F490866FFF745FB054606E0FFF7B0
:101DE00041FB401B022801D9032035E6174808387B
:101DF0000068C0F340600028F1D1D4E9070108432E
:101E0000616A40EA81110122A06AC2EB500041EAF6
:101E100000412C20005D41EA00600C49091F086068
:101E200001200B490866FFF71DFB054606E0FFF79A
:101E300019FB401B022801D903200DE6034808388E
:101E40000068C0F340600028F1D03FE0083802404D
:101E500000004742800E47420070004000201C49AD
:101E60000866FFF7FFFA054606E0FFF7FBFA401B9E
:101E7000022801D90320EFE516480068C0F340604E
:101E80000028F2D122E0A069012800D1E4E5114840
:101E9000001D066806F48001E069814214D106F055
:101EA0003F01206A81420FD147F6C0703040616A1D
:101EB000884209D106F44031A06A814204D106F07B
:101EC0007061E06A814201D00120C5E50020C3E5D0
:101ED000000047420038024010B504460CB901200A
:101EE00010BD607F20B900202077204600F060F808
:101EF0000220607700BFCA20216848625320216811
:101F0000486200BF204603F094FE40B100BFFF20AE
:101F10002168486200BF042060770120E0E7206864
:101F20008068224908402168886021696068084308
:101F300061690843216889680843216888602168CD
:101F4000E068086120680169208941EA0040216851
:101F500008612068C06820F080002168C86020689F
:101F6000806800F0200060B9204600F045F940B1DB
:101F700000BFFF202168486200BF04206077012075
:101F8000AEE72068006C20F4802021680864206897
:101F9000006CA16908432168086400BFFF20216824
:101FA000486200BF01206077002099E7BFFF8FFFE4
:101FB000034A0168914202D10121024A116070472F
:101FC000002800403C0E47422DE9F04104460D46F2
:101FD0001646002700BF207F012802D10220BDE85D
:101FE000F0810120207700BF022060774EB9687829
:101FF00000F01000102804D1687800F0EF000A30DB
:10200000687086B9E87803F007FE0304687803F087
:1020100003FE43EA0023A87803F0FEFD034328787B
:1020200043EA403709E0E8780004697840EA012093
:10203000A9780843297840EA413700BFCA202168BF
:10204000486253202168486200BF204603F0F1FD3A
:1020500060B100BFFF202168486200BF04206077A4
:1020600000BF0020207700BF0120B8E716483840A5
:10207000216848602068C06820F080002168C8603E
:102080002068806800F0200080B9204600F0B4F895
:1020900060B100BFFF202168486200BF0420607764
:1020A00000BF0020207700BF012098E700BFFF207D
:1020B0002168486200BF0120607700BF00202077C0
:1020C00000BF00BF8BE700003FFFFF002DE9F0419C
:1020D00004460D461646002700BF207F012802D186
:1020E0000220BDE8F0810120207700BF0220607748
:1020F000CEB92068806800F0400000B102E0002006
:10210000E87000BF287803F087FD0304687803F0C7
:1021100083FD43EA0023A87803F07EFD0343E878BB
:1021200043EA004712E02068806800F0400000B1F8
:1021300002E00020E87000BF28780004697840EAD7
:102140000120A9780843E97840EA014700BFCA2086
:102150002168486253202168486200BF204603F08E
:1021600068FD60B100BFFF202168486200BF042005
:10217000607700BF0020207700BF0120B1E71D4835
:102180003840216808602068806820F48020216839
:102190008860D5E9030108432168896808432168FC
:1021A00088602068C06820F080002168C8602068CE
:1021B000806800F0200080B9204600F01DF860B172
:1021C00000BFFF202168486200BF0420607700BF85
:1021D0000020207700BF012083E700BFFF20216897
:1021E000486200BF0120607700BF0020207700BF59
:1021F00000BF76E77F7F7F0070B50446002520682A
:10220000C06820F0A0002168C860FFF72BF90546E0
:1022100007E0FFF727F9401BB0F57A7F01D90320CB
:1022200070BD2068C06800F020000028F1D00020B8
:10223000F6E7704770B504462546681EB0F1807F0A
:1022400001D301200FE0681E4FF0E02148610F210B
:102250004FF0FF3005F04AFC00204FF0E02188618C
:1022600007200861002070BD10B5FFF7E2FF10BD28
:102270007047704710B50346002200BF93F83C003A
:10228000012801D1022010BD012083F83C0000BFCD
:1022900022F0FF00CC6840EA040222F440708C680F
:1022A00040EA040222F480604C6840EA040222F40E
:1022B00000600C6840EA040222F480500C6940EA95
:1022C000040222F400504C6940EA040222F48040E7
:1022D000CC6940EA04021868426400BF002083F819
:1022E0003C0000BF00BFCEE730B502460B4600BF42
:1022F00092F83C00012801D1022030BD012082F873
:102300003C0000BF022082F83D001068446810685D
:10231000816824F070041868044310684460184D04
:102320001068A8421BD01068B0F1804F17D0154D2F
:102330001068A84213D0144D1068A8420FD0134D56
:102340001068A8420BD0124D1068A84207D0114D5A
:102350001068A84203D0104D1068A84205D121F0A2
:1023600080015868014310688160012082F83D00B7
:1023700000BF002082F83C0000BF00BFBDE70000A6
:10238000000001400004004000080040000C004034
:1023900000040140004001400018004010B5044610
:1023A0000CB9012010BD94F83D0028B9002084F834
:1023B0003C00204600F00CF8022084F83D00211D6E
:1023C000206803F0ADFF012084F83D000020E9E71C
:1023D00010B586B00446142101A8FDF73BFF2A4939
:1023E0002068884230D100BF002000902748006854
:1023F00040F00100254908600846006800F001002F
:10240000009000BF00BF00BF002000901F4814389C
:10241000006840F002001D49143908600846006851
:1024200000F00200009000BF00BF8814019002205D
:10243000029001200390002004900120059001A942
:102440001348FEF709FF1DE012492068884219D1A0
:1024500000BF002000900D48001F006840F02000E1
:102460000A49091F08600846006800F02000009033
:1024700000BF00BF002211463720FFF781F8372048
:10248000FFF76EF806B010BD00000140443802406E
:1024900000040240001400402DE9F04104460D46BE
:1024A00014B90120BDE8F08194F83D0028B900205E
:1024B00084F83C00204600F047F8022084F83D00F4
:1024C0002068806844F20701884321688860211DE4
:1024D000206803F025FF2068D0F80880206886690E
:1024E0002068076A286840EA080840F203308643FB
:1024F000A969A86840EA0120064340F60C408643DB
:102500004FF2F0008643E969E86840EA012006439B
:1025100028690001296A40EA0130064327F02207B2
:1025200027F088076969686840EA01100743206856
:10253000C0F808802068866120680762012084F85E
:102540003D000020AEE7000010B586B0044614211F
:1025500001A8FDF77FFE1A49206888422ED100BFEE
:10256000002000901748006840F0020015490860FC
:102570000846006800F00200009000BF00BF00BFE6
:10258000002000900F481038006840F001000D490D
:10259000103908600846006800F00100009000BF94
:1025A00000BFC02001900220029000200390049000
:1025B0000220059001A90448FEF74EFE06B010BDAA
:1025C000000400404038024000000240704710B54F
:1025D000044620680069C0F34000D8B12068C06894
:1025E000C0F34000B0B16FF0020021680861012023
:1025F00020772068806900F0030018B12046FFF7BB
:10260000E5FF05E0204600F0FBF8204600F098F9D1
:102610000020207720680069C0F38000D8B12068CE
:10262000C068C0F38000B0B16FF004002168086199
:10263000022020772068806900F4407018B120469D
:10264000FFF7C4FF05E0204600F0DAF8204600F06E
:1026500077F90020207720680069C0F3C000D8B166
:102660002068C068C0F3C000B0B16FF008002168F6
:102670000861042020772068C06900F0030018B1C9
:102680002046FFF7A3FF05E0204600F0B9F82046FA
:1026900000F056F90020207720680069C0F3001090
:1026A000D8B12068C068C0F30010B0B16FF010005E
:1026B00021680861082020772068C06900F4407014
:1026C00018B12046FFF782FF05E0204600F098F899
:1026D000204600F035F9002020772068006900F0DE
:1026E000010058B12068C06800F0010030B16FF0FF
:1026F000010021680861204600F023F92068006984
:10270000C0F3C01058B12068C068C0F3C01030B129
:102710006FF08000216808612046FFF7A9FD20685E
:102720000069C0F3801058B12068C068C0F3801001
:1027300030B16FF0400021680861204600F038F9A0
:1027400020680069C0F3401058B12068C068C0F329
:10275000401030B16FF02000216808612046FFF77B
:1027600088FD10BD10B586B00446142101A8FDF700
:1027700071FD1F492068884238D100BF00200090B9
:102780001C48006840F001001A49086008460068CB
:1027900000F00100009000BF00BF00BF00200090CB
:1027A0000846006840F0020008600846006800F033
:1027B0000200009000BF00BF4FF4E06001900220D3
:1027C0000290039004900120059001A90A48FEF7A9
:1027D00043FD4FF46040019002200290039004906A
:1027E0000120059001A90548FEF736FD06B010BD91
:1027F0000000014030380240000002400004024066
:10280000704770B504460D46164600BF94F83C006C
:10281000012801D1022070BD012084F83C0000BFD6
:10282000022084F83D0036B1042E1BD0082E31D092
:102830000C2E5ED145E02946206803F0E9FD2068B2
:10284000806940F00800216888612068806920F074
:10285000040021688861206880692969084321682B
:10286000886147E02946206803F00AFE20688069F5
:1028700040F40060216888612068806920F48060ED
:102880002168886120688069296940EA01202168FF
:1028900088612FE02946206803F030FE2068C06977
:1028A00040F008002168C8612068C06920F0040079
:1028B0002168C8612068C069296908432168C86126
:1028C00018E02946206803F055FE2068C06940F4EE
:1028D00000602168C8612068C06920F480602168B8
:1028E000C8612068C069296940EA01202168C8617F
:1028F00000E000BF00BF012084F83D0000BF0020C1
:1029000084F83C0000BF00BF85E710B504460CB951
:10291000012010BD94F83D0028B9002084F83C0047
:10292000204600F00CF8022084F83D00211D2068AC
:1029300003F0F6FC012084F83D000020E9E7704731
:102940007047704770B504460D4600BF94F83C00D0
:10295000012801D1022070BD012084F83C0000BF95
:10296000022084F83D002946204603F02DFE48B1A0
:10297000012084F83D0000BF002084F83C0000BF27
:102980000120E8E72068C06820F040002168C860A6
:102990002068C06820F480402168C860012084F865
:1029A0003D0000BF002084F83C0000BF00BFD2E71C
:1029B000704710B504460CB9012010BDA06900B1E4
:1029C00000E000BF94F8390028B9002084F83800EE
:1029D000204600F027F8242084F839002068C068D9
:1029E00020F400502168C860204604F037F82068C1
:1029F000006920F49040216808612068406920F057
:102A00002A00216848612068C06840F400502168AD
:102A1000C8600020E063202084F8390084F83A0080
:102A20000020CAE710B586B00446142101A8FDF7BE
:102A300011FC1B49206888422FD100BF0020009064
:102A40001848006840F4802016490860084600686D
:102A500000F48020009000BF00BF00BF0020009065
:102A600010481038006840F002000E491039086024
:102A70000846006800F00200009000BF00BF4FF45D
:102A800040600190022002900020039004900720F3
:102A9000059001A90448FEF7DFFB06B010BD000059
:102AA00000480040403802400004024003F010FE9D
:102AB00032E01A49D1F8200100F0A8F948B11748CE
:102AC00004F0CAF91549D1F8200100F097F904F093
:102AD000FFFD1249D1F8200100F0A2F910B10F4812
:102AE00004F089FA0D49D1F8200100F094F998B169
:102AF0000A49D1F8200100F098F90546294607480F
:102B000004F0B6F90488012C01D104F0DBFD022C9D
:102B100001D104F0DDFD00BFCBE700009C040020E4
:102B2000816841F0010181607047826B22F440129C
:102B30000A4382637047826822F4702201F4702392
:102B40001A438260704782680A43826070478168D6
:102B500021F44011816070470146C86C80B2704713
:102B600030B501F470044FF4700595FAA5F5B5FA87
:102B700085F5EC4000F1080505EB84031C684FF671
:102B8000F075AC4314431C6030BD10B5026801F011
:102B900010040123A3401A43026010BD426801F0F3
:102BA00003031A43426070470249C9680143014A5E
:102BB000D1607047002004E008B541F48032C26162
:102BC000C16141F48032C261C269009200BF08BD98
:102BD0000A048261704781617047026A8A43026217
:102BE0007047026A0A43026270470246106A084050
:102BF000884201D1012070470020FCE76FF00101FD
:102C0000016170476FF0010101617047416C41F44F
:102C1000004141647047C16841F00101C1607047E3
:102C2000416941F0010141617047416941F0010191
:102C300041617047F0B503461446012901D10025D2
:102C400016E0042901D1012512E0102901D1022545
:102C50000EE0402901D103250AE0B1F5807F01D1C2
:102C6000042505E0B1F5806F01D1052500E00625BA
:102C70002846094D2E5C03F1180572191568074E98
:102C8000375CF026BE40B543260C044F3F5CBE4087
:102C900035431560F0BD000008A1000816A100082A
:102CA0000146086900F001007047000070B5024657
:102CB000012901D1002416E0042901D1012412E0E8
:102CC000102901D102240EE0402901D103240AE099
:102CD000B1F5807F01D1042405E0B1F5806F01D109
:102CE000052400E006242346064CE55C02F11804A6
:102CF00028190468044DEE5C0825B540AC43046017
:102D000070BD000033A100083AA1000870B502466A
:102D1000012901D1002416E0042901D1012412E087
:102D2000102901D102240EE0402901D103240AE038
:102D3000B1F5807F01D1042405E0B1F5806F01D1A8
:102D4000052400E006242346064CE55C02F1180445
:102D500028190468044DEE5C0825B5402C43046036
:102D600070BD000033A100083AA10008416370471C
:102D700081637047C163704701647047F0B50346D3
:102D80001446012901D1002516E0042901D10125AD
:102D900012E0102901D102250EE0402901D10325BE
:102DA0000AE0B1F5807F01D1042505E0B1F5806F1F
:102DB00001D1052500E006252846094D2E5C03F1CA
:102DC000180572191568074E375C7326BE40B54367
:102DD000044E365C04FA06F635431560F0BD00007B
:102DE00033A100083AA100084162704701637047AF
:102DF000426822F070020A434260704708B50168D9
:102E0000009100BF4168009100BF08BD01460868FD
:102E1000C0F3C000704701460868C0F34010704717
:102E200001460868C0F3C010704701464868C0B248
:102E3000704738B50446606803F064F80090A068F5
:102E40000099016138BD10B504460121206803F0E6
:102E5000CAF810BD70B50446002C3ED0207E012873
:102E60003BD10025207B012804D0022812D0032862
:102E70002AD11FE00020A16881F8240001216068A8
:102E800003F076F8E28AB4F90E10606802F0D6FF1B
:102E900005461AE00020A16881F82400002160683E
:102EA00003F066F8E28AB4F91010606802F0C6FF19
:102EB00005460AE00120A16881F82400A068D4F842
:102EC00012100161012500E000BF00BF15B1022012
:102ED000207601E00320207600BF70BD012303733C
:102EE000C181C28203764376704702230373018255
:102EF000C2820123037600234376704710B504464F
:102F0000206803F03FF810BD70B50446606803F018
:102F100015F80546284602F0E5FE70BD0146487EDC
:102F2000704708B5014688680068009008BD08B57C
:102F3000014688684068009008BD08B50146886869
:102F4000C068009008BD08B5014688680069009017
:102F500008BD014600200A7B012A01D1B1F90E000B
:102F6000704710B50446606802F0D9FF10BD10B577
:102F70000446206803F02FF810BD01468868B0F9B8
:102F80001E00704708B501468868D0F81A00009006
:102F900008BD08B501468868D0F81600009008BD45
:102FA00010B501604260836000240473C481048210
:102FB000C482047610BD03B503210173BDF804106B
:102FC0004182BDF8062082820121017600214176EE
:102FD0000CBD8268518282689182704770B5044648
:102FE0000321206802F0FFFF05460DB10120207685
:102FF000284670BD10B504460721206802F0F3FF93
:1030000010BD10B50446606802F0B8FF10BD0000A6
:1030100031B581B0BDF80400ADF80000BDF8040082
:1030200044F6E61510FB05F4BDF8060010FB05F3A9
:103030006042C01AC01AC213B2F5004F02DB47F655
:10304000FF7105E012F5004F01DA084900E011B206
:10305000ADF80210BDF9020010F5004F03D148F29F
:103060000100ADF8020000983CBD00000080FFFFA9
:103070002DE9F34782B00E46304600F083F8009009
:10308000BDF80800BDF8001010FB01F9BDF80A00FA
:10309000BDF8021010FB01FAA9EB0A00C413B4F545
:1030A000004F02DB47F6FF7505E014F5004F01DA2B
:1030B0001B4D00E025B2ADF80450BDF9040010F539
:1030C000004F03D148F20100ADF80400BDF808003C
:1030D000BDF8021010FB01F7BDF80A00BDF80010A2
:1030E00010FB01F807EB0800C413B4F5004F02DB36
:1030F00047F6FF7505E014F5004F01DA084D00E0D2
:1031000025B2ADF80650BDF9060010F5004F03D109
:1031100048F20100ADF80600019804B0BDE8F08760
:103120000080FFFF2DE9F34182B00C46204600F0FD
:1031300029F80190BDF80800BDF8041010FB01F556
:10314000BDF80A00BDF8061010FB01F6A819C0135F
:1031500000B2ADF80000BDF80800BDF8061010FB85
:1031600001F7BDF80A00BDF8041010FB01F8A8EB48
:103170000700C01300B2ADF80200009804B0BDE82B
:10318000F081000018B5024602F5004399B20846E6
:10319000CC1701EB9464A11101F4407038B3B0F581
:1031A000807F36D0B0F5007F03D0B0F5407F40D1AE
:1031B0000DE0C8B2214C34F81000ADF80200C8B2DE
:1031C000C0F1FF0034F81000ADF8000032E0C8B2E2
:1031D000C0F1FF00194C34F81000ADF80200C8B27D
:1031E00034F81000404200B2ADF8000022E0C8B24E
:1031F000124C34F81000404200B2ADF80200C8B2E0
:10320000C0F1FF0034F81000404200B2ADF80000F9
:1032100010E0C8B2C0F1FF00084C34F81000404282
:1032200000B2ADF80200C8B234F81000ADF80000EA
:1032300000E000BF00BF009818BD00002A80000811
:103240002DE9F84F04460D4616461F46DDE90B9A58
:10325000DDF828802563C4F8C490C4F8C0A00848ED
:10326000084B094A214600902846FDF7A1FB6663FA
:10327000A763C4F83C80204600F061FCBDE8F88FED
:103280008D32000899320008293B000810B5044629
:10329000204600F054FC10BD2DE9F04F8BB00446E1
:1032A0000F461546994601200A90002009904FEAE2
:1032B0005718B8F1000F16D0A8F1010200212046DE
:1032C00004F02AFA60B107F01F07D4F8C40050B127
:1032D000A8F101020021D4F8C40004F01DFA02E0B4
:1032E00000270B200890132F7CD2DFE807F0F20AAA
:1032F000F3F07B7BEFEEEDECEBEAE9E87B7B7B7BAD
:10330000E7002E7805200890472E6CD028DC0F2E81
:103310006AD00BDC0F2E68D2DFE806F055CBCB6805
:10332000CB8586878388898A848B8C00172E6ED004
:1033300009DCA6F110000728EDD2DFE800F09D9E21
:10334000BABA7D7E7F001D2E62D004DC182E77D0A5
:103350001C2E4AD152E0412E73D0462EF9D18DE079
:10336000652E79D01EDC572E71D00EDC542E6BD01A
:1033700006DC482E7ED04F2E64D0532EE9D162E079
:10338000552E62D0562EE4D160E05B2E79D004DC5D
:10339000582E5DD0592EDCD15BE0612E5AD0642EC0
:1033A000D7D158E0A6F174001528B4D2DFE800F0B8
:1033B0001F6A6B6C6D6E8181816F708181818181EB
:1033C00081815556570095F801A052463146D4F8F0
:1033D000C40004F0A1F952463146204604F09CF99D
:1033E000099069E084E34AE025E062E000BF6A7882
:1033F0003146204604F090F909905DE06A7800219A
:10340000D4F8C40004F07CF90120099054E016E0DF
:103410006A780121D4F8C40004F072F901200990FF
:103420004AE000BF00BF00BF00BF00BF00BF00BF39
:1034300000BF00BF00BF00BF00BF00BF00BF00BF94
:1034400000BF00BF00BF00BF00BF00BF00BF00BF84
:1034500000BF00BF00BF00BF00BF00BF00BF687853
:10346000A97800EB012A52463146204604F054F96F
:10347000099021E004E004E000BF00BF00BF00BFEE
:1034800000BF00BF00BF00BF00BF00BF00BF00BF44
:103490006878A97800EB0120E97800EB01402979F0
:1034A00000EB016A52463146204604F035F9099096
:1034B00002E00220089000BF00BF1CE352E252E28B
:1034C000F4E2DCE2C8E29CE264E235E2FEE1F4E12F
:1034D00000E00CE32E7803200890892E00D200E053
:1034E000E6E1B00078444068874400002402000010
:1034F00044030000260200002802000046030000EA
:10350000B0020000B4020000B8020000BA020000DD
:10351000BC020000BE020000C0020000C2020000A7
:10352000C4020000C6020000C8020000CA02000077
:10353000CC020000CE020000D0020000D402000045
:10354000D2020000D6020000D8020000DA02000019
:10355000DC020000DE020000E00200006002000069
:103560008A02000048030000E2020000E4020000BA
:10357000E60200002A020000C4030000C4030000A9
:10358000C4030000C4030000C4030000C40300001F
:10359000C4030000C4030000C4030000C40300000F
:1035A000C4030000C4030000C4030000C4030000FF
:1035B000C4030000C4030000C4030000C4030000EF
:1035C000C4030000C4030000C4030000C4030000DF
:1035D000C4030000C4030000C4030000C4030000CF
:1035E000C4030000C4030000C4030000C4030000BF
:1035F000E8020000C4030000C4030000C40300008C
:10360000C40300004A0300004C0300004E03000006
:10361000EA020000EC020000EE020000F0020000EE
:103620002C02000050030000F2020000F40200002F
:10363000F6020000F8020000FA020000FC0200009E
:10364000FE0200000003000002030000040300006B
:10365000060300002E02000052030000C403000015
:10366000080300000A0300000C0300000E03000022
:1036700010030000C4030000C40300001203000094
:103680001403000030020000320200005403000066
:1036900056030000580300005A0300005C030000BA
:1036A00034020000B2020000B60200007403000001
:1036B000C4030000160300001803000036020000D7
:1036C0005E0300006003000062030000640300006A
:1036D00066030000680300006A0300006C0300003A
:1036E0006E03000070030000720300003802000047
:1036F000C40300003A0200009A0300009C0300008B
:103700009E0300001A0300001C0300001E030000BB
:1037100000BF00BF00BF00BF00BF00BF00BF00BFB1
:1037200000BF00BF00BF09AA3146204603F04AFD92
:1037300007909DF82400012807D1012307AAF02152
:10374000D4E90C0CE04700200A90B4E0D4F8C4009F
:1037500080B10021D4F8C40003F024FD07900123B8
:1037600007AAF021D4E90C0CE047012009900020C1
:103770000A9000BF9FE0D4F8C40070B10121D4F8D2
:10378000C40003F00FFD0790012307AAF021D4E93C
:103790000C0CE0470120099000BF8CE000BF00BF87
:1037A00000BF00BF00BF00BF00BF00BF00BF00BF21
:1037B00000BF00BF00BF00BF00BF00BF00BF00BF11
:1037C00000BF00BF00BF00BF00BF00BF00BF00BF01
:1037D00000BF00BF00BF00BF00BF00BF00BF00BFF1
:1037E00000BF00BF00BF00BF00BF00BF00BF00BFE1
:1037F00000BF00BF00BF00BF00BF00BF00BF00BFD1
:1038000000BF00BF00BF00BF00BF09AA314620466D
:1038100003F0D8FC07909DF82400012807D102236B
:1038200007AAF021D4E90C0CE04700200A9042E0FE
:1038300000BF00BF00BF00BF00BF00BF00BF00BF90
:1038400000BF00BF00BF00BF00BF00BF00BF00BF80
:1038500000BF00BF00BF00BF00BF00BF00BF00BF70
:1038600009AA3146204603F0ADFC07909DF82400DC
:10387000012807D1042307AAF021D4E90C0CE04762
:1038800000200A9017E000BF00BF09AA3146204679
:1038900003F098FC07909DF82400012807D1042329
:1038A00007AAF021D4E90C0CE04700200A9002E0BE
:1038B0000320089000BF00BF1DE12E78072008906C
:1038C0003146204603F0FAFB099014E1002604E09B
:1038D00000200DF80600701CC6B2202EF8DB002672
:1038E00007E0D4F8C000815DF01C0DF80010701CDA
:1038F000C6B21D2E04DAD4F8C000805D0928F0D1CC
:10390000701DD4F8C010085C8DF80000F01DD4F8CC
:10391000C010085C8DF8010006F10900D4F8C01051
:10392000085C8DF8020020236A46F021D4E90C0CD3
:10393000E04701200990DEE02879697900EB012059
:1039400086B22878697800EB0120A97800EB014065
:10395000E97800EB016A32465146204603F0F6FB57
:103960000990C8E0C7E02879697900EB012086B2A8
:103970002878697800EB0120A97800EB0140E9780C
:1039800000EB016A32460FFA8AF1204603F0F8FB99
:103990000990B0E003A80090297804AB05AA20465E
:1039A00003F024FEBDF91000C0EB001080000A21D6
:1039B00090FBF1F6F0B28DF81800300A8DF819007E
:1039C000300C8DF81A00300E8DF81B00BDF80C007D
:1039D000C0B28DF81C00BDF80C00000A8DF81D0067
:1039E000BDF81400C0B28DF81E00BDF8140000121E
:1039F0008DF81F00082306AAF021D4E90C0CE0473B
:103A000079E02E78E879297A00EB01201FFA80FA14
:103A10006878A97800EB0120E97800EB014029796A
:103A200000EB01600690069800EB800040003C210E
:103A300090FBF1F000B207906879A97900EB0120C2
:103A40000FFA80FBCDF800B0524631462046079B66
:103A500003F011FF09904EE02878697800EB01200F
:103A600006B2A878E97800EB01200FFA80FA5246F6
:103A70003146204603F032FE012009903BE00695D6
:103A80008DF81C900C200890264906A803F097FB9F
:103A900009909DF8240040B122490B790A68F02171
:103AA000D4E90C06B04700200A9024E0002606E086
:103AB000D4F8C000805D0DF80600701CC6B2202E40
:103AC00004DAD4F8C000805D0028F1D104E00020C1
:103AD0000DF80600701CC6B2202EF8DB20236A46C3
:103AE000F021D4E90C0CE0470120099003E002E04A
:103AF0000120089000BF00BF0A9878B19DF824000B
:103B000030B100231A46F021D4E90C06B04705E095
:103B1000012308AAFF21D4E90C06B0470BB0BDE889
:103B2000F08F00000C0000202DE9F04104460D4606
:103B300016461F46204600F002F8BDE8F08110B599
:103B40000446E16B206B8847802084F8C800A16B95
:103B5000206B884710BD000010B502490868FFF7C8
:103B600072F910BD0000002010B502490868FFF787
:103B7000FEF910BD0000002010B50548007828B1FE
:103B800000F008F802F0F0FE03F070FD10BD000038
:103B90001E06002010B51148007801281DD11048DC
:103BA000008828B10E480088401E0D49088004E0B6
:103BB00002F0B4FD01200A4908800A48008820B1BB
:103BC00008480088401E074908800748008820B13F
:103BD00005480088401E0449088010BD1E060020CC
:103BE000180600201A0600201C06002010B5024905
:103BF0000868FFF7F3F910BD0000002010B5024976
:103C00000868FFF7F7F910BD00000020F8B504467A
:103C10000D46604802F0E2F900205F4908705F48F5
:103C20005F4908605F486049086001F0A5FA04F048
:103C300041F95E4800F0E2FE5C485D4908605D487D
:103C40005D4908605D48FCF713FE5B485B4B5C4ACE
:103C500001685C48FCF7F2FC5A485B490860544A2A
:103C60001168554A1068554A02F072F9544803F039
:103C7000D8FE564800F0C2FE554800F0BFFE53483B
:103C800054490860524854490860544854490860EF
:103C90000846006803F01BFF52485349086050482B
:103CA00000680968C1F8100150484F490968C1F817
:103CB0000C014F4800F07BFC4D484E4908604E48CF
:103CC0004E490860086801F09FFF0020FCF7A6FE3F
:103CD0000120464981F824003749086802F012F9AA
:103CE00000904248009901613349086802F00AF9DE
:103CF0000090BDF902003D49888241484149086071
:103D00002D490A683F49394B08682249FFF748F9AD
:103D10002949086802F00AF906463A49002208686B
:103D20003146FFF7DBF8374800682060204800681C
:103D3000354908602748006848602748006888605F
:103D40000020C860184800680861002048611B48CE
:103D500088610020C86108621748006848620D4801
:103D6000886224480068C8621D4800680863002013
:103D7000486388631C480068C8630020086448647E
:103D80008864C864086508462860012002490870F4
:103D9000F8BD0000DC0500201E060020E80300201E
:103DA00010060020E4010020000600202C01002065
:103DB000E8050020B0010020E40500209802002062
:103DC0006002002014030020F405002058010020A8
:103DD00084010020EC050020F0050020580300209D
:103DE000F8050020140000200C0600201008002018
:103DF00030030020FC050020D00300201406002022
:103E000038080020D80500205408002030B50246AC
:103E10000C460021B2F8000122F8104002F5807231
:103E2000108850801088401C10801088A2F5807285
:103E3000802802D30020A2F80001002304E032F918
:103E400013000144581C83B2802BF8D30846CD17C9
:103E500001EB5565E91108B2A2F80401204630BD16
:103E6000002104E0002220F811204A1C91B2802990
:103E7000F8D30022A0F80021A0F8022170470146E3
:103E8000B1F904017047000000B58DB0202105A8EC
:103E9000FCF7E0F900200190029003900490304874
:103EA000304908604FF48030486000212D4881601F
:103EB000012101610021017680F82010C1622A49A8
:103EC0008162C902C1600121C161002180F8301006
:103ED00001214161FDF752F808B1FCF735FD0820DA
:103EE00005900120069003200990002007904FF4D0
:103EF00080100C9000200B908DF8290001208DF887
:103F000028000020089005A91648FCF75DFE08B1BE
:103F1000FCF71AFD092005900220069005A911481A
:103F2000FCF752FE08B1FCF70FFD012005900320BD
:103F3000069005A90B48FCF747FE08B1FCF704FD05
:103F400008200190012002900020039001A905485B
:103F5000FCF74EFF08B1FCF7F7FC0DB000BD000008
:103F6000002001404C0600200100000F00B58DB07C
:103F7000202105A8FCF76EF9002001900290039023
:103F800004903048304908604FF480304860002188
:103F90002D488160012101610021017680F8201007
:103FA000C1622A498162C902C1600121C161002147
:103FB00080F8301001214161FCF7E0FF08B1FCF707
:103FC000C3FC0820059001200690032009900020E2
:103FD00007904FF480100C9000200B908DF8290072
:103FE00001208DF828000020089005A91648FCF74C
:103FF000EBFD08B1FCF7A8FC092005900220069013
:1040000005A91148FCF7E0FD08B1FCF79DFC012073
:1040100005900320069005A90B48FCF7D5FD08B1D3
:10402000FCF792FC082001900120029000200390F0
:1040300001A90548FCF7DCFE08B1FCF785FC0DB0D2
:1040400000BD000000210140940600200100000F87
:104050001CB50020009001900E480F4908600846EA
:10406000FDF791F808B1FCF76FFC3C2000900220AE
:104070000190002269460848FDF758F808B1FCF79E
:1040800063FC102269460448FDF750F808B1FCF7BC
:104090005BFC1CBD00740040DC06002000B587B04E
:1040A000142102A8FCF7D6F800BF0020019049486F
:1040B000006840F00200474908600846006800F0C8
:1040C0000200019000BF00BF00BF00200190084621
:1040D000006840F0010008600846006800F0010038
:1040E000019000BF00BF00BF00200190084600689B
:1040F00040F0080008600846006800F008000190E1
:1041000000BF00BF00BF002001900846006840F0DB
:10411000040008600846006800F00400019000BF39
:1041200000BF00BF002001900846006840F08000FA
:1041300008600846006800F08000019000BF00BFE2
:10414000012228212448FDF787F901220C21234868
:10415000FDF782F9012220212148FDF77DF94FF476
:10416000E0700290002003900120049002A91A48F8
:10417000FDF772F82820029001200390002004909F
:104180000320059002A91448FDF766F80420029068
:10419000144803900120049002A91348FDF75CF82D
:1041A0000C20029001200390002004900320059031
:1041B00002A90A48FDF750F8202002900120039040
:1041C000002004900320059002A90548FDF744F85B
:1041D00007B000BD30380240000402400000024039
:1041E0000008024000002110000C024038B5FDF725
:1041F000B1FB4FF4FA61B0FBF1F42046FEF71AF878
:1042000007490848FFF702FD03F01AFD0648044B72
:10421000044A01210090054803F04EFB38BD000020
:104220000400002000000020AF7F000808000020EC
:1042300010B5002202211220FDF7A2F91220FDF78D
:104240008FF9002211461920FDF79AF91920FDF780
:1042500087F9012204211820FDF792F91820FDF7B3
:104260007FF9002203211D20FDF78AF91D20FDF7AB
:1042700077F9012203212720FDF782F92720FDF796
:104280006FF9002203210820FDF77AF90820FDF7D5
:1042900067F910BD00B587B0142102A8FBF7DAFF5B
:1042A000002001901B481C490860002048607F21C5
:1042B00019488160FF21C160002101614161816174
:1042C000FDF70AFE08B1FCF73FFB00208DF808005F
:1042D0008DF809008DF80A0005900690012202A9C8
:1042E0000D48FDF7F3FE08B1FCF72EFB01208DF819
:1042F00004008DF805008DF8060000208DF80700F9
:10430000012201A90448FDF75FFE08B1FCF71CFB80
:1043100007B000BD00280040F006002000B597B0AF
:10432000142112A8FBF796FF0020109011901C2179
:1043300009A8FBF78FFF202101A8FBF78BFF3D4861
:104340003D4908600020486020213B48816041F2DF
:104350008241C1604FF480710161012141610021FE
:104360008161FEF71BF808B1FCF7EEFA3248FEF760
:10437000CCFA08B1FCF7E8FA06201290102013904E
:1043800012A92D48FEF7DEFA08B1FCF7DDFA00208D
:104390001090119010A92848FDF7A6FF08B1FCF76E
:1043A000D3FA6020099000200A900B900C900D9099
:1043B0000E900F90002209A91F48FEF722FA08B1BB
:1043C000FCF7C2FA042209A91B48FEF71AFA08B141
:1043D000FCF7BAFA082209A91748FEF712FA08B141
:1043E000FCF7B2FA7020099041F281400A900C2249
:1043F00009A91148FEF705FA08B1FCF7A5FA4FF430
:1044000000600190401002908010039043200490BF
:104410004FF48050059000200690089001A90648AE
:10442000FDF728FF08B1FCF78FFA0348FEF79AF969
:1044300017B000BD000001401007002000B58BB090
:10444000242102A8FBF706FF0020009001901948E4
:10445000194908600020486000211748816040F633
:104460009F71C160002101618161032002900020E1
:10447000039001200490002005900E20069000205B
:10448000079001200890002009900E200A9002A9B0
:104490000948FEF701F808B1FCF756FA0020009031
:1044A000019069460448FDF71FFF08B1FCF74CFA7C
:1044B0000BB000BD00040040500700201CB50020D8
:1044C000009001900E480F49086054204860002178
:1044D0000C48816040F2E731C16000218161FDF745
:1044E0005DFF08B1FCF730FA0020009001906946AA
:1044F0000448FDF7F9FE08B1FCF726FA1CBD0000E0
:10450000001400409007002010B50B480B490860CC
:104510004FF4E1304860002108488160C1600161CA
:104520000C21416100218161C161FEF742FA08B1AD
:10453000FCF70AFA10BD000000480040D007002038
:1045400070B504462078B0B994F8260001F012FA4C
:1045500006464FF6FF70864208D0208B451E208A03
:1045600045433544208BB5FBF0F52582204600F00D
:1045700030F8E08201E00020E082E08A70BD002196
:104580000182704710B50146087868B90A8A086A3E
:10459000121AB1F91E0042431046D31702EB13431F
:1045A0008C8C04EB234200E08A8A10B210BD10B557
:1045B0000446207840B9201D01F07EFA84F82600D8
:1045C0002046FFF7DCFF03E00020E082608A2082C3
:1045D00010BD01460A8A4B8B9A4201DD082006E095
:1045E0000A8A8B8B9A4201DA002000E0C88A704761
:1045F00070B500240CE0002506E00020074901EB1F
:10460000C5010855681CC5B2802DF6DB601CC4B21C
:10461000082CF0DB00F0BEF870BD0000A4090020FB
:10462000F0B5144600267F2801DC3F2900DDF0BDEF
:104630000B46CF1701EB5777FF10C7F10707FAB208
:10464000CF1701EB5777FF10A1EBC707FDB2C5F1FC
:1046500007070123BB40DEB24CB10A4B03EBC0039A
:104660009B5C3343074F07EBC007BB5408E0054B87
:1046700003EBC0039B5CB343024F07EBC007BB5483
:1046800000BFD4E7A409002010B5012220213F4833
:10469000FCF7E2FE012204213D48FCF7DDFE00228A
:1046A00008213B48FCF7D8FE0A20FCF7C1FD012297
:1046B00008213748FCF7D0FE6420FCF7B9FD002143
:1046C000AE2000F043F90021D52000F03FF9002191
:1046D000502000F03BF90021A82000F037F900211C
:1046E0003F2000F033F90021D32000F02FF9002102
:1046F000084600F02BF90021402000F027F90021A6
:104700008D2000F023F90021142000F01FF9002172
:10471000202000F01BF90021022000F017F90021F1
:10472000A12000F013F90021C02000F00FF90021B2
:10473000DA2000F00BF90021122000F007F9002127
:10474000812000F003F90021EF2000F0FFF80021A4
:10475000D92000F0FBF80021F12000F0F7F800214B
:10476000DB2000F0F3F80021302000F0EFF800210A
:10477000A42000F0EBF80021A62000F0E7F80021CB
:10478000AF2000F0E3F8FFF733FF10BD0008024050
:104790000000024070B500241CE004F1B001C8B272
:1047A000002100F0D3F80021084600F0CFF80021E6
:1047B000102000F0CBF8002508E0084901EBC50106
:1047C000085D012100F0C2F8681CC5B2802DF4DB41
:1047D000601CC4B2082CE0DB70BD0000A4090020FE
:1047E0002DE9F84F80460F4616461C46BA4620462D
:1047F000E31704EB5373DB1021464FEAE47C04EB30
:104800005C7C4FEAEC0CA4EBCC0CBCF1000F02D0AA
:104810004FF0010C01E04FF0000C6344224604EB22
:10482000D27C4FEA6C0C03FB0CF303F0FF0BA6F1F8
:104830002000C6B200254EE00C2C07D106EB460046
:10484000274901EB8000405D009013E0102C05D15A
:10485000244800EB0610405D00900BE0182C07D1B7
:1048600006EBC600204901EB8000405D009001E0AE
:10487000BDE8F88F4FF0000927E0009800F08000B5
:1048800028B1394640460A9AFFF7CAFE09E00A985D
:1048900008B9012000E00020024639464046FFF7F3
:1048A000BFFE00984006000E0090781CC7B2A7EB30
:1048B0000A00A04205D1574608F1010000F0FF08A8
:1048C00006E009F1010000F0FF09B9F1080FD4DB9F
:1048D00000BF681CC5B25D45AEDB00BFC8E7000085
:1048E000EC82000860870008508D0008F8B5064685
:1048F0000F4615461C4621E004EBD4714910C1F166
:104900008001B14202DA00263819C7B2C4F1400072
:10491000B84204DA002006460746FFF769FE012088
:1049200000902A78234639463046FFF759FF204643
:1049300004EBD07106EB6101CEB26D1C28787E28A5
:1049400002DC28782028D7DAF8BD000070B50446CC
:104950000E462EB1012204211C48FCF77DFD04E027
:10496000002204211948FCF777FD00222021184875
:10497000FCF772FD00251BE0002208211548FCF71A
:104980006BFD04F0800028B1012220211148FCF7C2
:1049900063FD04E0002220210E48FCF75DFD0122AA
:1049A00008210C48FCF758FD6006040E681CC5B2CF
:1049B000082DE1DB012220210548FCF74DFD0122F5
:1049C00004210248FCF748FD70BD000000000240D1
:1049D00000080240000402400146B1F9220070477D
:1049E0000146B1F9060070470146488B7047014601
:1049F000B1F9040070470146088B70470188818037
:104A00004188C180018C41840021816081627047AE
:104A10008160704741847047C180704781807047D2
:104A20002DE9F04302460D464FF00008B2F914603C
:104A3000B2F91670B2F9040000FB05FCD08810B979
:104A40000020906022E0B2F9060000FB05F49068B7
:104A50000319002B07DA906800280ADD002C08DD16
:104A60006FF0004305E09068002802DA002C00DABD
:104A7000144BD068984202DAD068906006E0106962
:104A8000984202DD1069906000E0936092F81E90F9
:104A9000906840FA09F092F81C904CFA09F900EB82
:104AA0000901B14203DDA6EB0108314604E0B94239
:104AB00002DAA7EB0108394690684044906008B2DA
:104AC000BDE8F083010000802DE9FC410446D4F8E4
:104AD0000C01C0680190D4F80C01D0F816000090C9
:104AE000BDF80400BDF8001010FB01F0BDF8061081
:104AF000BDF8022011FB0206F11706EB11410E145E
:104B0000D4F8100102F06EFFD4F8081100FB01F791
:104B10004FF4167097FBF0F706FB07F505EB450021
:104B200045000A2095FBF0F5E91705EB11410D143E
:104B300029462046FFF76AF9BDE8FC8110B5044616
:104B40002046E169884710BD70B504460D46002631
:104B50006DB9204600F059F94434E0892080E0899D
:104B6000443CB0B9204621698847012611E0012D57
:104B70000FD1B4F8440058B134F8440F401E2080DF
:104B800034F8440928B9204621698847012600E005
:104B90000126304670BD70B504460D4629462046B4
:104BA0006268904770BD2DE9F34F81B00446BDF9AE
:104BB0000800218E48430090BDF90A00B4F8501057
:104BC000484340424FEA400B5E4600990BEB010020
:104BD00000EBD0714FEA61080099ABEB010000EBEC
:104BE000D0714F10B8F1000F6ADA002F22DA0420DA
:104BF00004F83A0FE18ACA1701EB92729210A8EBFF
:104C00000700C31700EB933302EBA3453846F917AF
:104C100007EBD13105EB614940464FEAE87108EBFB
:104C2000D131A5EB614AA4F802A0A580A4F80690B2
:104C30003A3CAFE0002E20DC032004F83A0FE18A72
:104C4000CA1701EB92729210F01BC31700EB93335B
:104C500002EBA3453846F91707EBD13105EB614963
:104C60003046F11706EBD131A9EB614AA4F802A056
:104C7000A4F80490E5803A3C8CE0022004F83A0F56
:104C8000E18ACA1701EB92729210A8EB0600C317D3
:104C900000EB933302EBA34540464FEAE87108EB83
:104CA000D131A5EB614A3046F11706EBD1310AEB61
:104CB0006149A4F80290A4F804A0E5803A3C69E0B8
:104CC000002F22DB012004F83A0FE18ACA1701EB1A
:104CD00092729210A8EB0700C31700EB933302EB1C
:104CE000A3453846F91707EBD13105EB614940463A
:104CF0004FEAE87108EBD131A5EB614AA4F80290C4
:104D0000A580A4F806A03A3C44E0002E22DC052051
:104D100004F83A0FE18ACA1701EB92729210A8EBDD
:104D20000600C31700EB933302EBA34540464FEA5E
:104D3000E87108EBD131A5EB614A3046F11706EB7B
:104D4000D1310AEB61496580A4F804A0A4F806906B
:104D50003A3C1FE0002004F83A0FE18ACA1701EB41
:104D600092729210F01BC31700EB933302EBA34532
:104D70003846F91707EBD13105EB61493046F11799
:104D800006EBD131A9EB614A6580A4F80490A4F840
:104D900006A03A3C6586A4F83490A4F836A0B4F88E
:104DA0004E0001282CD1B4F94800002805DD608EA2
:104DB000B4F854100844608604E0608EB4F85410CF
:104DC000401A6086B4F94A00002805DDA08EB4F8C8
:104DD00054100844A08604E0A08EB4F85410401A81
:104DE000A086B4F94C00002805DDE08EB4F854101C
:104DF0000844E08604E0E08EB4F85410401AE086DF
:104E00002046A1698847BDE8FE8F10B504462046BC
:104E1000A168884710BD10B50446A06F90F88F00B8
:104E200002280ED1A26F9169D068FDF7D1FEA26F62
:104E3000D1691069FDF7CCFEA26F116A5069FDF7C8
:104E4000C7FE012084F8740004F1460010BD000084
:104E500070B504462546A86F86680020E865286678
:104E6000686685F8730040F255513046FDF7B5FE8F
:104E7000384868603848A861032085F8720085F8D2
:104E80003A00284600F058FCA86F90F88E2005F1F3
:104E9000730305F13801304603F044F8284600F06A
:104EA00016FC002085F873002C486860002085F807
:104EB000720085F83A00284600F03EFCA86F90F892
:104EC0008E2005F1730305F13801304603F02AF80E
:104ED000284600F0FCFBE86DC008E865286EC008B5
:104EE0002866686EC00868661D4868601D48A8612D
:104EF00001213046FDF7DAFE10213046FDF7D6FEDF
:104F00004FF480713046FDF7D1FEB5F87010304691
:104F1000FDF72CFFB5F870103046FDF729FFB5F806
:104F200070103046FDF726FF01213046FDF7EEFEFA
:104F300010213046FDF7EAFE4FF480713046FDF750
:104F4000E5FE032085F83A0040F255513046FDF762
:104F500048FE70BDD950000829560008315100089C
:104F6000694F00084D5600082DE9F05F07460C46D2
:104F70003E46B06FD0F808B04FF480515846FDF768
:104F80002CFE96F83A80B06F243050F82800006864
:104F90004FF6FF7101EA4009B06F3C3050F828002D
:104FA000006801EA400AB8F1060F7AD2DFE808F09B
:104FB0002C575803042B00BFF06DA0EB090515F525
:104FC000004F03DC48F20100208008E0B5F5004FF7
:104FD00003DB47F6FF70208001E028B22080306EAE
:104FE000A0EB0A0515F5004F03DC48F201006080D4
:104FF00008E0B5F5004F03DB47F6FF70608001E085
:1050000028B2608059E000BF306EA0EB090515F5AD
:10501000004F03DC48F20100608008E0B5F5004F66
:1050200003DB47F6FF70608001E028B26080706E9D
:10503000A0EB0A05B4F9020069420D1AB5F5004F5C
:1050400003DB47F6FF70208008E015F5004F03DC16
:1050500048F20100208001E028B220802DE000BF4E
:10506000F06DA0EB090515F5004F03DC48F20100D7
:10507000208008E0B5F5004F03DB47F6FF70208085
:1050800001E028B22080706EA0EB0A05B4F90000A0
:1050900069420D1AB5F5004F04DB47F6FF706080DA
:1050A00009E009E015F5004F03DC48F201006080DB
:1050B00001E028B2608000E000BF00BF208826F831
:1050C000480F60887080208840426188401A00B292
:1050D000B080483EBDE8F09F2DE9F04105460E4600
:1050E0002C46A06F87684FF480513846FDF775FD58
:1050F00094F87300102816D25C34E0692430A17D46
:1051000050F821000068216808442060E0693C30C4
:10511000A17D50F821000068616808446060E07D6E
:10512000401CE0755C3C002030807080BDE8F08160
:105130002DE9F04105460E462C46A06F87684FF4D6
:1051400080513846FDF749FD94F8730010280DD2C0
:10515000643460693C30A17B50F82100006821680C
:1051600008442060E07B401CE073643C00203080F9
:105170007080BDE8F08100002DE9F0410446A06F89
:105180008568A06F0668A06F476800BF286820F098
:105190000100286000BFA06F90F8900058B100BFD8
:1051A0006FF08000286100BF00BFE86840F0800019
:1051B000E86000BF00BF2846FDF737FDA06F90F8FC
:1051C0008C0002281BD1A06F90F88D0001280FD110
:1051D000A06F90F88E0003280AD101212846FDF720
:1051E00005FE2846FDF721FD03212846FDF7FEFDBB
:1051F000B4F87000411E2846FDF7F6FD08E094F86B
:10520000460028B9B4F87000411E2846FDF7ECFDB1
:1052100040F255512846FDF7E4FC1B48854205D174
:105220000120FDF7C1FC2801A06605E00220FDF782
:10523000BBFC4FF4F010A0663046FDF771FC384619
:10524000FDF76EFC00BF6FF00400306000BF00BFD0
:10525000706840F08000706000BF0020F16A21F4A7
:1052600070010143F16200BF00213046FDF75DFC93
:1052700000213846FDF759FC4FF48010E06600200D
:10528000A4F84E00BDE8F0810000014001460A4646
:10529000002092F87430012B03D14020002382F8C3
:1052A0007430704770B505462C46A06F866894F838
:1052B0004700012872D1602201213046FDF75EFDD2
:1052C00001213046FDF78DFCA06F90F88F0001287A
:1052D00004D104213046FDF784FC08E0A06F90F86B
:1052E0008F00022803D104213046FDF776FCB4F884
:1052F000700041083046FDF739FD6022102130462C
:10530000FDF73CFD10213046FDF76BFCA06F90F8D7
:105310008F00012804D140213046FDF762FC08E0EF
:10532000A06F90F88F00022803D140213046FDF78E
:1053300054FCB4F8700041083046FDF719FD6022B6
:105340004FF480713046FDF719FD4FF480713046FF
:10535000FDF747FCA06F90F88F00012804D181026F
:105360003046FDF73EFC08E0A06F90F88F00022861
:1053700003D141023046FDF730FCB4F8700041081B
:105380003046FDF7F7FC0648606006486061064855
:10539000E0600648A060002084F8470070BD00006F
:1053A000694F0008B158000839570008CF56000867
:1053B00070B505462C46A06F866894F84700002813
:1053C00045D1602201213046FDF7D8FC012130464D
:1053D000FDF707FC04213046FDF7FFFB00213046B6
:1053E000FDF7C4FCA06F90F88F0001280DD11022AA
:1053F00011463046FDF7C2FC10213046FDF7EDFBAB
:1054000040213046FDF7EDFB11E0A06F90F88F00D2
:1054100002280CD1202210213046FDF7AFFC1021CC
:105420003046FDF7DEFB40213046FDF7D6FB70220B
:105430004FF480713046FDF7A1FC4FF48071304687
:10544000FDF7CBFB4FF480613046FDF7C6FB064805
:105450006060064860610648E0600648A060012080
:1054600084F8470070BD0000C9540008CF550008FB
:1054700019550008CF5600082DE9F04704460F469D
:105480002546A86FD0F80890B5F8700078434FEA29
:105490001048A5F83280698E4846FDF767FC032066
:1054A00084F83A004FF480514846FDF79EFB08B15E
:1054B000012600E00026288F012802D101260020C5
:1054C00028873046BDE8F0872DE9F04104460F46B5
:1054D0002546A86FD0F808804FF480514046FDF76C
:1054E0007CFBA86F3C3095F83A1050F8210000681A
:1054F000296EA1EB40060748864204DD400C864237
:1055000002DB064600E0034E30B2388030B27880CD
:10551000BDE8F0810180FFFF70B506463446A06FFC
:1055200085682846FDF76EFB00BF2846FDF7B8FBEF
:105530000028FAD02846FDF765FB01212846FDF733
:1055400015FCB4F87000411F2846FDF715FC00BF9C
:105550002846FDF7A5FB0028FAD02846FDF752FBA8
:10556000686C40F4806068642846FDF74FFBA06FCC
:1055700090F88F00022823D1286A40F25551084044
:1055800078B1A26F9169D068FDF725FBA26FD16950
:105590001069FDF720FBA26F116A5069FDF718FB37
:1055A0000EE0A26F9169D068FDF712FBA26FD1697E
:1055B0001069FDF70DFBA26F116A5069FDF708FB3A
:1055C0002846FDF71FFB2846FDF725FB70BD70B58B
:1055D00005462C46A06F866800213046FDF7C6FBC5
:1055E0003046FDF70FFB00BF3046FDF759FB0028A2
:1055F000FAD03046FDF706FB3046FDF707FBA06FFB
:1056000090F88F0002280ED1A26F9169D068FDF743
:10561000E2FAA26FD1691069FDF7DAFAA26F116A96
:105620005069FDF7D5FA70BD70B5044625464FF4B4
:105630008010E86695F8720085F83A00B5F87000B9
:10564000401E81B2284600F06BF970BD2DE9F0478D
:1056500005462C46AF8FB5F83E90B4F87000C01BDD
:1056600080B2A16FB1F88610884207DD032084F86C
:105670003A00B4F87000401E86B222E0A7EB0900A1
:105680001FFA80F8B4F87000C01B80B2B8EB400F6E
:1056900005D9A06FB0F88800381A86B211E0A06F63
:1056A000B0F88600384486B2B4F87000B04208DC26
:1056B0004FF40010E066B4F87000C6EB4000401EE6
:1056C00086B23146204600F02BF9BDE8F08770B570
:1056D00005462C46A06F866800BFF06820F00100E8
:1056E000F06000BF002084F8420000BF706C20F41E
:1056F0000040706400BFA06F90F88F0002280ED1A8
:10570000A26F9169D068FDF763FAA26FD169106941
:10571000FDF75EFAA26F116A5069FDF759FA30463B
:10572000FDF770FA00BF3046FDF7BAFA0028FAD04C
:105730003046FDF767FA70BD70B505462C46423419
:10574000D4F83600866800202070E08D4110304685
:10575000FDF70CFBE08D41103046FDF709FBE08DB5
:1057600041103046FDF706FBE08D423C411F3046BC
:10577000FDF702FB3046FDF745FA00BF3046FDF766
:105780008FFA0028FAD03046FDF73CFA706C40F4EE
:10579000806070643046FDF739FAA06F90F88F0092
:1057A000022824D140F255513046FDF71EFA78B157
:1057B000A26F9169D068FDF70EFAA26FD1691069E6
:1057C000FDF709FAA26F116A5069FDF704FA0EE0BD
:1057D000A26F9169D068FDF7FBF9A26FD1691069DA
:1057E000FDF7F6F9A26F116A5069FDF7F1F930463D
:1057F000FDF708FA3046FDF70EFA70BD2DE9F041CD
:105800000446A06F8768A06F0568A06FD0F8048079
:10581000286800F00C06082E06D100BF286800F0AA
:105820000C060C2EFAD112E08EB900BF786AA16F77
:10583000B1F884108842F9D3286800F00C06082ECD
:1058400005D100BF286800F00C060C2EFAD12846BE
:10585000FDF77DF94046FDF77AF9A06F543094F8D2
:105860003A1050F82100A863A06F6C3094F83A10F9
:1058700050F82100C8F838002846A16EFDF75BF902
:105880004046A16EFDF757F94FF480513846FDF7B9
:10589000A8F92846E16EFDF756F94046E16EFDF79E
:1058A00052F94FF48010E06604F14600BDE8F08143
:1058B00070B505462C46A06F8668012084F842002A
:1058C0003046FDF79FF900213046FDF74FFA0021E1
:1058D0003046FDF74DFA00213046FDF74BFA00BF88
:1058E0003046FDF7DDF90028FAD03046FDF78AF999
:1058F0003046FDF78BF9A06F90F88F0002280ED18B
:10590000A26F9169D068FDF766F9A26FD16910693D
:10591000FDF761F9A26F116A5069FDF75CF970BD7E
:105920002DE9F04104460F462546A86FD0F80880BF
:10593000698E4046FDF71AFAA98E4046FDF718FA1F
:10594000E98E4046FDF716FA39464046FDF714FA4F
:105950004FF480514046FDF748F908B1012600E0B8
:105960000026288F012802D10126002028873046F2
:10597000BDE8F0812DE9F0410446364A52F8242072
:105980004FF400701168334A52F824201279092A22
:105990000ED8304A52F8242012792E4E56F8246040
:1059A000367906EB4606070447EA065632430EE010
:1059B000284A52F824201279264E56F82460367967
:1059C0000A3E06EB4606002747EA065632431346D0
:1059D00000F440764FF4407797FAA7F7B7FA87F7C5
:1059E000FE4001F12C0707EB8602166800F01F0C41
:1059F0001F2707FA0CF7BE4303F01F0700F01F0C28
:105A000007FA0CF73E43166000BF124951F8241004
:105A10000868C16C01210F4850F824000068083064
:105A20004FF0844202EB4010816700BF094951F8F2
:105A3000241008680168C1F340010029F6D0054927
:105A400051F824100868FDF787F805462846BDE898
:105A5000F0810000A808002010B513480078012844
:105A600021D112480078FFF785FF114908800220F4
:105A70000D4908700F480D49097850F8310090B170
:105A80000020094908700B480849097800EBC1005B
:105A9000426808480549097850F8313004480188BF
:105AA00002480078984710BD2406002020060020F8
:105AB00022060020B80800202DE9F0410146FF2011
:105AC00000221CE04E4B53F8223013B9042800DDAD
:105AD00010464B4B53F822307BB1494B53F82230E0
